{"contracts/hospital.sol":{"HospitalManagement":{"abi":[{"anonymous":false,"inputs":[{"indexed":false,"internalType":"string","name":"doctorId","type":"string"},{"indexed":false,"internalType":"string","name":"name","type":"string"},{"indexed":false,"internalType":"string","name":"specialization","type":"string"}],"name":"DoctorRegistered","type":"event"},{"anonymous":false,"inputs":[{"indexed":false,"internalType":"string","name":"hospitalId","type":"string"},{"indexed":false,"internalType":"string","name":"name","type":"string"}],"name":"HospitalRegistered","type":"event"},{"anonymous":false,"inputs":[{"indexed":false,"internalType":"string","name":"hospitalId","type":"string"},{"indexed":false,"internalType":"string","name":"name","type":"string"},{"indexed":false,"internalType":"uint256","name":"availableBeds","type":"uint256"}],"name":"HospitalUpdated","type":"event"},{"anonymous":false,"inputs":[{"indexed":false,"internalType":"string","name":"patientId","type":"string"},{"indexed":false,"internalType":"string","name":"name","type":"string"}],"name":"PatientRegistered","type":"event"},{"anonymous":false,"inputs":[{"indexed":true,"internalType":"address","name":"userAddress","type":"address"},{"indexed":false,"internalType":"string","name":"userId","type":"string"},{"indexed":false,"internalType":"enum HospitalManagement.Role","name":"role","type":"uint8"}],"name":"UserRegistered","type":"event"},{"anonymous":false,"inputs":[{"indexed":true,"internalType":"address","name":"userAddress","type":"address"},{"indexed":false,"internalType":"enum HospitalManagement.Role","name":"newRole","type":"uint8"}],"name":"UserRoleUpdated","type":"event"},{"inputs":[{"internalType":"string","name":"","type":"string"}],"name":"doctors","outputs":[{"internalType":"string","name":"id","type":"string"},{"internalType":"string","name":"name","type":"string"},{"internalType":"string","name":"specialization","type":"string"},{"internalType":"string","name":"hospitalId","type":"string"},{"internalType":"uint256","name":"experience","type":"uint256"},{"internalType":"bool","name":"availability","type":"bool"},{"internalType":"bool","name":"exists","type":"bool"}],"stateMutability":"view","type":"function"},{"inputs":[{"internalType":"string","name":"_id","type":"string"}],"name":"getDoctor","outputs":[{"components":[{"internalType":"string","name":"id","type":"string"},{"internalType":"string","name":"name","type":"string"},{"internalType":"string","name":"specialization","type":"string"},{"internalType":"string","name":"hospitalId","type":"string"},{"internalType":"uint256","name":"experience","type":"uint256"},{"internalType":"bool","name":"availability","type":"bool"},{"internalType":"bool","name":"exists","type":"bool"}],"internalType":"struct HospitalManagement.Doctor","name":"","type":"tuple"}],"stateMutability":"view","type":"function"},{"inputs":[{"internalType":"string","name":"_id","type":"string"}],"name":"getHospital","outputs":[{"components":[{"internalType":"string","name":"id","type":"string"},{"internalType":"string","name":"name","type":"string"},{"internalType":"string","name":"addresss","type":"string"},{"internalType":"string","name":"phone","type":"string"},{"internalType":"uint256","name":"totalBeds","type":"uint256"},{"internalType":"uint256","name":"availableBeds","type":"uint256"},{"internalType":"uint256","name":"icuBeds","type":"uint256"},{"internalType":"uint256","name":"ventilators","type":"uint256"},{"internalType":"bool","name":"exists","type":"bool"}],"internalType":"struct HospitalManagement.Hospital","name":"","type":"tuple"}],"stateMutability":"view","type":"function"},{"inputs":[{"internalType":"string","name":"_id","type":"string"}],"name":"getPatient","outputs":[{"components":[{"internalType":"string","name":"id","type":"string"},{"internalType":"string","name":"name","type":"string"},{"internalType":"string","name":"bloodType","type":"string"},{"internalType":"string","name":"allergy","type":"string"},{"internalType":"string","name":"surgery","type":"string"},{"internalType":"string","name":"medicalIssue","type":"string"},{"internalType":"string","name":"emergencyContact","type":"string"},{"internalType":"bool","name":"exists","type":"bool"}],"internalType":"struct HospitalManagement.Patient","name":"","type":"tuple"}],"stateMutability":"view","type":"function"},{"inputs":[{"internalType":"address","name":"_userAddress","type":"address"}],"name":"getUser","outputs":[{"components":[{"internalType":"string","name":"id","type":"string"},{"internalType":"string","name":"name","type":"string"},{"internalType":"string","name":"email","type":"string"},{"internalType":"string","name":"phone","type":"string"},{"internalType":"string","name":"profilePic","type":"string"},{"internalType":"enum HospitalManagement.Role","name":"role","type":"uint8"},{"internalType":"bool","name":"exists","type":"bool"}],"internalType":"struct HospitalManagement.User","name":"","type":"tuple"}],"stateMutability":"view","type":"function"},{"inputs":[{"internalType":"string","name":"","type":"string"}],"name":"hospitals","outputs":[{"internalType":"string","name":"id","type":"string"},{"internalType":"string","name":"name","type":"string"},{"internalType":"string","name":"addresss","type":"string"},{"internalType":"string","name":"phone","type":"string"},{"internalType":"uint256","name":"totalBeds","type":"uint256"},{"internalType":"uint256","name":"availableBeds","type":"uint256"},{"internalType":"uint256","name":"icuBeds","type":"uint256"},{"internalType":"uint256","name":"ventilators","type":"uint256"},{"internalType":"bool","name":"exists","type":"bool"}],"stateMutability":"view","type":"function"},{"inputs":[{"internalType":"string","name":"","type":"string"}],"name":"patients","outputs":[{"internalType":"string","name":"id","type":"string"},{"internalType":"string","name":"name","type":"string"},{"internalType":"string","name":"bloodType","type":"string"},{"internalType":"string","name":"allergy","type":"string"},{"internalType":"string","name":"surgery","type":"string"},{"internalType":"string","name":"medicalIssue","type":"string"},{"internalType":"string","name":"emergencyContact","type":"string"},{"internalType":"bool","name":"exists","type":"bool"}],"stateMutability":"view","type":"function"},{"inputs":[{"internalType":"string","name":"_id","type":"string"},{"internalType":"string","name":"_name","type":"string"},{"internalType":"string","name":"_specialization","type":"string"},{"internalType":"string","name":"_hospitalId","type":"string"},{"internalType":"uint256","name":"_experience","type":"uint256"}],"name":"registerDoctor","outputs":[],"stateMutability":"nonpayable","type":"function"},{"inputs":[{"internalType":"string","name":"_id","type":"string"},{"internalType":"string","name":"_name","type":"string"},{"internalType":"string","name":"_address","type":"string"},{"internalType":"string","name":"_phone","type":"string"},{"internalType":"uint256","name":"_totalBeds","type":"uint256"},{"internalType":"uint256","name":"_icuBeds","type":"uint256"},{"internalType":"uint256","name":"_ventilators","type":"uint256"}],"name":"registerHospital","outputs":[],"stateMutability":"nonpayable","type":"function"},{"inputs":[{"internalType":"string","name":"_id","type":"string"},{"internalType":"string","name":"_name","type":"string"},{"internalType":"string","name":"_bloodType","type":"string"},{"internalType":"string","name":"_allergy","type":"string"},{"internalType":"string","name":"_surgery","type":"string"},{"internalType":"string","name":"_medicalIssue","type":"string"},{"internalType":"string","name":"_emergencyContact","type":"string"}],"name":"registerPatient","outputs":[],"stateMutability":"nonpayable","type":"function"},{"inputs":[{"internalType":"string","name":"_id","type":"string"},{"internalType":"string","name":"_name","type":"string"},{"internalType":"string","name":"_email","type":"string"},{"internalType":"string","name":"_phone","type":"string"},{"internalType":"string","name":"_profilePic","type":"string"},{"internalType":"enum HospitalManagement.Role","name":"_role","type":"uint8"}],"name":"registerUser","outputs":[],"stateMutability":"nonpayable","type":"function"},{"inputs":[{"internalType":"string","name":"_id","type":"string"},{"internalType":"uint256","name":"_availableBeds","type":"uint256"}],"name":"updateHospital","outputs":[],"stateMutability":"nonpayable","type":"function"},{"inputs":[{"internalType":"address","name":"_userAddress","type":"address"},{"internalType":"enum HospitalManagement.Role","name":"_newRole","type":"uint8"}],"name":"updateUserRole","outputs":[],"stateMutability":"nonpayable","type":"function"},{"inputs":[{"internalType":"address","name":"","type":"address"}],"name":"users","outputs":[{"internalType":"string","name":"id","type":"string"},{"internalType":"string","name":"name","type":"string"},{"internalType":"string","name":"email","type":"string"},{"internalType":"string","name":"phone","type":"string"},{"internalType":"string","name":"profilePic","type":"string"},{"internalType":"enum HospitalManagement.Role","name":"role","type":"uint8"},{"internalType":"bool","name":"exists","type":"bool"}],"stateMutability":"view","type":"function"}],"evm":{"bytecode":{"linkReferences":{},"object":"608060405234801561001057600080fd5b5061481a806100206000396000f3fe608060405234801561001057600080fd5b50600436106100ea5760003560e01c8063a30b6ec31161008c578063bc75e60211610066578063bc75e60214610293578063c291fe62146102af578063c6009d84146102cb578063e79a7a2e14610302576100ea565b8063a30b6ec314610225578063a3de4d6014610241578063a87430ba1461025d576100ea565b80636f77926b116100c85780636f77926b146101715780639166df58146101a15780639f50b7da146101d15780639f516435146101ed576100ea565b806305c35ce5146100ef578063604990921461012557806369dac91314610155575b600080fd5b61010960048036038101906101049190613034565b610332565b60405161011c9796959493929190613130565b60405180910390f35b61013f600480360381019061013a9190613034565b6105c4565b60405161014c91906132d4565b60405180910390f35b61016f600480360381019061016a919061331b565b6108f2565b005b61018b60048036038101906101869190613492565b610b20565b60405161019891906135ee565b60405180910390f35b6101bb60048036038101906101b69190613034565b610f36565b6040516101c891906136ea565b60405180910390f35b6101eb60048036038101906101e69190613738565b611268565b005b61020760048036038101906102029190613034565b61154f565b60405161021c9998979695949392919061384a565b60405180910390f35b61023f600480360381019061023a91906138f3565b6117e0565b005b61025b60048036038101906102569190613a59565b611a5e565b005b61027760048036038101906102729190613492565b611daa565b60405161028a9796959493929190613b53565b60405180910390f35b6102ad60048036038101906102a89190613be5565b6120ae565b005b6102c960048036038101906102c49190613c41565b6122d2565b005b6102e560048036038101906102e09190613034565b6124d0565b6040516102f9989796959493929190613c81565b60405180910390f35b61031c60048036038101906103179190613034565b6128f3565b6040516103299190613e0a565b60405180910390f35b60028180516020810182018051848252602083016020850120818352809550505050505060009150905080600001805461036b90613e5b565b80601f016020809104026020016040519081016040528092919081815260200182805461039790613e5b565b80156103e45780601f106103b9576101008083540402835291602001916103e4565b820191906000526020600020905b8154815290600101906020018083116103c757829003601f168201915b5050505050908060010180546103f990613e5b565b80601f016020809104026020016040519081016040528092919081815260200182805461042590613e5b565b80156104725780601f1061044757610100808354040283529160200191610472565b820191906000526020600020905b81548152906001019060200180831161045557829003601f168201915b50505050509080600201805461048790613e5b565b80601f01602080910402602001604051908101604052809291908181526020018280546104b390613e5b565b80156105005780601f106104d557610100808354040283529160200191610500565b820191906000526020600020905b8154815290600101906020018083116104e357829003601f168201915b50505050509080600301805461051590613e5b565b80601f016020809104026020016040519081016040528092919081815260200182805461054190613e5b565b801561058e5780601f106105635761010080835404028352916020019161058e565b820191906000526020600020905b81548152906001019060200180831161057157829003601f168201915b5050505050908060040154908060050160009054906101000a900460ff16908060050160019054906101000a900460ff16905087565b6105cc612db3565b6002826040516105dc9190613ec8565b908152602001604051809103902060050160019054906101000a900460ff1661063a576040517f08c379a000000000000000000000000000000000000000000000000000000000815260040161063190613f2b565b60405180910390fd5b60028260405161064a9190613ec8565b90815260200160405180910390206040518060e001604052908160008201805461067390613e5b565b80601f016020809104026020016040519081016040528092919081815260200182805461069f90613e5b565b80156106ec5780601f106106c1576101008083540402835291602001916106ec565b820191906000526020600020905b8154815290600101906020018083116106cf57829003601f168201915b5050505050815260200160018201805461070590613e5b565b80601f016020809104026020016040519081016040528092919081815260200182805461073190613e5b565b801561077e5780601f106107535761010080835404028352916020019161077e565b820191906000526020600020905b81548152906001019060200180831161076157829003601f168201915b5050505050815260200160028201805461079790613e5b565b80601f01602080910402602001604051908101604052809291908181526020018280546107c390613e5b565b80156108105780601f106107e557610100808354040283529160200191610810565b820191906000526020600020905b8154815290600101906020018083116107f357829003601f168201915b5050505050815260200160038201805461082990613e5b565b80601f016020809104026020016040519081016040528092919081815260200182805461085590613e5b565b80156108a25780601f10610877576101008083540402835291602001916108a2565b820191906000526020600020905b81548152906001019060200180831161088557829003601f168201915b50505050508152602001600482015481526020016005820160009054906101000a900460ff161515151581526020016005820160019054906101000a900460ff1615151515815250509050919050565b6000803373ffffffffffffffffffffffffffffffffffffffff1673ffffffffffffffffffffffffffffffffffffffff16815260200190815260200160002060050160019054906101000a900460ff1615610981576040517f08c379a000000000000000000000000000000000000000000000000000000000815260040161097890613f97565b60405180910390fd5b6040518060e001604052808781526020018681526020018581526020018481526020018381526020018260038111156109bd576109bc6134bf565b5b8152602001600115158152506000803373ffffffffffffffffffffffffffffffffffffffff1673ffffffffffffffffffffffffffffffffffffffff1681526020019081526020016000206000820151816000019081610a1c9190614163565b506020820151816001019081610a329190614163565b506040820151816002019081610a489190614163565b506060820151816003019081610a5e9190614163565b506080820151816004019081610a749190614163565b5060a08201518160050160006101000a81548160ff02191690836003811115610aa057610a9f6134bf565b5b021790555060c08201518160050160016101000a81548160ff0219169083151502179055509050503373ffffffffffffffffffffffffffffffffffffffff167fc2e5d5da58bd71d1a2d14cdef02a4256d971b728088f8190d067ccfbae3bd73e8783604051610b10929190614235565b60405180910390a2505050505050565b610b28612df4565b6000808373ffffffffffffffffffffffffffffffffffffffff1673ffffffffffffffffffffffffffffffffffffffff16815260200190815260200160002060050160019054906101000a900460ff16610bb6576040517f08c379a0000000000000000000000000000000000000000000000000000000008152600401610bad906142b1565b60405180910390fd5b6000808373ffffffffffffffffffffffffffffffffffffffff1673ffffffffffffffffffffffffffffffffffffffff1681526020019081526020016000206040518060e0016040529081600082018054610c0f90613e5b565b80601f0160208091040260200160405190810160405280929190818152602001828054610c3b90613e5b565b8015610c885780601f10610c5d57610100808354040283529160200191610c88565b820191906000526020600020905b815481529060010190602001808311610c6b57829003601f168201915b50505050508152602001600182018054610ca190613e5b565b80601f0160208091040260200160405190810160405280929190818152602001828054610ccd90613e5b565b8015610d1a5780601f10610cef57610100808354040283529160200191610d1a565b820191906000526020600020905b815481529060010190602001808311610cfd57829003601f168201915b50505050508152602001600282018054610d3390613e5b565b80601f0160208091040260200160405190810160405280929190818152602001828054610d5f90613e5b565b8015610dac5780601f10610d8157610100808354040283529160200191610dac565b820191906000526020600020905b815481529060010190602001808311610d8f57829003601f168201915b50505050508152602001600382018054610dc590613e5b565b80601f0160208091040260200160405190810160405280929190818152602001828054610df190613e5b565b8015610e3e5780601f10610e1357610100808354040283529160200191610e3e565b820191906000526020600020905b815481529060010190602001808311610e2157829003601f168201915b50505050508152602001600482018054610e5790613e5b565b80601f0160208091040260200160405190810160405280929190818152602001828054610e8390613e5b565b8015610ed05780601f10610ea557610100808354040283529160200191610ed0565b820191906000526020600020905b815481529060010190602001808311610eb357829003601f168201915b505050505081526020016005820160009054906101000a900460ff166003811115610efe57610efd6134bf565b5b6003811115610f1057610f0f6134bf565b5b81526020016005820160019054906101000a900460ff1615151515815250509050919050565b610f3e612e45565b600182604051610f4e9190613ec8565b908152602001604051809103902060080160009054906101000a900460ff16610fac576040517f08c379a0000000000000000000000000000000000000000000000000000000008152600401610fa39061431d565b60405180910390fd5b600182604051610fbc9190613ec8565b908152602001604051809103902060405180610120016040529081600082018054610fe690613e5b565b80601f016020809104026020016040519081016040528092919081815260200182805461101290613e5b565b801561105f5780601f106110345761010080835404028352916020019161105f565b820191906000526020600020905b81548152906001019060200180831161104257829003601f168201915b5050505050815260200160018201805461107890613e5b565b80601f01602080910402602001604051908101604052809291908181526020018280546110a490613e5b565b80156110f15780601f106110c6576101008083540402835291602001916110f1565b820191906000526020600020905b8154815290600101906020018083116110d457829003601f168201915b5050505050815260200160028201805461110a90613e5b565b80601f016020809104026020016040519081016040528092919081815260200182805461113690613e5b565b80156111835780601f1061115857610100808354040283529160200191611183565b820191906000526020600020905b81548152906001019060200180831161116657829003601f168201915b5050505050815260200160038201805461119c90613e5b565b80601f01602080910402602001604051908101604052809291908181526020018280546111c890613e5b565b80156112155780601f106111ea57610100808354040283529160200191611215565b820191906000526020600020905b8154815290600101906020018083116111f857829003601f168201915b50505050508152602001600482015481526020016005820154815260200160068201548152602001600782015481526020016008820160009054906101000a900460ff1615151515815250509050919050565b60038081111561127b5761127a6134bf565b5b6000803373ffffffffffffffffffffffffffffffffffffffff1673ffffffffffffffffffffffffffffffffffffffff16815260200190815260200160002060050160009054906101000a900460ff1660038111156112dc576112db6134bf565b5b148061135a5750600260038111156112f7576112f66134bf565b5b6000803373ffffffffffffffffffffffffffffffffffffffff1673ffffffffffffffffffffffffffffffffffffffff16815260200190815260200160002060050160009054906101000a900460ff166003811115611358576113576134bf565b5b145b611399576040517f08c379a0000000000000000000000000000000000000000000000000000000008152600401611390906143af565b60405180910390fd5b6001876040516113a99190613ec8565b908152602001604051809103902060080160009054906101000a900460ff1615611408576040517f08c379a00000000000000000000000000000000000000000000000000000000081526004016113ff9061441b565b60405180910390fd5b6040518061012001604052808881526020018781526020018681526020018581526020018481526020018481526020018381526020018281526020016001151581525060018860405161145b9190613ec8565b9081526020016040518091039020600082015181600001908161147e9190614163565b5060208201518160010190816114949190614163565b5060408201518160020190816114aa9190614163565b5060608201518160030190816114c09190614163565b506080820151816004015560a0820151816005015560c0820151816006015560e082015181600701556101008201518160080160006101000a81548160ff0219169083151502179055509050507f496c6da4a4c685cf841a27c78fda2b95762bb2965fa9ed905bfb2b12e04ac0b7878760405161153e92919061443b565b60405180910390a150505050505050565b60018180516020810182018051848252602083016020850120818352809550505050505060009150905080600001805461158890613e5b565b80601f01602080910402602001604051908101604052809291908181526020018280546115b490613e5b565b80156116015780601f106115d657610100808354040283529160200191611601565b820191906000526020600020905b8154815290600101906020018083116115e457829003601f168201915b50505050509080600101805461161690613e5b565b80601f016020809104026020016040519081016040528092919081815260200182805461164290613e5b565b801561168f5780601f106116645761010080835404028352916020019161168f565b820191906000526020600020905b81548152906001019060200180831161167257829003601f168201915b5050505050908060020180546116a490613e5b565b80601f01602080910402602001604051908101604052809291908181526020018280546116d090613e5b565b801561171d5780601f106116f25761010080835404028352916020019161171d565b820191906000526020600020905b81548152906001019060200180831161170057829003601f168201915b50505050509080600301805461173290613e5b565b80601f016020809104026020016040519081016040528092919081815260200182805461175e90613e5b565b80156117ab5780601f10611780576101008083540402835291602001916117ab565b820191906000526020600020905b81548152906001019060200180831161178e57829003601f168201915b5050505050908060040154908060050154908060060154908060070154908060080160009054906101000a900460ff16905089565b600060038111156117f4576117f36134bf565b5b6000803373ffffffffffffffffffffffffffffffffffffffff1673ffffffffffffffffffffffffffffffffffffffff16815260200190815260200160002060050160009054906101000a900460ff166003811115611855576118546134bf565b5b14611895576040517f08c379a000000000000000000000000000000000000000000000000000000000815260040161188c906144be565b60405180910390fd5b6003876040516118a59190613ec8565b908152602001604051809103902060070160009054906101000a900460ff1615611904576040517f08c379a00000000000000000000000000000000000000000000000000000000081526004016118fb9061452a565b60405180910390fd5b604051806101000160405280888152602001878152602001868152602001858152602001848152602001838152602001828152602001600115158152506003886040516119519190613ec8565b908152602001604051809103902060008201518160000190816119749190614163565b50602082015181600101908161198a9190614163565b5060408201518160020190816119a09190614163565b5060608201518160030190816119b69190614163565b5060808201518160040190816119cc9190614163565b5060a08201518160050190816119e29190614163565b5060c08201518160060190816119f89190614163565b5060e08201518160070160006101000a81548160ff0219169083151502179055509050507ff57ecee040edfbd184404d12d5f2f7343575add2ba648066a9a501fa19bf3a278787604051611a4d92919061443b565b60405180910390a150505050505050565b600380811115611a7157611a706134bf565b5b6000803373ffffffffffffffffffffffffffffffffffffffff1673ffffffffffffffffffffffffffffffffffffffff16815260200190815260200160002060050160009054906101000a900460ff166003811115611ad257611ad16134bf565b5b1480611b50575060026003811115611aed57611aec6134bf565b5b6000803373ffffffffffffffffffffffffffffffffffffffff1673ffffffffffffffffffffffffffffffffffffffff16815260200190815260200160002060050160009054906101000a900460ff166003811115611b4e57611b4d6134bf565b5b145b611b8f576040517f08c379a0000000000000000000000000000000000000000000000000000000008152600401611b86906143af565b60405180910390fd5b600285604051611b9f9190613ec8565b908152602001604051809103902060050160019054906101000a900460ff1615611bfe576040517f08c379a0000000000000000000000000000000000000000000000000000000008152600401611bf590614596565b60405180910390fd5b600182604051611c0e9190613ec8565b908152602001604051809103902060080160009054906101000a900460ff16611c6c576040517f08c379a0000000000000000000000000000000000000000000000000000000008152600401611c639061431d565b60405180910390fd5b6040518060e0016040528086815260200185815260200184815260200183815260200182815260200160011515815260200160011515815250600286604051611cb59190613ec8565b90815260200160405180910390206000820151816000019081611cd89190614163565b506020820151816001019081611cee9190614163565b506040820151816002019081611d049190614163565b506060820151816003019081611d1a9190614163565b506080820151816004015560a08201518160050160006101000a81548160ff02191690831515021790555060c08201518160050160016101000a81548160ff0219169083151502179055509050507f1187c17101d2ad9d5a17b4990710f2be353a26783d7627f24824dd75475ddea2858585604051611d9b939291906145b6565b60405180910390a15050505050565b6000602052806000526040600020600091509050806000018054611dcd90613e5b565b80601f0160208091040260200160405190810160405280929190818152602001828054611df990613e5b565b8015611e465780601f10611e1b57610100808354040283529160200191611e46565b820191906000526020600020905b815481529060010190602001808311611e2957829003601f168201915b505050505090806001018054611e5b90613e5b565b80601f0160208091040260200160405190810160405280929190818152602001828054611e8790613e5b565b8015611ed45780601f10611ea957610100808354040283529160200191611ed4565b820191906000526020600020905b815481529060010190602001808311611eb757829003601f168201915b505050505090806002018054611ee990613e5b565b80601f0160208091040260200160405190810160405280929190818152602001828054611f1590613e5b565b8015611f625780601f10611f3757610100808354040283529160200191611f62565b820191906000526020600020905b815481529060010190602001808311611f4557829003601f168201915b505050505090806003018054611f7790613e5b565b80601f0160208091040260200160405190810160405280929190818152602001828054611fa390613e5b565b8015611ff05780601f10611fc557610100808354040283529160200191611ff0565b820191906000526020600020905b815481529060010190602001808311611fd357829003601f168201915b50505050509080600401805461200590613e5b565b80601f016020809104026020016040519081016040528092919081815260200182805461203190613e5b565b801561207e5780601f106120535761010080835404028352916020019161207e565b820191906000526020600020905b81548152906001019060200180831161206157829003601f168201915b5050505050908060050160009054906101000a900460ff16908060050160019054906101000a900460ff16905087565b6003808111156120c1576120c06134bf565b5b6000803373ffffffffffffffffffffffffffffffffffffffff1673ffffffffffffffffffffffffffffffffffffffff16815260200190815260200160002060050160009054906101000a900460ff166003811115612122576121216134bf565b5b14806121a057506002600381111561213d5761213c6134bf565b5b6000803373ffffffffffffffffffffffffffffffffffffffff1673ffffffffffffffffffffffffffffffffffffffff16815260200190815260200160002060050160009054906101000a900460ff16600381111561219e5761219d6134bf565b5b145b6121df576040517f08c379a00000000000000000000000000000000000000000000000000000000081526004016121d6906143af565b60405180910390fd5b6001826040516121ef9190613ec8565b908152602001604051809103902060080160009054906101000a900460ff1661224d576040517f08c379a00000000000000000000000000000000000000000000000000000000081526004016122449061431d565b60405180910390fd5b8060018360405161225e9190613ec8565b9081526020016040518091039020600501819055507f82c1b17b6ee344dfb6760923225788a729bf479b33bdf68eb495d02d0922e543826001846040516122a59190613ec8565b9081526020016040518091039020600101836040516122c693929190614686565b60405180910390a15050565b600260038111156122e6576122e56134bf565b5b6000803373ffffffffffffffffffffffffffffffffffffffff1673ffffffffffffffffffffffffffffffffffffffff16815260200190815260200160002060050160009054906101000a900460ff166003811115612347576123466134bf565b5b14612387576040517f08c379a000000000000000000000000000000000000000000000000000000000815260040161237e9061473d565b60405180910390fd5b6000808373ffffffffffffffffffffffffffffffffffffffff1673ffffffffffffffffffffffffffffffffffffffff16815260200190815260200160002060050160019054906101000a900460ff16612415576040517f08c379a000000000000000000000000000000000000000000000000000000000815260040161240c906142b1565b60405180910390fd5b806000808473ffffffffffffffffffffffffffffffffffffffff1673ffffffffffffffffffffffffffffffffffffffff16815260200190815260200160002060050160006101000a81548160ff02191690836003811115612479576124786134bf565b5b02179055508173ffffffffffffffffffffffffffffffffffffffff167f8348234787debc8768e710bb8608864a37ffc99e6bde8bf5358171239895f2b3826040516124c4919061475d565b60405180910390a25050565b60038180516020810182018051848252602083016020850120818352809550505050505060009150905080600001805461250990613e5b565b80601f016020809104026020016040519081016040528092919081815260200182805461253590613e5b565b80156125825780601f1061255757610100808354040283529160200191612582565b820191906000526020600020905b81548152906001019060200180831161256557829003601f168201915b50505050509080600101805461259790613e5b565b80601f01602080910402602001604051908101604052809291908181526020018280546125c390613e5b565b80156126105780601f106125e557610100808354040283529160200191612610565b820191906000526020600020905b8154815290600101906020018083116125f357829003601f168201915b50505050509080600201805461262590613e5b565b80601f016020809104026020016040519081016040528092919081815260200182805461265190613e5b565b801561269e5780601f106126735761010080835404028352916020019161269e565b820191906000526020600020905b81548152906001019060200180831161268157829003601f168201915b5050505050908060030180546126b390613e5b565b80601f01602080910402602001604051908101604052809291908181526020018280546126df90613e5b565b801561272c5780601f106127015761010080835404028352916020019161272c565b820191906000526020600020905b81548152906001019060200180831161270f57829003601f168201915b50505050509080600401805461274190613e5b565b80601f016020809104026020016040519081016040528092919081815260200182805461276d90613e5b565b80156127ba5780601f1061278f576101008083540402835291602001916127ba565b820191906000526020600020905b81548152906001019060200180831161279d57829003601f168201915b5050505050908060050180546127cf90613e5b565b80601f01602080910402602001604051908101604052809291908181526020018280546127fb90613e5b565b80156128485780601f1061281d57610100808354040283529160200191612848565b820191906000526020600020905b81548152906001019060200180831161282b57829003601f168201915b50505050509080600601805461285d90613e5b565b80601f016020809104026020016040519081016040528092919081815260200182805461288990613e5b565b80156128d65780601f106128ab576101008083540402835291602001916128d6565b820191906000526020600020905b8154815290600101906020018083116128b957829003601f168201915b5050505050908060070160009054906101000a900460ff16905088565b6128fb612e93565b60038260405161290b9190613ec8565b908152602001604051809103902060070160009054906101000a900460ff16612969576040517f08c379a0000000000000000000000000000000000000000000000000000000008152600401612960906147c4565b60405180910390fd5b6003826040516129799190613ec8565b9081526020016040518091039020604051806101000160405290816000820180546129a390613e5b565b80601f01602080910402602001604051908101604052809291908181526020018280546129cf90613e5b565b8015612a1c5780601f106129f157610100808354040283529160200191612a1c565b820191906000526020600020905b8154815290600101906020018083116129ff57829003601f168201915b50505050508152602001600182018054612a3590613e5b565b80601f0160208091040260200160405190810160405280929190818152602001828054612a6190613e5b565b8015612aae5780601f10612a8357610100808354040283529160200191612aae565b820191906000526020600020905b815481529060010190602001808311612a9157829003601f168201915b50505050508152602001600282018054612ac790613e5b565b80601f0160208091040260200160405190810160405280929190818152602001828054612af390613e5b565b8015612b405780601f10612b1557610100808354040283529160200191612b40565b820191906000526020600020905b815481529060010190602001808311612b2357829003601f168201915b50505050508152602001600382018054612b5990613e5b565b80601f0160208091040260200160405190810160405280929190818152602001828054612b8590613e5b565b8015612bd25780601f10612ba757610100808354040283529160200191612bd2565b820191906000526020600020905b815481529060010190602001808311612bb557829003601f168201915b50505050508152602001600482018054612beb90613e5b565b80601f0160208091040260200160405190810160405280929190818152602001828054612c1790613e5b565b8015612c645780601f10612c3957610100808354040283529160200191612c64565b820191906000526020600020905b815481529060010190602001808311612c4757829003601f168201915b50505050508152602001600582018054612c7d90613e5b565b80601f0160208091040260200160405190810160405280929190818152602001828054612ca990613e5b565b8015612cf65780601f10612ccb57610100808354040283529160200191612cf6565b820191906000526020600020905b815481529060010190602001808311612cd957829003601f168201915b50505050508152602001600682018054612d0f90613e5b565b80601f0160208091040260200160405190810160405280929190818152602001828054612d3b90613e5b565b8015612d885780601f10612d5d57610100808354040283529160200191612d88565b820191906000526020600020905b815481529060010190602001808311612d6b57829003601f168201915b505050505081526020016007820160009054906101000a900460ff1615151515815250509050919050565b6040518060e0016040528060608152602001606081526020016060815260200160608152602001600081526020016000151581526020016000151581525090565b6040518060e00160405280606081526020016060815260200160608152602001606081526020016060815260200160006003811115612e3657612e356134bf565b5b81526020016000151581525090565b60405180610120016040528060608152602001606081526020016060815260200160608152602001600081526020016000815260200160008152602001600081526020016000151581525090565b604051806101000160405280606081526020016060815260200160608152602001606081526020016060815260200160608152602001606081526020016000151581525090565b6000604051905090565b600080fd5b600080fd5b600080fd5b600080fd5b6000601f19601f8301169050919050565b7f4e487b7100000000000000000000000000000000000000000000000000000000600052604160045260246000fd5b612f4182612ef8565b810181811067ffffffffffffffff82111715612f6057612f5f612f09565b5b80604052505050565b6000612f73612eda565b9050612f7f8282612f38565b919050565b600067ffffffffffffffff821115612f9f57612f9e612f09565b5b612fa882612ef8565b9050602081019050919050565b82818337600083830152505050565b6000612fd7612fd284612f84565b612f69565b905082815260208101848484011115612ff357612ff2612ef3565b5b612ffe848285612fb5565b509392505050565b600082601f83011261301b5761301a612eee565b5b813561302b848260208601612fc4565b91505092915050565b60006020828403121561304a57613049612ee4565b5b600082013567ffffffffffffffff81111561306857613067612ee9565b5b61307484828501613006565b91505092915050565b600081519050919050565b600082825260208201905092915050565b60005b838110156130b757808201518184015260208101905061309c565b60008484015250505050565b60006130ce8261307d565b6130d88185613088565b93506130e8818560208601613099565b6130f181612ef8565b840191505092915050565b6000819050919050565b61310f816130fc565b82525050565b60008115159050919050565b61312a81613115565b82525050565b600060e082019050818103600083015261314a818a6130c3565b9050818103602083015261315e81896130c3565b9050818103604083015261317281886130c3565b9050818103606083015261318681876130c3565b90506131956080830186613106565b6131a260a0830185613121565b6131af60c0830184613121565b98975050505050505050565b600082825260208201905092915050565b60006131d78261307d565b6131e181856131bb565b93506131f1818560208601613099565b6131fa81612ef8565b840191505092915050565b61320e816130fc565b82525050565b61321d81613115565b82525050565b600060e083016000830151848203600086015261324082826131cc565b9150506020830151848203602086015261325a82826131cc565b9150506040830151848203604086015261327482826131cc565b9150506060830151848203606086015261328e82826131cc565b91505060808301516132a36080860182613205565b5060a08301516132b660a0860182613214565b5060c08301516132c960c0860182613214565b508091505092915050565b600060208201905081810360008301526132ee8184613223565b905092915050565b6004811061330357600080fd5b50565b600081359050613315816132f6565b92915050565b60008060008060008060c0878903121561333857613337612ee4565b5b600087013567ffffffffffffffff81111561335657613355612ee9565b5b61336289828a01613006565b965050602087013567ffffffffffffffff81111561338357613382612ee9565b5b61338f89828a01613006565b955050604087013567ffffffffffffffff8111156133b0576133af612ee9565b5b6133bc89828a01613006565b945050606087013567ffffffffffffffff8111156133dd576133dc612ee9565b5b6133e989828a01613006565b935050608087013567ffffffffffffffff81111561340a57613409612ee9565b5b61341689828a01613006565b92505060a061342789828a01613306565b9150509295509295509295565b600073ffffffffffffffffffffffffffffffffffffffff82169050919050565b600061345f82613434565b9050919050565b61346f81613454565b811461347a57600080fd5b50565b60008135905061348c81613466565b92915050565b6000602082840312156134a8576134a7612ee4565b5b60006134b68482850161347d565b91505092915050565b7f4e487b7100000000000000000000000000000000000000000000000000000000600052602160045260246000fd5b600481106134ff576134fe6134bf565b5b50565b6000819050613510826134ee565b919050565b600061352082613502565b9050919050565b61353081613515565b82525050565b600060e083016000830151848203600086015261355382826131cc565b9150506020830151848203602086015261356d82826131cc565b9150506040830151848203604086015261358782826131cc565b915050606083015184820360608601526135a182826131cc565b915050608083015184820360808601526135bb82826131cc565b91505060a08301516135d060a0860182613527565b5060c08301516135e360c0860182613214565b508091505092915050565b600060208201905081810360008301526136088184613536565b905092915050565b600061012083016000830151848203600086015261362e82826131cc565b9150506020830151848203602086015261364882826131cc565b9150506040830151848203604086015261366282826131cc565b9150506060830151848203606086015261367c82826131cc565b91505060808301516136916080860182613205565b5060a08301516136a460a0860182613205565b5060c08301516136b760c0860182613205565b5060e08301516136ca60e0860182613205565b506101008301516136df610100860182613214565b508091505092915050565b600060208201905081810360008301526137048184613610565b905092915050565b613715816130fc565b811461372057600080fd5b50565b6000813590506137328161370c565b92915050565b600080600080600080600060e0888a03121561375757613756612ee4565b5b600088013567ffffffffffffffff81111561377557613774612ee9565b5b6137818a828b01613006565b975050602088013567ffffffffffffffff8111156137a2576137a1612ee9565b5b6137ae8a828b01613006565b965050604088013567ffffffffffffffff8111156137cf576137ce612ee9565b5b6137db8a828b01613006565b955050606088013567ffffffffffffffff8111156137fc576137fb612ee9565b5b6138088a828b01613006565b94505060806138198a828b01613723565b93505060a061382a8a828b01613723565b92505060c061383b8a828b01613723565b91505092959891949750929550565b6000610120820190508181036000830152613865818c6130c3565b90508181036020830152613879818b6130c3565b9050818103604083015261388d818a6130c3565b905081810360608301526138a181896130c3565b90506138b06080830188613106565b6138bd60a0830187613106565b6138ca60c0830186613106565b6138d760e0830185613106565b6138e5610100830184613121565b9a9950505050505050505050565b600080600080600080600060e0888a03121561391257613911612ee4565b5b600088013567ffffffffffffffff8111156139305761392f612ee9565b5b61393c8a828b01613006565b975050602088013567ffffffffffffffff81111561395d5761395c612ee9565b5b6139698a828b01613006565b965050604088013567ffffffffffffffff81111561398a57613989612ee9565b5b6139968a828b01613006565b955050606088013567ffffffffffffffff8111156139b7576139b6612ee9565b5b6139c38a828b01613006565b945050608088013567ffffffffffffffff8111156139e4576139e3612ee9565b5b6139f08a828b01613006565b93505060a088013567ffffffffffffffff811115613a1157613a10612ee9565b5b613a1d8a828b01613006565b92505060c088013567ffffffffffffffff811115613a3e57613a3d612ee9565b5b613a4a8a828b01613006565b91505092959891949750929550565b600080600080600060a08688031215613a7557613a74612ee4565b5b600086013567ffffffffffffffff811115613a9357613a92612ee9565b5b613a9f88828901613006565b955050602086013567ffffffffffffffff811115613ac057613abf612ee9565b5b613acc88828901613006565b945050604086013567ffffffffffffffff811115613aed57613aec612ee9565b5b613af988828901613006565b935050606086013567ffffffffffffffff811115613b1a57613b19612ee9565b5b613b2688828901613006565b9250506080613b3788828901613723565b9150509295509295909350565b613b4d81613515565b82525050565b600060e0820190508181036000830152613b6d818a6130c3565b90508181036020830152613b8181896130c3565b90508181036040830152613b9581886130c3565b90508181036060830152613ba981876130c3565b90508181036080830152613bbd81866130c3565b9050613bcc60a0830185613b44565b613bd960c0830184613121565b98975050505050505050565b60008060408385031215613bfc57613bfb612ee4565b5b600083013567ffffffffffffffff811115613c1a57613c19612ee9565b5b613c2685828601613006565b9250506020613c3785828601613723565b9150509250929050565b60008060408385031215613c5857613c57612ee4565b5b6000613c668582860161347d565b9250506020613c7785828601613306565b9150509250929050565b6000610100820190508181036000830152613c9c818b6130c3565b90508181036020830152613cb0818a6130c3565b90508181036040830152613cc481896130c3565b90508181036060830152613cd881886130c3565b90508181036080830152613cec81876130c3565b905081810360a0830152613d0081866130c3565b905081810360c0830152613d1481856130c3565b9050613d2360e0830184613121565b9998505050505050505050565b6000610100830160008301518482036000860152613d4e82826131cc565b91505060208301518482036020860152613d6882826131cc565b91505060408301518482036040860152613d8282826131cc565b91505060608301518482036060860152613d9c82826131cc565b91505060808301518482036080860152613db682826131cc565b91505060a083015184820360a0860152613dd082826131cc565b91505060c083015184820360c0860152613dea82826131cc565b91505060e0830151613dff60e0860182613214565b508091505092915050565b60006020820190508181036000830152613e248184613d30565b905092915050565b7f4e487b7100000000000000000000000000000000000000000000000000000000600052602260045260246000fd5b60006002820490506001821680613e7357607f821691505b602082108103613e8657613e85613e2c565b5b50919050565b600081905092915050565b6000613ea28261307d565b613eac8185613e8c565b9350613ebc818560208601613099565b80840191505092915050565b6000613ed48284613e97565b915081905092915050565b7f446f63746f7220646f6573206e6f742065786973740000000000000000000000600082015250565b6000613f15601583613088565b9150613f2082613edf565b602082019050919050565b60006020820190508181036000830152613f4481613f08565b9050919050565b7f5573657220616c72656164792072656769737465726564000000000000000000600082015250565b6000613f81601783613088565b9150613f8c82613f4b565b602082019050919050565b60006020820190508181036000830152613fb081613f74565b9050919050565b60008190508160005260206000209050919050565b60006020601f8301049050919050565b600082821b905092915050565b6000600883026140197fffffffffffffffffffffffffffffffffffffffffffffffffffffffffffffffff82613fdc565b6140238683613fdc565b95508019841693508086168417925050509392505050565b6000819050919050565b600061406061405b614056846130fc565b61403b565b6130fc565b9050919050565b6000819050919050565b61407a83614045565b61408e61408682614067565b848454613fe9565b825550505050565b600090565b6140a3614096565b6140ae818484614071565b505050565b5b818110156140d2576140c760008261409b565b6001810190506140b4565b5050565b601f821115614117576140e881613fb7565b6140f184613fcc565b81016020851015614100578190505b61411461410c85613fcc565b8301826140b3565b50505b505050565b600082821c905092915050565b600061413a6000198460080261411c565b1980831691505092915050565b60006141538383614129565b9150826002028217905092915050565b61416c8261307d565b67ffffffffffffffff81111561418557614184612f09565b5b61418f8254613e5b565b61419a8282856140d6565b600060209050601f8311600181146141cd57600084156141bb578287015190505b6141c58582614147565b86555061422d565b601f1984166141db86613fb7565b60005b82811015614203578489015182556001820191506020850194506020810190506141de565b86831015614220578489015161421c601f891682614129565b8355505b6001600288020188555050505b505050505050565b6000604082019050818103600083015261424f81856130c3565b905061425e6020830184613b44565b9392505050565b7f5573657220646f6573206e6f7420657869737400000000000000000000000000600082015250565b600061429b601383613088565b91506142a682614265565b602082019050919050565b600060208201905081810360008301526142ca8161428e565b9050919050565b7f486f73706974616c20646f6573206e6f74206578697374000000000000000000600082015250565b6000614307601783613088565b9150614312826142d1565b602082019050919050565b60006020820190508181036000830152614336816142fa565b9050919050565b7f4f6e6c7920686f73706974616c2061646d696e206f722061646d696e2063616e60008201527f20706572666f726d207468697320616374696f6e000000000000000000000000602082015250565b6000614399603483613088565b91506143a48261433d565b604082019050919050565b600060208201905081810360008301526143c88161438c565b9050919050565b7f486f73706974616c20616c726561647920726567697374657265640000000000600082015250565b6000614405601b83613088565b9150614410826143cf565b602082019050919050565b60006020820190508181036000830152614434816143f8565b9050919050565b6000604082019050818103600083015261445581856130c3565b9050818103602083015261446981846130c3565b90509392505050565b7f4f6e6c792070617469656e74732063616e207265676973746572000000000000600082015250565b60006144a8601a83613088565b91506144b382614472565b602082019050919050565b600060208201905081810360008301526144d78161449b565b9050919050565b7f50617469656e7420616c72656164792072656769737465726564000000000000600082015250565b6000614514601a83613088565b915061451f826144de565b602082019050919050565b6000602082019050818103600083015261454381614507565b9050919050565b7f446f63746f7220616c7265616479207265676973746572656400000000000000600082015250565b6000614580601983613088565b915061458b8261454a565b602082019050919050565b600060208201905081810360008301526145af81614573565b9050919050565b600060608201905081810360008301526145d081866130c3565b905081810360208301526145e481856130c3565b905081810360408301526145f881846130c3565b9050949350505050565b6000815461460f81613e5b565b6146198186613088565b94506001821660008114614634576001811461464a5761467d565b60ff19831686528115156020028601935061467d565b61465385613fb7565b60005b8381101561467557815481890152600182019150602081019050614656565b808801955050505b50505092915050565b600060608201905081810360008301526146a081866130c3565b905081810360208301526146b48185614602565b90506146c36040830184613106565b949350505050565b7f4f6e6c792061646d696e2063616e20706572666f726d2074686973206163746960008201527f6f6e000000000000000000000000000000000000000000000000000000000000602082015250565b6000614727602283613088565b9150614732826146cb565b604082019050919050565b600060208201905081810360008301526147568161471a565b9050919050565b60006020820190506147726000830184613b44565b92915050565b7f50617469656e7420646f6573206e6f7420657869737400000000000000000000600082015250565b60006147ae601683613088565b91506147b982614778565b602082019050919050565b600060208201905081810360008301526147dd816147a1565b905091905056fea2646970667358221220d1d0e4a016c14debf9b59a4e6a1952d75f150997fc7ccc985a6ea096c3784c6d64736f6c63430008120033","opcodes":"PUSH1 0x80 PUSH1 0x40 MSTORE CALLVALUE DUP1 ISZERO PUSH2 0x10 JUMPI PUSH1 0x0 DUP1 REVERT JUMPDEST POP PUSH2 0x481A DUP1 PUSH2 0x20 PUSH1 0x0 CODECOPY PUSH1 0x0 RETURN INVALID PUSH1 0x80 PUSH1 0x40 MSTORE CALLVALUE DUP1 ISZERO PUSH2 0x10 JUMPI PUSH1 0x0 DUP1 REVERT JUMPDEST POP PUSH1 0x4 CALLDATASIZE LT PUSH2 0xEA JUMPI PUSH1 0x0 CALLDATALOAD PUSH1 0xE0 SHR DUP1 PUSH4 0xA30B6EC3 GT PUSH2 0x8C JUMPI DUP1 PUSH4 0xBC75E602 GT PUSH2 0x66 JUMPI DUP1 PUSH4 0xBC75E602 EQ PUSH2 0x293 JUMPI DUP1 PUSH4 0xC291FE62 EQ PUSH2 0x2AF JUMPI DUP1 PUSH4 0xC6009D84 EQ PUSH2 0x2CB JUMPI DUP1 PUSH4 0xE79A7A2E EQ PUSH2 0x302 JUMPI PUSH2 0xEA JUMP JUMPDEST DUP1 PUSH4 0xA30B6EC3 EQ PUSH2 0x225 JUMPI DUP1 PUSH4 0xA3DE4D60 EQ PUSH2 0x241 JUMPI DUP1 PUSH4 0xA87430BA EQ PUSH2 0x25D JUMPI PUSH2 0xEA JUMP JUMPDEST DUP1 PUSH4 0x6F77926B GT PUSH2 0xC8 JUMPI DUP1 PUSH4 0x6F77926B EQ PUSH2 0x171 JUMPI DUP1 PUSH4 0x9166DF58 EQ PUSH2 0x1A1 JUMPI DUP1 PUSH4 0x9F50B7DA EQ PUSH2 0x1D1 JUMPI DUP1 PUSH4 0x9F516435 EQ PUSH2 0x1ED JUMPI PUSH2 0xEA JUMP JUMPDEST DUP1 PUSH4 0x5C35CE5 EQ PUSH2 0xEF JUMPI DUP1 PUSH4 0x60499092 EQ PUSH2 0x125 JUMPI DUP1 PUSH4 0x69DAC913 EQ PUSH2 0x155 JUMPI JUMPDEST PUSH1 0x0 DUP1 REVERT JUMPDEST PUSH2 0x109 PUSH1 0x4 DUP1 CALLDATASIZE SUB DUP2 ADD SWAP1 PUSH2 0x104 SWAP2 SWAP1 PUSH2 0x3034 JUMP JUMPDEST PUSH2 0x332 JUMP JUMPDEST PUSH1 0x40 MLOAD PUSH2 0x11C SWAP8 SWAP7 SWAP6 SWAP5 SWAP4 SWAP3 SWAP2 SWAP1 PUSH2 0x3130 JUMP JUMPDEST PUSH1 0x40 MLOAD DUP1 SWAP2 SUB SWAP1 RETURN JUMPDEST PUSH2 0x13F PUSH1 0x4 DUP1 CALLDATASIZE SUB DUP2 ADD SWAP1 PUSH2 0x13A SWAP2 SWAP1 PUSH2 0x3034 JUMP JUMPDEST PUSH2 0x5C4 JUMP JUMPDEST PUSH1 0x40 MLOAD PUSH2 0x14C SWAP2 SWAP1 PUSH2 0x32D4 JUMP JUMPDEST PUSH1 0x40 MLOAD DUP1 SWAP2 SUB SWAP1 RETURN JUMPDEST PUSH2 0x16F PUSH1 0x4 DUP1 CALLDATASIZE SUB DUP2 ADD SWAP1 PUSH2 0x16A SWAP2 SWAP1 PUSH2 0x331B JUMP JUMPDEST PUSH2 0x8F2 JUMP JUMPDEST STOP JUMPDEST PUSH2 0x18B PUSH1 0x4 DUP1 CALLDATASIZE SUB DUP2 ADD SWAP1 PUSH2 0x186 SWAP2 SWAP1 PUSH2 0x3492 JUMP JUMPDEST PUSH2 0xB20 JUMP JUMPDEST PUSH1 0x40 MLOAD PUSH2 0x198 SWAP2 SWAP1 PUSH2 0x35EE JUMP JUMPDEST PUSH1 0x40 MLOAD DUP1 SWAP2 SUB SWAP1 RETURN JUMPDEST PUSH2 0x1BB PUSH1 0x4 DUP1 CALLDATASIZE SUB DUP2 ADD SWAP1 PUSH2 0x1B6 SWAP2 SWAP1 PUSH2 0x3034 JUMP JUMPDEST PUSH2 0xF36 JUMP JUMPDEST PUSH1 0x40 MLOAD PUSH2 0x1C8 SWAP2 SWAP1 PUSH2 0x36EA JUMP JUMPDEST PUSH1 0x40 MLOAD DUP1 SWAP2 SUB SWAP1 RETURN JUMPDEST PUSH2 0x1EB PUSH1 0x4 DUP1 CALLDATASIZE SUB DUP2 ADD SWAP1 PUSH2 0x1E6 SWAP2 SWAP1 PUSH2 0x3738 JUMP JUMPDEST PUSH2 0x1268 JUMP JUMPDEST STOP JUMPDEST PUSH2 0x207 PUSH1 0x4 DUP1 CALLDATASIZE SUB DUP2 ADD SWAP1 PUSH2 0x202 SWAP2 SWAP1 PUSH2 0x3034 JUMP JUMPDEST PUSH2 0x154F JUMP JUMPDEST PUSH1 0x40 MLOAD PUSH2 0x21C SWAP10 SWAP9 SWAP8 SWAP7 SWAP6 SWAP5 SWAP4 SWAP3 SWAP2 SWAP1 PUSH2 0x384A JUMP JUMPDEST PUSH1 0x40 MLOAD DUP1 SWAP2 SUB SWAP1 RETURN JUMPDEST PUSH2 0x23F PUSH1 0x4 DUP1 CALLDATASIZE SUB DUP2 ADD SWAP1 PUSH2 0x23A SWAP2 SWAP1 PUSH2 0x38F3 JUMP JUMPDEST PUSH2 0x17E0 JUMP JUMPDEST STOP JUMPDEST PUSH2 0x25B PUSH1 0x4 DUP1 CALLDATASIZE SUB DUP2 ADD SWAP1 PUSH2 0x256 SWAP2 SWAP1 PUSH2 0x3A59 JUMP JUMPDEST PUSH2 0x1A5E JUMP JUMPDEST STOP JUMPDEST PUSH2 0x277 PUSH1 0x4 DUP1 CALLDATASIZE SUB DUP2 ADD SWAP1 PUSH2 0x272 SWAP2 SWAP1 PUSH2 0x3492 JUMP JUMPDEST PUSH2 0x1DAA JUMP JUMPDEST PUSH1 0x40 MLOAD PUSH2 0x28A SWAP8 SWAP7 SWAP6 SWAP5 SWAP4 SWAP3 SWAP2 SWAP1 PUSH2 0x3B53 JUMP JUMPDEST PUSH1 0x40 MLOAD DUP1 SWAP2 SUB SWAP1 RETURN JUMPDEST PUSH2 0x2AD PUSH1 0x4 DUP1 CALLDATASIZE SUB DUP2 ADD SWAP1 PUSH2 0x2A8 SWAP2 SWAP1 PUSH2 0x3BE5 JUMP JUMPDEST PUSH2 0x20AE JUMP JUMPDEST STOP JUMPDEST PUSH2 0x2C9 PUSH1 0x4 DUP1 CALLDATASIZE SUB DUP2 ADD SWAP1 PUSH2 0x2C4 SWAP2 SWAP1 PUSH2 0x3C41 JUMP JUMPDEST PUSH2 0x22D2 JUMP JUMPDEST STOP JUMPDEST PUSH2 0x2E5 PUSH1 0x4 DUP1 CALLDATASIZE SUB DUP2 ADD SWAP1 PUSH2 0x2E0 SWAP2 SWAP1 PUSH2 0x3034 JUMP JUMPDEST PUSH2 0x24D0 JUMP JUMPDEST PUSH1 0x40 MLOAD PUSH2 0x2F9 SWAP9 SWAP8 SWAP7 SWAP6 SWAP5 SWAP4 SWAP3 SWAP2 SWAP1 PUSH2 0x3C81 JUMP JUMPDEST PUSH1 0x40 MLOAD DUP1 SWAP2 SUB SWAP1 RETURN JUMPDEST PUSH2 0x31C PUSH1 0x4 DUP1 CALLDATASIZE SUB DUP2 ADD SWAP1 PUSH2 0x317 SWAP2 SWAP1 PUSH2 0x3034 JUMP JUMPDEST PUSH2 0x28F3 JUMP JUMPDEST PUSH1 0x40 MLOAD PUSH2 0x329 SWAP2 SWAP1 PUSH2 0x3E0A JUMP JUMPDEST PUSH1 0x40 MLOAD DUP1 SWAP2 SUB SWAP1 RETURN JUMPDEST PUSH1 0x2 DUP2 DUP1 MLOAD PUSH1 0x20 DUP2 ADD DUP3 ADD DUP1 MLOAD DUP5 DUP3 MSTORE PUSH1 0x20 DUP4 ADD PUSH1 0x20 DUP6 ADD KECCAK256 DUP2 DUP4 MSTORE DUP1 SWAP6 POP POP POP POP POP POP PUSH1 0x0 SWAP2 POP SWAP1 POP DUP1 PUSH1 0x0 ADD DUP1 SLOAD PUSH2 0x36B SWAP1 PUSH2 0x3E5B JUMP JUMPDEST DUP1 PUSH1 0x1F ADD PUSH1 0x20 DUP1 SWAP2 DIV MUL PUSH1 0x20 ADD PUSH1 0x40 MLOAD SWAP1 DUP2 ADD PUSH1 0x40 MSTORE DUP1 SWAP3 SWAP2 SWAP1 DUP2 DUP2 MSTORE PUSH1 0x20 ADD DUP3 DUP1 SLOAD PUSH2 0x397 SWAP1 PUSH2 0x3E5B JUMP JUMPDEST DUP1 ISZERO PUSH2 0x3E4 JUMPI DUP1 PUSH1 0x1F LT PUSH2 0x3B9 JUMPI PUSH2 0x100 DUP1 DUP4 SLOAD DIV MUL DUP4 MSTORE SWAP2 PUSH1 0x20 ADD SWAP2 PUSH2 0x3E4 JUMP JUMPDEST DUP3 ADD SWAP2 SWAP1 PUSH1 0x0 MSTORE PUSH1 0x20 PUSH1 0x0 KECCAK256 SWAP1 JUMPDEST DUP2 SLOAD DUP2 MSTORE SWAP1 PUSH1 0x1 ADD SWAP1 PUSH1 0x20 ADD DUP1 DUP4 GT PUSH2 0x3C7 JUMPI DUP3 SWAP1 SUB PUSH1 0x1F AND DUP3 ADD SWAP2 JUMPDEST POP POP POP POP POP SWAP1 DUP1 PUSH1 0x1 ADD DUP1 SLOAD PUSH2 0x3F9 SWAP1 PUSH2 0x3E5B JUMP JUMPDEST DUP1 PUSH1 0x1F ADD PUSH1 0x20 DUP1 SWAP2 DIV MUL PUSH1 0x20 ADD PUSH1 0x40 MLOAD SWAP1 DUP2 ADD PUSH1 0x40 MSTORE DUP1 SWAP3 SWAP2 SWAP1 DUP2 DUP2 MSTORE PUSH1 0x20 ADD DUP3 DUP1 SLOAD PUSH2 0x425 SWAP1 PUSH2 0x3E5B JUMP JUMPDEST DUP1 ISZERO PUSH2 0x472 JUMPI DUP1 PUSH1 0x1F LT PUSH2 0x447 JUMPI PUSH2 0x100 DUP1 DUP4 SLOAD DIV MUL DUP4 MSTORE SWAP2 PUSH1 0x20 ADD SWAP2 PUSH2 0x472 JUMP JUMPDEST DUP3 ADD SWAP2 SWAP1 PUSH1 0x0 MSTORE PUSH1 0x20 PUSH1 0x0 KECCAK256 SWAP1 JUMPDEST DUP2 SLOAD DUP2 MSTORE SWAP1 PUSH1 0x1 ADD SWAP1 PUSH1 0x20 ADD DUP1 DUP4 GT PUSH2 0x455 JUMPI DUP3 SWAP1 SUB PUSH1 0x1F AND DUP3 ADD SWAP2 JUMPDEST POP POP POP POP POP SWAP1 DUP1 PUSH1 0x2 ADD DUP1 SLOAD PUSH2 0x487 SWAP1 PUSH2 0x3E5B JUMP JUMPDEST DUP1 PUSH1 0x1F ADD PUSH1 0x20 DUP1 SWAP2 DIV MUL PUSH1 0x20 ADD PUSH1 0x40 MLOAD SWAP1 DUP2 ADD PUSH1 0x40 MSTORE DUP1 SWAP3 SWAP2 SWAP1 DUP2 DUP2 MSTORE PUSH1 0x20 ADD DUP3 DUP1 SLOAD PUSH2 0x4B3 SWAP1 PUSH2 0x3E5B JUMP JUMPDEST DUP1 ISZERO PUSH2 0x500 JUMPI DUP1 PUSH1 0x1F LT PUSH2 0x4D5 JUMPI PUSH2 0x100 DUP1 DUP4 SLOAD DIV MUL DUP4 MSTORE SWAP2 PUSH1 0x20 ADD SWAP2 PUSH2 0x500 JUMP JUMPDEST DUP3 ADD SWAP2 SWAP1 PUSH1 0x0 MSTORE PUSH1 0x20 PUSH1 0x0 KECCAK256 SWAP1 JUMPDEST DUP2 SLOAD DUP2 MSTORE SWAP1 PUSH1 0x1 ADD SWAP1 PUSH1 0x20 ADD DUP1 DUP4 GT PUSH2 0x4E3 JUMPI DUP3 SWAP1 SUB PUSH1 0x1F AND DUP3 ADD SWAP2 JUMPDEST POP POP POP POP POP SWAP1 DUP1 PUSH1 0x3 ADD DUP1 SLOAD PUSH2 0x515 SWAP1 PUSH2 0x3E5B JUMP JUMPDEST DUP1 PUSH1 0x1F ADD PUSH1 0x20 DUP1 SWAP2 DIV MUL PUSH1 0x20 ADD PUSH1 0x40 MLOAD SWAP1 DUP2 ADD PUSH1 0x40 MSTORE DUP1 SWAP3 SWAP2 SWAP1 DUP2 DUP2 MSTORE PUSH1 0x20 ADD DUP3 DUP1 SLOAD PUSH2 0x541 SWAP1 PUSH2 0x3E5B JUMP JUMPDEST DUP1 ISZERO PUSH2 0x58E JUMPI DUP1 PUSH1 0x1F LT PUSH2 0x563 JUMPI PUSH2 0x100 DUP1 DUP4 SLOAD DIV MUL DUP4 MSTORE SWAP2 PUSH1 0x20 ADD SWAP2 PUSH2 0x58E JUMP JUMPDEST DUP3 ADD SWAP2 SWAP1 PUSH1 0x0 MSTORE PUSH1 0x20 PUSH1 0x0 KECCAK256 SWAP1 JUMPDEST DUP2 SLOAD DUP2 MSTORE SWAP1 PUSH1 0x1 ADD SWAP1 PUSH1 0x20 ADD DUP1 DUP4 GT PUSH2 0x571 JUMPI DUP3 SWAP1 SUB PUSH1 0x1F AND DUP3 ADD SWAP2 JUMPDEST POP POP POP POP POP SWAP1 DUP1 PUSH1 0x4 ADD SLOAD SWAP1 DUP1 PUSH1 0x5 ADD PUSH1 0x0 SWAP1 SLOAD SWAP1 PUSH2 0x100 EXP SWAP1 DIV PUSH1 0xFF AND SWAP1 DUP1 PUSH1 0x5 ADD PUSH1 0x1 SWAP1 SLOAD SWAP1 PUSH2 0x100 EXP SWAP1 DIV PUSH1 0xFF AND SWAP1 POP DUP8 JUMP JUMPDEST PUSH2 0x5CC PUSH2 0x2DB3 JUMP JUMPDEST PUSH1 0x2 DUP3 PUSH1 0x40 MLOAD PUSH2 0x5DC SWAP2 SWAP1 PUSH2 0x3EC8 JUMP JUMPDEST SWAP1 DUP2 MSTORE PUSH1 0x20 ADD PUSH1 0x40 MLOAD DUP1 SWAP2 SUB SWAP1 KECCAK256 PUSH1 0x5 ADD PUSH1 0x1 SWAP1 SLOAD SWAP1 PUSH2 0x100 EXP SWAP1 DIV PUSH1 0xFF AND PUSH2 0x63A JUMPI PUSH1 0x40 MLOAD PUSH32 0x8C379A000000000000000000000000000000000000000000000000000000000 DUP2 MSTORE PUSH1 0x4 ADD PUSH2 0x631 SWAP1 PUSH2 0x3F2B JUMP JUMPDEST PUSH1 0x40 MLOAD DUP1 SWAP2 SUB SWAP1 REVERT JUMPDEST PUSH1 0x2 DUP3 PUSH1 0x40 MLOAD PUSH2 0x64A SWAP2 SWAP1 PUSH2 0x3EC8 JUMP JUMPDEST SWAP1 DUP2 MSTORE PUSH1 0x20 ADD PUSH1 0x40 MLOAD DUP1 SWAP2 SUB SWAP1 KECCAK256 PUSH1 0x40 MLOAD DUP1 PUSH1 0xE0 ADD PUSH1 0x40 MSTORE SWAP1 DUP2 PUSH1 0x0 DUP3 ADD DUP1 SLOAD PUSH2 0x673 SWAP1 PUSH2 0x3E5B JUMP JUMPDEST DUP1 PUSH1 0x1F ADD PUSH1 0x20 DUP1 SWAP2 DIV MUL PUSH1 0x20 ADD PUSH1 0x40 MLOAD SWAP1 DUP2 ADD PUSH1 0x40 MSTORE DUP1 SWAP3 SWAP2 SWAP1 DUP2 DUP2 MSTORE PUSH1 0x20 ADD DUP3 DUP1 SLOAD PUSH2 0x69F SWAP1 PUSH2 0x3E5B JUMP JUMPDEST DUP1 ISZERO PUSH2 0x6EC JUMPI DUP1 PUSH1 0x1F LT PUSH2 0x6C1 JUMPI PUSH2 0x100 DUP1 DUP4 SLOAD DIV MUL DUP4 MSTORE SWAP2 PUSH1 0x20 ADD SWAP2 PUSH2 0x6EC JUMP JUMPDEST DUP3 ADD SWAP2 SWAP1 PUSH1 0x0 MSTORE PUSH1 0x20 PUSH1 0x0 KECCAK256 SWAP1 JUMPDEST DUP2 SLOAD DUP2 MSTORE SWAP1 PUSH1 0x1 ADD SWAP1 PUSH1 0x20 ADD DUP1 DUP4 GT PUSH2 0x6CF JUMPI DUP3 SWAP1 SUB PUSH1 0x1F AND DUP3 ADD SWAP2 JUMPDEST POP POP POP POP POP DUP2 MSTORE PUSH1 0x20 ADD PUSH1 0x1 DUP3 ADD DUP1 SLOAD PUSH2 0x705 SWAP1 PUSH2 0x3E5B JUMP JUMPDEST DUP1 PUSH1 0x1F ADD PUSH1 0x20 DUP1 SWAP2 DIV MUL PUSH1 0x20 ADD PUSH1 0x40 MLOAD SWAP1 DUP2 ADD PUSH1 0x40 MSTORE DUP1 SWAP3 SWAP2 SWAP1 DUP2 DUP2 MSTORE PUSH1 0x20 ADD DUP3 DUP1 SLOAD PUSH2 0x731 SWAP1 PUSH2 0x3E5B JUMP JUMPDEST DUP1 ISZERO PUSH2 0x77E JUMPI DUP1 PUSH1 0x1F LT PUSH2 0x753 JUMPI PUSH2 0x100 DUP1 DUP4 SLOAD DIV MUL DUP4 MSTORE SWAP2 PUSH1 0x20 ADD SWAP2 PUSH2 0x77E JUMP JUMPDEST DUP3 ADD SWAP2 SWAP1 PUSH1 0x0 MSTORE PUSH1 0x20 PUSH1 0x0 KECCAK256 SWAP1 JUMPDEST DUP2 SLOAD DUP2 MSTORE SWAP1 PUSH1 0x1 ADD SWAP1 PUSH1 0x20 ADD DUP1 DUP4 GT PUSH2 0x761 JUMPI DUP3 SWAP1 SUB PUSH1 0x1F AND DUP3 ADD SWAP2 JUMPDEST POP POP POP POP POP DUP2 MSTORE PUSH1 0x20 ADD PUSH1 0x2 DUP3 ADD DUP1 SLOAD PUSH2 0x797 SWAP1 PUSH2 0x3E5B JUMP JUMPDEST DUP1 PUSH1 0x1F ADD PUSH1 0x20 DUP1 SWAP2 DIV MUL PUSH1 0x20 ADD PUSH1 0x40 MLOAD SWAP1 DUP2 ADD PUSH1 0x40 MSTORE DUP1 SWAP3 SWAP2 SWAP1 DUP2 DUP2 MSTORE PUSH1 0x20 ADD DUP3 DUP1 SLOAD PUSH2 0x7C3 SWAP1 PUSH2 0x3E5B JUMP JUMPDEST DUP1 ISZERO PUSH2 0x810 JUMPI DUP1 PUSH1 0x1F LT PUSH2 0x7E5 JUMPI PUSH2 0x100 DUP1 DUP4 SLOAD DIV MUL DUP4 MSTORE SWAP2 PUSH1 0x20 ADD SWAP2 PUSH2 0x810 JUMP JUMPDEST DUP3 ADD SWAP2 SWAP1 PUSH1 0x0 MSTORE PUSH1 0x20 PUSH1 0x0 KECCAK256 SWAP1 JUMPDEST DUP2 SLOAD DUP2 MSTORE SWAP1 PUSH1 0x1 ADD SWAP1 PUSH1 0x20 ADD DUP1 DUP4 GT PUSH2 0x7F3 JUMPI DUP3 SWAP1 SUB PUSH1 0x1F AND DUP3 ADD SWAP2 JUMPDEST POP POP POP POP POP DUP2 MSTORE PUSH1 0x20 ADD PUSH1 0x3 DUP3 ADD DUP1 SLOAD PUSH2 0x829 SWAP1 PUSH2 0x3E5B JUMP JUMPDEST DUP1 PUSH1 0x1F ADD PUSH1 0x20 DUP1 SWAP2 DIV MUL PUSH1 0x20 ADD PUSH1 0x40 MLOAD SWAP1 DUP2 ADD PUSH1 0x40 MSTORE DUP1 SWAP3 SWAP2 SWAP1 DUP2 DUP2 MSTORE PUSH1 0x20 ADD DUP3 DUP1 SLOAD PUSH2 0x855 SWAP1 PUSH2 0x3E5B JUMP JUMPDEST DUP1 ISZERO PUSH2 0x8A2 JUMPI DUP1 PUSH1 0x1F LT PUSH2 0x877 JUMPI PUSH2 0x100 DUP1 DUP4 SLOAD DIV MUL DUP4 MSTORE SWAP2 PUSH1 0x20 ADD SWAP2 PUSH2 0x8A2 JUMP JUMPDEST DUP3 ADD SWAP2 SWAP1 PUSH1 0x0 MSTORE PUSH1 0x20 PUSH1 0x0 KECCAK256 SWAP1 JUMPDEST DUP2 SLOAD DUP2 MSTORE SWAP1 PUSH1 0x1 ADD SWAP1 PUSH1 0x20 ADD DUP1 DUP4 GT PUSH2 0x885 JUMPI DUP3 SWAP1 SUB PUSH1 0x1F AND DUP3 ADD SWAP2 JUMPDEST POP POP POP POP POP DUP2 MSTORE PUSH1 0x20 ADD PUSH1 0x4 DUP3 ADD SLOAD DUP2 MSTORE PUSH1 0x20 ADD PUSH1 0x5 DUP3 ADD PUSH1 0x0 SWAP1 SLOAD SWAP1 PUSH2 0x100 EXP SWAP1 DIV PUSH1 0xFF AND ISZERO ISZERO ISZERO ISZERO DUP2 MSTORE PUSH1 0x20 ADD PUSH1 0x5 DUP3 ADD PUSH1 0x1 SWAP1 SLOAD SWAP1 PUSH2 0x100 EXP SWAP1 DIV PUSH1 0xFF AND ISZERO ISZERO ISZERO ISZERO DUP2 MSTORE POP POP SWAP1 POP SWAP2 SWAP1 POP JUMP JUMPDEST PUSH1 0x0 DUP1 CALLER PUSH20 0xFFFFFFFFFFFFFFFFFFFFFFFFFFFFFFFFFFFFFFFF AND PUSH20 0xFFFFFFFFFFFFFFFFFFFFFFFFFFFFFFFFFFFFFFFF AND DUP2 MSTORE PUSH1 0x20 ADD SWAP1 DUP2 MSTORE PUSH1 0x20 ADD PUSH1 0x0 KECCAK256 PUSH1 0x5 ADD PUSH1 0x1 SWAP1 SLOAD SWAP1 PUSH2 0x100 EXP SWAP1 DIV PUSH1 0xFF AND ISZERO PUSH2 0x981 JUMPI PUSH1 0x40 MLOAD PUSH32 0x8C379A000000000000000000000000000000000000000000000000000000000 DUP2 MSTORE PUSH1 0x4 ADD PUSH2 0x978 SWAP1 PUSH2 0x3F97 JUMP JUMPDEST PUSH1 0x40 MLOAD DUP1 SWAP2 SUB SWAP1 REVERT JUMPDEST PUSH1 0x40 MLOAD DUP1 PUSH1 0xE0 ADD PUSH1 0x40 MSTORE DUP1 DUP8 DUP2 MSTORE PUSH1 0x20 ADD DUP7 DUP2 MSTORE PUSH1 0x20 ADD DUP6 DUP2 MSTORE PUSH1 0x20 ADD DUP5 DUP2 MSTORE PUSH1 0x20 ADD DUP4 DUP2 MSTORE PUSH1 0x20 ADD DUP3 PUSH1 0x3 DUP2 GT ISZERO PUSH2 0x9BD JUMPI PUSH2 0x9BC PUSH2 0x34BF JUMP JUMPDEST JUMPDEST DUP2 MSTORE PUSH1 0x20 ADD PUSH1 0x1 ISZERO ISZERO DUP2 MSTORE POP PUSH1 0x0 DUP1 CALLER PUSH20 0xFFFFFFFFFFFFFFFFFFFFFFFFFFFFFFFFFFFFFFFF AND PUSH20 0xFFFFFFFFFFFFFFFFFFFFFFFFFFFFFFFFFFFFFFFF AND DUP2 MSTORE PUSH1 0x20 ADD SWAP1 DUP2 MSTORE PUSH1 0x20 ADD PUSH1 0x0 KECCAK256 PUSH1 0x0 DUP3 ADD MLOAD DUP2 PUSH1 0x0 ADD SWAP1 DUP2 PUSH2 0xA1C SWAP2 SWAP1 PUSH2 0x4163 JUMP JUMPDEST POP PUSH1 0x20 DUP3 ADD MLOAD DUP2 PUSH1 0x1 ADD SWAP1 DUP2 PUSH2 0xA32 SWAP2 SWAP1 PUSH2 0x4163 JUMP JUMPDEST POP PUSH1 0x40 DUP3 ADD MLOAD DUP2 PUSH1 0x2 ADD SWAP1 DUP2 PUSH2 0xA48 SWAP2 SWAP1 PUSH2 0x4163 JUMP JUMPDEST POP PUSH1 0x60 DUP3 ADD MLOAD DUP2 PUSH1 0x3 ADD SWAP1 DUP2 PUSH2 0xA5E SWAP2 SWAP1 PUSH2 0x4163 JUMP JUMPDEST POP PUSH1 0x80 DUP3 ADD MLOAD DUP2 PUSH1 0x4 ADD SWAP1 DUP2 PUSH2 0xA74 SWAP2 SWAP1 PUSH2 0x4163 JUMP JUMPDEST POP PUSH1 0xA0 DUP3 ADD MLOAD DUP2 PUSH1 0x5 ADD PUSH1 0x0 PUSH2 0x100 EXP DUP2 SLOAD DUP2 PUSH1 0xFF MUL NOT AND SWAP1 DUP4 PUSH1 0x3 DUP2 GT ISZERO PUSH2 0xAA0 JUMPI PUSH2 0xA9F PUSH2 0x34BF JUMP JUMPDEST JUMPDEST MUL OR SWAP1 SSTORE POP PUSH1 0xC0 DUP3 ADD MLOAD DUP2 PUSH1 0x5 ADD PUSH1 0x1 PUSH2 0x100 EXP DUP2 SLOAD DUP2 PUSH1 0xFF MUL NOT AND SWAP1 DUP4 ISZERO ISZERO MUL OR SWAP1 SSTORE POP SWAP1 POP POP CALLER PUSH20 0xFFFFFFFFFFFFFFFFFFFFFFFFFFFFFFFFFFFFFFFF AND PUSH32 0xC2E5D5DA58BD71D1A2D14CDEF02A4256D971B728088F8190D067CCFBAE3BD73E DUP8 DUP4 PUSH1 0x40 MLOAD PUSH2 0xB10 SWAP3 SWAP2 SWAP1 PUSH2 0x4235 JUMP JUMPDEST PUSH1 0x40 MLOAD DUP1 SWAP2 SUB SWAP1 LOG2 POP POP POP POP POP POP JUMP JUMPDEST PUSH2 0xB28 PUSH2 0x2DF4 JUMP JUMPDEST PUSH1 0x0 DUP1 DUP4 PUSH20 0xFFFFFFFFFFFFFFFFFFFFFFFFFFFFFFFFFFFFFFFF AND PUSH20 0xFFFFFFFFFFFFFFFFFFFFFFFFFFFFFFFFFFFFFFFF AND DUP2 MSTORE PUSH1 0x20 ADD SWAP1 DUP2 MSTORE PUSH1 0x20 ADD PUSH1 0x0 KECCAK256 PUSH1 0x5 ADD PUSH1 0x1 SWAP1 SLOAD SWAP1 PUSH2 0x100 EXP SWAP1 DIV PUSH1 0xFF AND PUSH2 0xBB6 JUMPI PUSH1 0x40 MLOAD PUSH32 0x8C379A000000000000000000000000000000000000000000000000000000000 DUP2 MSTORE PUSH1 0x4 ADD PUSH2 0xBAD SWAP1 PUSH2 0x42B1 JUMP JUMPDEST PUSH1 0x40 MLOAD DUP1 SWAP2 SUB SWAP1 REVERT JUMPDEST PUSH1 0x0 DUP1 DUP4 PUSH20 0xFFFFFFFFFFFFFFFFFFFFFFFFFFFFFFFFFFFFFFFF AND PUSH20 0xFFFFFFFFFFFFFFFFFFFFFFFFFFFFFFFFFFFFFFFF AND DUP2 MSTORE PUSH1 0x20 ADD SWAP1 DUP2 MSTORE PUSH1 0x20 ADD PUSH1 0x0 KECCAK256 PUSH1 0x40 MLOAD DUP1 PUSH1 0xE0 ADD PUSH1 0x40 MSTORE SWAP1 DUP2 PUSH1 0x0 DUP3 ADD DUP1 SLOAD PUSH2 0xC0F SWAP1 PUSH2 0x3E5B JUMP JUMPDEST DUP1 PUSH1 0x1F ADD PUSH1 0x20 DUP1 SWAP2 DIV MUL PUSH1 0x20 ADD PUSH1 0x40 MLOAD SWAP1 DUP2 ADD PUSH1 0x40 MSTORE DUP1 SWAP3 SWAP2 SWAP1 DUP2 DUP2 MSTORE PUSH1 0x20 ADD DUP3 DUP1 SLOAD PUSH2 0xC3B SWAP1 PUSH2 0x3E5B JUMP JUMPDEST DUP1 ISZERO PUSH2 0xC88 JUMPI DUP1 PUSH1 0x1F LT PUSH2 0xC5D JUMPI PUSH2 0x100 DUP1 DUP4 SLOAD DIV MUL DUP4 MSTORE SWAP2 PUSH1 0x20 ADD SWAP2 PUSH2 0xC88 JUMP JUMPDEST DUP3 ADD SWAP2 SWAP1 PUSH1 0x0 MSTORE PUSH1 0x20 PUSH1 0x0 KECCAK256 SWAP1 JUMPDEST DUP2 SLOAD DUP2 MSTORE SWAP1 PUSH1 0x1 ADD SWAP1 PUSH1 0x20 ADD DUP1 DUP4 GT PUSH2 0xC6B JUMPI DUP3 SWAP1 SUB PUSH1 0x1F AND DUP3 ADD SWAP2 JUMPDEST POP POP POP POP POP DUP2 MSTORE PUSH1 0x20 ADD PUSH1 0x1 DUP3 ADD DUP1 SLOAD PUSH2 0xCA1 SWAP1 PUSH2 0x3E5B JUMP JUMPDEST DUP1 PUSH1 0x1F ADD PUSH1 0x20 DUP1 SWAP2 DIV MUL PUSH1 0x20 ADD PUSH1 0x40 MLOAD SWAP1 DUP2 ADD PUSH1 0x40 MSTORE DUP1 SWAP3 SWAP2 SWAP1 DUP2 DUP2 MSTORE PUSH1 0x20 ADD DUP3 DUP1 SLOAD PUSH2 0xCCD SWAP1 PUSH2 0x3E5B JUMP JUMPDEST DUP1 ISZERO PUSH2 0xD1A JUMPI DUP1 PUSH1 0x1F LT PUSH2 0xCEF JUMPI PUSH2 0x100 DUP1 DUP4 SLOAD DIV MUL DUP4 MSTORE SWAP2 PUSH1 0x20 ADD SWAP2 PUSH2 0xD1A JUMP JUMPDEST DUP3 ADD SWAP2 SWAP1 PUSH1 0x0 MSTORE PUSH1 0x20 PUSH1 0x0 KECCAK256 SWAP1 JUMPDEST DUP2 SLOAD DUP2 MSTORE SWAP1 PUSH1 0x1 ADD SWAP1 PUSH1 0x20 ADD DUP1 DUP4 GT PUSH2 0xCFD JUMPI DUP3 SWAP1 SUB PUSH1 0x1F AND DUP3 ADD SWAP2 JUMPDEST POP POP POP POP POP DUP2 MSTORE PUSH1 0x20 ADD PUSH1 0x2 DUP3 ADD DUP1 SLOAD PUSH2 0xD33 SWAP1 PUSH2 0x3E5B JUMP JUMPDEST DUP1 PUSH1 0x1F ADD PUSH1 0x20 DUP1 SWAP2 DIV MUL PUSH1 0x20 ADD PUSH1 0x40 MLOAD SWAP1 DUP2 ADD PUSH1 0x40 MSTORE DUP1 SWAP3 SWAP2 SWAP1 DUP2 DUP2 MSTORE PUSH1 0x20 ADD DUP3 DUP1 SLOAD PUSH2 0xD5F SWAP1 PUSH2 0x3E5B JUMP JUMPDEST DUP1 ISZERO PUSH2 0xDAC JUMPI DUP1 PUSH1 0x1F LT PUSH2 0xD81 JUMPI PUSH2 0x100 DUP1 DUP4 SLOAD DIV MUL DUP4 MSTORE SWAP2 PUSH1 0x20 ADD SWAP2 PUSH2 0xDAC JUMP JUMPDEST DUP3 ADD SWAP2 SWAP1 PUSH1 0x0 MSTORE PUSH1 0x20 PUSH1 0x0 KECCAK256 SWAP1 JUMPDEST DUP2 SLOAD DUP2 MSTORE SWAP1 PUSH1 0x1 ADD SWAP1 PUSH1 0x20 ADD DUP1 DUP4 GT PUSH2 0xD8F JUMPI DUP3 SWAP1 SUB PUSH1 0x1F AND DUP3 ADD SWAP2 JUMPDEST POP POP POP POP POP DUP2 MSTORE PUSH1 0x20 ADD PUSH1 0x3 DUP3 ADD DUP1 SLOAD PUSH2 0xDC5 SWAP1 PUSH2 0x3E5B JUMP JUMPDEST DUP1 PUSH1 0x1F ADD PUSH1 0x20 DUP1 SWAP2 DIV MUL PUSH1 0x20 ADD PUSH1 0x40 MLOAD SWAP1 DUP2 ADD PUSH1 0x40 MSTORE DUP1 SWAP3 SWAP2 SWAP1 DUP2 DUP2 MSTORE PUSH1 0x20 ADD DUP3 DUP1 SLOAD PUSH2 0xDF1 SWAP1 PUSH2 0x3E5B JUMP JUMPDEST DUP1 ISZERO PUSH2 0xE3E JUMPI DUP1 PUSH1 0x1F LT PUSH2 0xE13 JUMPI PUSH2 0x100 DUP1 DUP4 SLOAD DIV MUL DUP4 MSTORE SWAP2 PUSH1 0x20 ADD SWAP2 PUSH2 0xE3E JUMP JUMPDEST DUP3 ADD SWAP2 SWAP1 PUSH1 0x0 MSTORE PUSH1 0x20 PUSH1 0x0 KECCAK256 SWAP1 JUMPDEST DUP2 SLOAD DUP2 MSTORE SWAP1 PUSH1 0x1 ADD SWAP1 PUSH1 0x20 ADD DUP1 DUP4 GT PUSH2 0xE21 JUMPI DUP3 SWAP1 SUB PUSH1 0x1F AND DUP3 ADD SWAP2 JUMPDEST POP POP POP POP POP DUP2 MSTORE PUSH1 0x20 ADD PUSH1 0x4 DUP3 ADD DUP1 SLOAD PUSH2 0xE57 SWAP1 PUSH2 0x3E5B JUMP JUMPDEST DUP1 PUSH1 0x1F ADD PUSH1 0x20 DUP1 SWAP2 DIV MUL PUSH1 0x20 ADD PUSH1 0x40 MLOAD SWAP1 DUP2 ADD PUSH1 0x40 MSTORE DUP1 SWAP3 SWAP2 SWAP1 DUP2 DUP2 MSTORE PUSH1 0x20 ADD DUP3 DUP1 SLOAD PUSH2 0xE83 SWAP1 PUSH2 0x3E5B JUMP JUMPDEST DUP1 ISZERO PUSH2 0xED0 JUMPI DUP1 PUSH1 0x1F LT PUSH2 0xEA5 JUMPI PUSH2 0x100 DUP1 DUP4 SLOAD DIV MUL DUP4 MSTORE SWAP2 PUSH1 0x20 ADD SWAP2 PUSH2 0xED0 JUMP JUMPDEST DUP3 ADD SWAP2 SWAP1 PUSH1 0x0 MSTORE PUSH1 0x20 PUSH1 0x0 KECCAK256 SWAP1 JUMPDEST DUP2 SLOAD DUP2 MSTORE SWAP1 PUSH1 0x1 ADD SWAP1 PUSH1 0x20 ADD DUP1 DUP4 GT PUSH2 0xEB3 JUMPI DUP3 SWAP1 SUB PUSH1 0x1F AND DUP3 ADD SWAP2 JUMPDEST POP POP POP POP POP DUP2 MSTORE PUSH1 0x20 ADD PUSH1 0x5 DUP3 ADD PUSH1 0x0 SWAP1 SLOAD SWAP1 PUSH2 0x100 EXP SWAP1 DIV PUSH1 0xFF AND PUSH1 0x3 DUP2 GT ISZERO PUSH2 0xEFE JUMPI PUSH2 0xEFD PUSH2 0x34BF JUMP JUMPDEST JUMPDEST PUSH1 0x3 DUP2 GT ISZERO PUSH2 0xF10 JUMPI PUSH2 0xF0F PUSH2 0x34BF JUMP JUMPDEST JUMPDEST DUP2 MSTORE PUSH1 0x20 ADD PUSH1 0x5 DUP3 ADD PUSH1 0x1 SWAP1 SLOAD SWAP1 PUSH2 0x100 EXP SWAP1 DIV PUSH1 0xFF AND ISZERO ISZERO ISZERO ISZERO DUP2 MSTORE POP POP SWAP1 POP SWAP2 SWAP1 POP JUMP JUMPDEST PUSH2 0xF3E PUSH2 0x2E45 JUMP JUMPDEST PUSH1 0x1 DUP3 PUSH1 0x40 MLOAD PUSH2 0xF4E SWAP2 SWAP1 PUSH2 0x3EC8 JUMP JUMPDEST SWAP1 DUP2 MSTORE PUSH1 0x20 ADD PUSH1 0x40 MLOAD DUP1 SWAP2 SUB SWAP1 KECCAK256 PUSH1 0x8 ADD PUSH1 0x0 SWAP1 SLOAD SWAP1 PUSH2 0x100 EXP SWAP1 DIV PUSH1 0xFF AND PUSH2 0xFAC JUMPI PUSH1 0x40 MLOAD PUSH32 0x8C379A000000000000000000000000000000000000000000000000000000000 DUP2 MSTORE PUSH1 0x4 ADD PUSH2 0xFA3 SWAP1 PUSH2 0x431D JUMP JUMPDEST PUSH1 0x40 MLOAD DUP1 SWAP2 SUB SWAP1 REVERT JUMPDEST PUSH1 0x1 DUP3 PUSH1 0x40 MLOAD PUSH2 0xFBC SWAP2 SWAP1 PUSH2 0x3EC8 JUMP JUMPDEST SWAP1 DUP2 MSTORE PUSH1 0x20 ADD PUSH1 0x40 MLOAD DUP1 SWAP2 SUB SWAP1 KECCAK256 PUSH1 0x40 MLOAD DUP1 PUSH2 0x120 ADD PUSH1 0x40 MSTORE SWAP1 DUP2 PUSH1 0x0 DUP3 ADD DUP1 SLOAD PUSH2 0xFE6 SWAP1 PUSH2 0x3E5B JUMP JUMPDEST DUP1 PUSH1 0x1F ADD PUSH1 0x20 DUP1 SWAP2 DIV MUL PUSH1 0x20 ADD PUSH1 0x40 MLOAD SWAP1 DUP2 ADD PUSH1 0x40 MSTORE DUP1 SWAP3 SWAP2 SWAP1 DUP2 DUP2 MSTORE PUSH1 0x20 ADD DUP3 DUP1 SLOAD PUSH2 0x1012 SWAP1 PUSH2 0x3E5B JUMP JUMPDEST DUP1 ISZERO PUSH2 0x105F JUMPI DUP1 PUSH1 0x1F LT PUSH2 0x1034 JUMPI PUSH2 0x100 DUP1 DUP4 SLOAD DIV MUL DUP4 MSTORE SWAP2 PUSH1 0x20 ADD SWAP2 PUSH2 0x105F JUMP JUMPDEST DUP3 ADD SWAP2 SWAP1 PUSH1 0x0 MSTORE PUSH1 0x20 PUSH1 0x0 KECCAK256 SWAP1 JUMPDEST DUP2 SLOAD DUP2 MSTORE SWAP1 PUSH1 0x1 ADD SWAP1 PUSH1 0x20 ADD DUP1 DUP4 GT PUSH2 0x1042 JUMPI DUP3 SWAP1 SUB PUSH1 0x1F AND DUP3 ADD SWAP2 JUMPDEST POP POP POP POP POP DUP2 MSTORE PUSH1 0x20 ADD PUSH1 0x1 DUP3 ADD DUP1 SLOAD PUSH2 0x1078 SWAP1 PUSH2 0x3E5B JUMP JUMPDEST DUP1 PUSH1 0x1F ADD PUSH1 0x20 DUP1 SWAP2 DIV MUL PUSH1 0x20 ADD PUSH1 0x40 MLOAD SWAP1 DUP2 ADD PUSH1 0x40 MSTORE DUP1 SWAP3 SWAP2 SWAP1 DUP2 DUP2 MSTORE PUSH1 0x20 ADD DUP3 DUP1 SLOAD PUSH2 0x10A4 SWAP1 PUSH2 0x3E5B JUMP JUMPDEST DUP1 ISZERO PUSH2 0x10F1 JUMPI DUP1 PUSH1 0x1F LT PUSH2 0x10C6 JUMPI PUSH2 0x100 DUP1 DUP4 SLOAD DIV MUL DUP4 MSTORE SWAP2 PUSH1 0x20 ADD SWAP2 PUSH2 0x10F1 JUMP JUMPDEST DUP3 ADD SWAP2 SWAP1 PUSH1 0x0 MSTORE PUSH1 0x20 PUSH1 0x0 KECCAK256 SWAP1 JUMPDEST DUP2 SLOAD DUP2 MSTORE SWAP1 PUSH1 0x1 ADD SWAP1 PUSH1 0x20 ADD DUP1 DUP4 GT PUSH2 0x10D4 JUMPI DUP3 SWAP1 SUB PUSH1 0x1F AND DUP3 ADD SWAP2 JUMPDEST POP POP POP POP POP DUP2 MSTORE PUSH1 0x20 ADD PUSH1 0x2 DUP3 ADD DUP1 SLOAD PUSH2 0x110A SWAP1 PUSH2 0x3E5B JUMP JUMPDEST DUP1 PUSH1 0x1F ADD PUSH1 0x20 DUP1 SWAP2 DIV MUL PUSH1 0x20 ADD PUSH1 0x40 MLOAD SWAP1 DUP2 ADD PUSH1 0x40 MSTORE DUP1 SWAP3 SWAP2 SWAP1 DUP2 DUP2 MSTORE PUSH1 0x20 ADD DUP3 DUP1 SLOAD PUSH2 0x1136 SWAP1 PUSH2 0x3E5B JUMP JUMPDEST DUP1 ISZERO PUSH2 0x1183 JUMPI DUP1 PUSH1 0x1F LT PUSH2 0x1158 JUMPI PUSH2 0x100 DUP1 DUP4 SLOAD DIV MUL DUP4 MSTORE SWAP2 PUSH1 0x20 ADD SWAP2 PUSH2 0x1183 JUMP JUMPDEST DUP3 ADD SWAP2 SWAP1 PUSH1 0x0 MSTORE PUSH1 0x20 PUSH1 0x0 KECCAK256 SWAP1 JUMPDEST DUP2 SLOAD DUP2 MSTORE SWAP1 PUSH1 0x1 ADD SWAP1 PUSH1 0x20 ADD DUP1 DUP4 GT PUSH2 0x1166 JUMPI DUP3 SWAP1 SUB PUSH1 0x1F AND DUP3 ADD SWAP2 JUMPDEST POP POP POP POP POP DUP2 MSTORE PUSH1 0x20 ADD PUSH1 0x3 DUP3 ADD DUP1 SLOAD PUSH2 0x119C SWAP1 PUSH2 0x3E5B JUMP JUMPDEST DUP1 PUSH1 0x1F ADD PUSH1 0x20 DUP1 SWAP2 DIV MUL PUSH1 0x20 ADD PUSH1 0x40 MLOAD SWAP1 DUP2 ADD PUSH1 0x40 MSTORE DUP1 SWAP3 SWAP2 SWAP1 DUP2 DUP2 MSTORE PUSH1 0x20 ADD DUP3 DUP1 SLOAD PUSH2 0x11C8 SWAP1 PUSH2 0x3E5B JUMP JUMPDEST DUP1 ISZERO PUSH2 0x1215 JUMPI DUP1 PUSH1 0x1F LT PUSH2 0x11EA JUMPI PUSH2 0x100 DUP1 DUP4 SLOAD DIV MUL DUP4 MSTORE SWAP2 PUSH1 0x20 ADD SWAP2 PUSH2 0x1215 JUMP JUMPDEST DUP3 ADD SWAP2 SWAP1 PUSH1 0x0 MSTORE PUSH1 0x20 PUSH1 0x0 KECCAK256 SWAP1 JUMPDEST DUP2 SLOAD DUP2 MSTORE SWAP1 PUSH1 0x1 ADD SWAP1 PUSH1 0x20 ADD DUP1 DUP4 GT PUSH2 0x11F8 JUMPI DUP3 SWAP1 SUB PUSH1 0x1F AND DUP3 ADD SWAP2 JUMPDEST POP POP POP POP POP DUP2 MSTORE PUSH1 0x20 ADD PUSH1 0x4 DUP3 ADD SLOAD DUP2 MSTORE PUSH1 0x20 ADD PUSH1 0x5 DUP3 ADD SLOAD DUP2 MSTORE PUSH1 0x20 ADD PUSH1 0x6 DUP3 ADD SLOAD DUP2 MSTORE PUSH1 0x20 ADD PUSH1 0x7 DUP3 ADD SLOAD DUP2 MSTORE PUSH1 0x20 ADD PUSH1 0x8 DUP3 ADD PUSH1 0x0 SWAP1 SLOAD SWAP1 PUSH2 0x100 EXP SWAP1 DIV PUSH1 0xFF AND ISZERO ISZERO ISZERO ISZERO DUP2 MSTORE POP POP SWAP1 POP SWAP2 SWAP1 POP JUMP JUMPDEST PUSH1 0x3 DUP1 DUP2 GT ISZERO PUSH2 0x127B JUMPI PUSH2 0x127A PUSH2 0x34BF JUMP JUMPDEST JUMPDEST PUSH1 0x0 DUP1 CALLER PUSH20 0xFFFFFFFFFFFFFFFFFFFFFFFFFFFFFFFFFFFFFFFF AND PUSH20 0xFFFFFFFFFFFFFFFFFFFFFFFFFFFFFFFFFFFFFFFF AND DUP2 MSTORE PUSH1 0x20 ADD SWAP1 DUP2 MSTORE PUSH1 0x20 ADD PUSH1 0x0 KECCAK256 PUSH1 0x5 ADD PUSH1 0x0 SWAP1 SLOAD SWAP1 PUSH2 0x100 EXP SWAP1 DIV PUSH1 0xFF AND PUSH1 0x3 DUP2 GT ISZERO PUSH2 0x12DC JUMPI PUSH2 0x12DB PUSH2 0x34BF JUMP JUMPDEST JUMPDEST EQ DUP1 PUSH2 0x135A JUMPI POP PUSH1 0x2 PUSH1 0x3 DUP2 GT ISZERO PUSH2 0x12F7 JUMPI PUSH2 0x12F6 PUSH2 0x34BF JUMP JUMPDEST JUMPDEST PUSH1 0x0 DUP1 CALLER PUSH20 0xFFFFFFFFFFFFFFFFFFFFFFFFFFFFFFFFFFFFFFFF AND PUSH20 0xFFFFFFFFFFFFFFFFFFFFFFFFFFFFFFFFFFFFFFFF AND DUP2 MSTORE PUSH1 0x20 ADD SWAP1 DUP2 MSTORE PUSH1 0x20 ADD PUSH1 0x0 KECCAK256 PUSH1 0x5 ADD PUSH1 0x0 SWAP1 SLOAD SWAP1 PUSH2 0x100 EXP SWAP1 DIV PUSH1 0xFF AND PUSH1 0x3 DUP2 GT ISZERO PUSH2 0x1358 JUMPI PUSH2 0x1357 PUSH2 0x34BF JUMP JUMPDEST JUMPDEST EQ JUMPDEST PUSH2 0x1399 JUMPI PUSH1 0x40 MLOAD PUSH32 0x8C379A000000000000000000000000000000000000000000000000000000000 DUP2 MSTORE PUSH1 0x4 ADD PUSH2 0x1390 SWAP1 PUSH2 0x43AF JUMP JUMPDEST PUSH1 0x40 MLOAD DUP1 SWAP2 SUB SWAP1 REVERT JUMPDEST PUSH1 0x1 DUP8 PUSH1 0x40 MLOAD PUSH2 0x13A9 SWAP2 SWAP1 PUSH2 0x3EC8 JUMP JUMPDEST SWAP1 DUP2 MSTORE PUSH1 0x20 ADD PUSH1 0x40 MLOAD DUP1 SWAP2 SUB SWAP1 KECCAK256 PUSH1 0x8 ADD PUSH1 0x0 SWAP1 SLOAD SWAP1 PUSH2 0x100 EXP SWAP1 DIV PUSH1 0xFF AND ISZERO PUSH2 0x1408 JUMPI PUSH1 0x40 MLOAD PUSH32 0x8C379A000000000000000000000000000000000000000000000000000000000 DUP2 MSTORE PUSH1 0x4 ADD PUSH2 0x13FF SWAP1 PUSH2 0x441B JUMP JUMPDEST PUSH1 0x40 MLOAD DUP1 SWAP2 SUB SWAP1 REVERT JUMPDEST PUSH1 0x40 MLOAD DUP1 PUSH2 0x120 ADD PUSH1 0x40 MSTORE DUP1 DUP9 DUP2 MSTORE PUSH1 0x20 ADD DUP8 DUP2 MSTORE PUSH1 0x20 ADD DUP7 DUP2 MSTORE PUSH1 0x20 ADD DUP6 DUP2 MSTORE PUSH1 0x20 ADD DUP5 DUP2 MSTORE PUSH1 0x20 ADD DUP5 DUP2 MSTORE PUSH1 0x20 ADD DUP4 DUP2 MSTORE PUSH1 0x20 ADD DUP3 DUP2 MSTORE PUSH1 0x20 ADD PUSH1 0x1 ISZERO ISZERO DUP2 MSTORE POP PUSH1 0x1 DUP9 PUSH1 0x40 MLOAD PUSH2 0x145B SWAP2 SWAP1 PUSH2 0x3EC8 JUMP JUMPDEST SWAP1 DUP2 MSTORE PUSH1 0x20 ADD PUSH1 0x40 MLOAD DUP1 SWAP2 SUB SWAP1 KECCAK256 PUSH1 0x0 DUP3 ADD MLOAD DUP2 PUSH1 0x0 ADD SWAP1 DUP2 PUSH2 0x147E SWAP2 SWAP1 PUSH2 0x4163 JUMP JUMPDEST POP PUSH1 0x20 DUP3 ADD MLOAD DUP2 PUSH1 0x1 ADD SWAP1 DUP2 PUSH2 0x1494 SWAP2 SWAP1 PUSH2 0x4163 JUMP JUMPDEST POP PUSH1 0x40 DUP3 ADD MLOAD DUP2 PUSH1 0x2 ADD SWAP1 DUP2 PUSH2 0x14AA SWAP2 SWAP1 PUSH2 0x4163 JUMP JUMPDEST POP PUSH1 0x60 DUP3 ADD MLOAD DUP2 PUSH1 0x3 ADD SWAP1 DUP2 PUSH2 0x14C0 SWAP2 SWAP1 PUSH2 0x4163 JUMP JUMPDEST POP PUSH1 0x80 DUP3 ADD MLOAD DUP2 PUSH1 0x4 ADD SSTORE PUSH1 0xA0 DUP3 ADD MLOAD DUP2 PUSH1 0x5 ADD SSTORE PUSH1 0xC0 DUP3 ADD MLOAD DUP2 PUSH1 0x6 ADD SSTORE PUSH1 0xE0 DUP3 ADD MLOAD DUP2 PUSH1 0x7 ADD SSTORE PUSH2 0x100 DUP3 ADD MLOAD DUP2 PUSH1 0x8 ADD PUSH1 0x0 PUSH2 0x100 EXP DUP2 SLOAD DUP2 PUSH1 0xFF MUL NOT AND SWAP1 DUP4 ISZERO ISZERO MUL OR SWAP1 SSTORE POP SWAP1 POP POP PUSH32 0x496C6DA4A4C685CF841A27C78FDA2B95762BB2965FA9ED905BFB2B12E04AC0B7 DUP8 DUP8 PUSH1 0x40 MLOAD PUSH2 0x153E SWAP3 SWAP2 SWAP1 PUSH2 0x443B JUMP JUMPDEST PUSH1 0x40 MLOAD DUP1 SWAP2 SUB SWAP1 LOG1 POP POP POP POP POP POP POP JUMP JUMPDEST PUSH1 0x1 DUP2 DUP1 MLOAD PUSH1 0x20 DUP2 ADD DUP3 ADD DUP1 MLOAD DUP5 DUP3 MSTORE PUSH1 0x20 DUP4 ADD PUSH1 0x20 DUP6 ADD KECCAK256 DUP2 DUP4 MSTORE DUP1 SWAP6 POP POP POP POP POP POP PUSH1 0x0 SWAP2 POP SWAP1 POP DUP1 PUSH1 0x0 ADD DUP1 SLOAD PUSH2 0x1588 SWAP1 PUSH2 0x3E5B JUMP JUMPDEST DUP1 PUSH1 0x1F ADD PUSH1 0x20 DUP1 SWAP2 DIV MUL PUSH1 0x20 ADD PUSH1 0x40 MLOAD SWAP1 DUP2 ADD PUSH1 0x40 MSTORE DUP1 SWAP3 SWAP2 SWAP1 DUP2 DUP2 MSTORE PUSH1 0x20 ADD DUP3 DUP1 SLOAD PUSH2 0x15B4 SWAP1 PUSH2 0x3E5B JUMP JUMPDEST DUP1 ISZERO PUSH2 0x1601 JUMPI DUP1 PUSH1 0x1F LT PUSH2 0x15D6 JUMPI PUSH2 0x100 DUP1 DUP4 SLOAD DIV MUL DUP4 MSTORE SWAP2 PUSH1 0x20 ADD SWAP2 PUSH2 0x1601 JUMP JUMPDEST DUP3 ADD SWAP2 SWAP1 PUSH1 0x0 MSTORE PUSH1 0x20 PUSH1 0x0 KECCAK256 SWAP1 JUMPDEST DUP2 SLOAD DUP2 MSTORE SWAP1 PUSH1 0x1 ADD SWAP1 PUSH1 0x20 ADD DUP1 DUP4 GT PUSH2 0x15E4 JUMPI DUP3 SWAP1 SUB PUSH1 0x1F AND DUP3 ADD SWAP2 JUMPDEST POP POP POP POP POP SWAP1 DUP1 PUSH1 0x1 ADD DUP1 SLOAD PUSH2 0x1616 SWAP1 PUSH2 0x3E5B JUMP JUMPDEST DUP1 PUSH1 0x1F ADD PUSH1 0x20 DUP1 SWAP2 DIV MUL PUSH1 0x20 ADD PUSH1 0x40 MLOAD SWAP1 DUP2 ADD PUSH1 0x40 MSTORE DUP1 SWAP3 SWAP2 SWAP1 DUP2 DUP2 MSTORE PUSH1 0x20 ADD DUP3 DUP1 SLOAD PUSH2 0x1642 SWAP1 PUSH2 0x3E5B JUMP JUMPDEST DUP1 ISZERO PUSH2 0x168F JUMPI DUP1 PUSH1 0x1F LT PUSH2 0x1664 JUMPI PUSH2 0x100 DUP1 DUP4 SLOAD DIV MUL DUP4 MSTORE SWAP2 PUSH1 0x20 ADD SWAP2 PUSH2 0x168F JUMP JUMPDEST DUP3 ADD SWAP2 SWAP1 PUSH1 0x0 MSTORE PUSH1 0x20 PUSH1 0x0 KECCAK256 SWAP1 JUMPDEST DUP2 SLOAD DUP2 MSTORE SWAP1 PUSH1 0x1 ADD SWAP1 PUSH1 0x20 ADD DUP1 DUP4 GT PUSH2 0x1672 JUMPI DUP3 SWAP1 SUB PUSH1 0x1F AND DUP3 ADD SWAP2 JUMPDEST POP POP POP POP POP SWAP1 DUP1 PUSH1 0x2 ADD DUP1 SLOAD PUSH2 0x16A4 SWAP1 PUSH2 0x3E5B JUMP JUMPDEST DUP1 PUSH1 0x1F ADD PUSH1 0x20 DUP1 SWAP2 DIV MUL PUSH1 0x20 ADD PUSH1 0x40 MLOAD SWAP1 DUP2 ADD PUSH1 0x40 MSTORE DUP1 SWAP3 SWAP2 SWAP1 DUP2 DUP2 MSTORE PUSH1 0x20 ADD DUP3 DUP1 SLOAD PUSH2 0x16D0 SWAP1 PUSH2 0x3E5B JUMP JUMPDEST DUP1 ISZERO PUSH2 0x171D JUMPI DUP1 PUSH1 0x1F LT PUSH2 0x16F2 JUMPI PUSH2 0x100 DUP1 DUP4 SLOAD DIV MUL DUP4 MSTORE SWAP2 PUSH1 0x20 ADD SWAP2 PUSH2 0x171D JUMP JUMPDEST DUP3 ADD SWAP2 SWAP1 PUSH1 0x0 MSTORE PUSH1 0x20 PUSH1 0x0 KECCAK256 SWAP1 JUMPDEST DUP2 SLOAD DUP2 MSTORE SWAP1 PUSH1 0x1 ADD SWAP1 PUSH1 0x20 ADD DUP1 DUP4 GT PUSH2 0x1700 JUMPI DUP3 SWAP1 SUB PUSH1 0x1F AND DUP3 ADD SWAP2 JUMPDEST POP POP POP POP POP SWAP1 DUP1 PUSH1 0x3 ADD DUP1 SLOAD PUSH2 0x1732 SWAP1 PUSH2 0x3E5B JUMP JUMPDEST DUP1 PUSH1 0x1F ADD PUSH1 0x20 DUP1 SWAP2 DIV MUL PUSH1 0x20 ADD PUSH1 0x40 MLOAD SWAP1 DUP2 ADD PUSH1 0x40 MSTORE DUP1 SWAP3 SWAP2 SWAP1 DUP2 DUP2 MSTORE PUSH1 0x20 ADD DUP3 DUP1 SLOAD PUSH2 0x175E SWAP1 PUSH2 0x3E5B JUMP JUMPDEST DUP1 ISZERO PUSH2 0x17AB JUMPI DUP1 PUSH1 0x1F LT PUSH2 0x1780 JUMPI PUSH2 0x100 DUP1 DUP4 SLOAD DIV MUL DUP4 MSTORE SWAP2 PUSH1 0x20 ADD SWAP2 PUSH2 0x17AB JUMP JUMPDEST DUP3 ADD SWAP2 SWAP1 PUSH1 0x0 MSTORE PUSH1 0x20 PUSH1 0x0 KECCAK256 SWAP1 JUMPDEST DUP2 SLOAD DUP2 MSTORE SWAP1 PUSH1 0x1 ADD SWAP1 PUSH1 0x20 ADD DUP1 DUP4 GT PUSH2 0x178E JUMPI DUP3 SWAP1 SUB PUSH1 0x1F AND DUP3 ADD SWAP2 JUMPDEST POP POP POP POP POP SWAP1 DUP1 PUSH1 0x4 ADD SLOAD SWAP1 DUP1 PUSH1 0x5 ADD SLOAD SWAP1 DUP1 PUSH1 0x6 ADD SLOAD SWAP1 DUP1 PUSH1 0x7 ADD SLOAD SWAP1 DUP1 PUSH1 0x8 ADD PUSH1 0x0 SWAP1 SLOAD SWAP1 PUSH2 0x100 EXP SWAP1 DIV PUSH1 0xFF AND SWAP1 POP DUP10 JUMP JUMPDEST PUSH1 0x0 PUSH1 0x3 DUP2 GT ISZERO PUSH2 0x17F4 JUMPI PUSH2 0x17F3 PUSH2 0x34BF JUMP JUMPDEST JUMPDEST PUSH1 0x0 DUP1 CALLER PUSH20 0xFFFFFFFFFFFFFFFFFFFFFFFFFFFFFFFFFFFFFFFF AND PUSH20 0xFFFFFFFFFFFFFFFFFFFFFFFFFFFFFFFFFFFFFFFF AND DUP2 MSTORE PUSH1 0x20 ADD SWAP1 DUP2 MSTORE PUSH1 0x20 ADD PUSH1 0x0 KECCAK256 PUSH1 0x5 ADD PUSH1 0x0 SWAP1 SLOAD SWAP1 PUSH2 0x100 EXP SWAP1 DIV PUSH1 0xFF AND PUSH1 0x3 DUP2 GT ISZERO PUSH2 0x1855 JUMPI PUSH2 0x1854 PUSH2 0x34BF JUMP JUMPDEST JUMPDEST EQ PUSH2 0x1895 JUMPI PUSH1 0x40 MLOAD PUSH32 0x8C379A000000000000000000000000000000000000000000000000000000000 DUP2 MSTORE PUSH1 0x4 ADD PUSH2 0x188C SWAP1 PUSH2 0x44BE JUMP JUMPDEST PUSH1 0x40 MLOAD DUP1 SWAP2 SUB SWAP1 REVERT JUMPDEST PUSH1 0x3 DUP8 PUSH1 0x40 MLOAD PUSH2 0x18A5 SWAP2 SWAP1 PUSH2 0x3EC8 JUMP JUMPDEST SWAP1 DUP2 MSTORE PUSH1 0x20 ADD PUSH1 0x40 MLOAD DUP1 SWAP2 SUB SWAP1 KECCAK256 PUSH1 0x7 ADD PUSH1 0x0 SWAP1 SLOAD SWAP1 PUSH2 0x100 EXP SWAP1 DIV PUSH1 0xFF AND ISZERO PUSH2 0x1904 JUMPI PUSH1 0x40 MLOAD PUSH32 0x8C379A000000000000000000000000000000000000000000000000000000000 DUP2 MSTORE PUSH1 0x4 ADD PUSH2 0x18FB SWAP1 PUSH2 0x452A JUMP JUMPDEST PUSH1 0x40 MLOAD DUP1 SWAP2 SUB SWAP1 REVERT JUMPDEST PUSH1 0x40 MLOAD DUP1 PUSH2 0x100 ADD PUSH1 0x40 MSTORE DUP1 DUP9 DUP2 MSTORE PUSH1 0x20 ADD DUP8 DUP2 MSTORE PUSH1 0x20 ADD DUP7 DUP2 MSTORE PUSH1 0x20 ADD DUP6 DUP2 MSTORE PUSH1 0x20 ADD DUP5 DUP2 MSTORE PUSH1 0x20 ADD DUP4 DUP2 MSTORE PUSH1 0x20 ADD DUP3 DUP2 MSTORE PUSH1 0x20 ADD PUSH1 0x1 ISZERO ISZERO DUP2 MSTORE POP PUSH1 0x3 DUP9 PUSH1 0x40 MLOAD PUSH2 0x1951 SWAP2 SWAP1 PUSH2 0x3EC8 JUMP JUMPDEST SWAP1 DUP2 MSTORE PUSH1 0x20 ADD PUSH1 0x40 MLOAD DUP1 SWAP2 SUB SWAP1 KECCAK256 PUSH1 0x0 DUP3 ADD MLOAD DUP2 PUSH1 0x0 ADD SWAP1 DUP2 PUSH2 0x1974 SWAP2 SWAP1 PUSH2 0x4163 JUMP JUMPDEST POP PUSH1 0x20 DUP3 ADD MLOAD DUP2 PUSH1 0x1 ADD SWAP1 DUP2 PUSH2 0x198A SWAP2 SWAP1 PUSH2 0x4163 JUMP JUMPDEST POP PUSH1 0x40 DUP3 ADD MLOAD DUP2 PUSH1 0x2 ADD SWAP1 DUP2 PUSH2 0x19A0 SWAP2 SWAP1 PUSH2 0x4163 JUMP JUMPDEST POP PUSH1 0x60 DUP3 ADD MLOAD DUP2 PUSH1 0x3 ADD SWAP1 DUP2 PUSH2 0x19B6 SWAP2 SWAP1 PUSH2 0x4163 JUMP JUMPDEST POP PUSH1 0x80 DUP3 ADD MLOAD DUP2 PUSH1 0x4 ADD SWAP1 DUP2 PUSH2 0x19CC SWAP2 SWAP1 PUSH2 0x4163 JUMP JUMPDEST POP PUSH1 0xA0 DUP3 ADD MLOAD DUP2 PUSH1 0x5 ADD SWAP1 DUP2 PUSH2 0x19E2 SWAP2 SWAP1 PUSH2 0x4163 JUMP JUMPDEST POP PUSH1 0xC0 DUP3 ADD MLOAD DUP2 PUSH1 0x6 ADD SWAP1 DUP2 PUSH2 0x19F8 SWAP2 SWAP1 PUSH2 0x4163 JUMP JUMPDEST POP PUSH1 0xE0 DUP3 ADD MLOAD DUP2 PUSH1 0x7 ADD PUSH1 0x0 PUSH2 0x100 EXP DUP2 SLOAD DUP2 PUSH1 0xFF MUL NOT AND SWAP1 DUP4 ISZERO ISZERO MUL OR SWAP1 SSTORE POP SWAP1 POP POP PUSH32 0xF57ECEE040EDFBD184404D12D5F2F7343575ADD2BA648066A9A501FA19BF3A27 DUP8 DUP8 PUSH1 0x40 MLOAD PUSH2 0x1A4D SWAP3 SWAP2 SWAP1 PUSH2 0x443B JUMP JUMPDEST PUSH1 0x40 MLOAD DUP1 SWAP2 SUB SWAP1 LOG1 POP POP POP POP POP POP POP JUMP JUMPDEST PUSH1 0x3 DUP1 DUP2 GT ISZERO PUSH2 0x1A71 JUMPI PUSH2 0x1A70 PUSH2 0x34BF JUMP JUMPDEST JUMPDEST PUSH1 0x0 DUP1 CALLER PUSH20 0xFFFFFFFFFFFFFFFFFFFFFFFFFFFFFFFFFFFFFFFF AND PUSH20 0xFFFFFFFFFFFFFFFFFFFFFFFFFFFFFFFFFFFFFFFF AND DUP2 MSTORE PUSH1 0x20 ADD SWAP1 DUP2 MSTORE PUSH1 0x20 ADD PUSH1 0x0 KECCAK256 PUSH1 0x5 ADD PUSH1 0x0 SWAP1 SLOAD SWAP1 PUSH2 0x100 EXP SWAP1 DIV PUSH1 0xFF AND PUSH1 0x3 DUP2 GT ISZERO PUSH2 0x1AD2 JUMPI PUSH2 0x1AD1 PUSH2 0x34BF JUMP JUMPDEST JUMPDEST EQ DUP1 PUSH2 0x1B50 JUMPI POP PUSH1 0x2 PUSH1 0x3 DUP2 GT ISZERO PUSH2 0x1AED JUMPI PUSH2 0x1AEC PUSH2 0x34BF JUMP JUMPDEST JUMPDEST PUSH1 0x0 DUP1 CALLER PUSH20 0xFFFFFFFFFFFFFFFFFFFFFFFFFFFFFFFFFFFFFFFF AND PUSH20 0xFFFFFFFFFFFFFFFFFFFFFFFFFFFFFFFFFFFFFFFF AND DUP2 MSTORE PUSH1 0x20 ADD SWAP1 DUP2 MSTORE PUSH1 0x20 ADD PUSH1 0x0 KECCAK256 PUSH1 0x5 ADD PUSH1 0x0 SWAP1 SLOAD SWAP1 PUSH2 0x100 EXP SWAP1 DIV PUSH1 0xFF AND PUSH1 0x3 DUP2 GT ISZERO PUSH2 0x1B4E JUMPI PUSH2 0x1B4D PUSH2 0x34BF JUMP JUMPDEST JUMPDEST EQ JUMPDEST PUSH2 0x1B8F JUMPI PUSH1 0x40 MLOAD PUSH32 0x8C379A000000000000000000000000000000000000000000000000000000000 DUP2 MSTORE PUSH1 0x4 ADD PUSH2 0x1B86 SWAP1 PUSH2 0x43AF JUMP JUMPDEST PUSH1 0x40 MLOAD DUP1 SWAP2 SUB SWAP1 REVERT JUMPDEST PUSH1 0x2 DUP6 PUSH1 0x40 MLOAD PUSH2 0x1B9F SWAP2 SWAP1 PUSH2 0x3EC8 JUMP JUMPDEST SWAP1 DUP2 MSTORE PUSH1 0x20 ADD PUSH1 0x40 MLOAD DUP1 SWAP2 SUB SWAP1 KECCAK256 PUSH1 0x5 ADD PUSH1 0x1 SWAP1 SLOAD SWAP1 PUSH2 0x100 EXP SWAP1 DIV PUSH1 0xFF AND ISZERO PUSH2 0x1BFE JUMPI PUSH1 0x40 MLOAD PUSH32 0x8C379A000000000000000000000000000000000000000000000000000000000 DUP2 MSTORE PUSH1 0x4 ADD PUSH2 0x1BF5 SWAP1 PUSH2 0x4596 JUMP JUMPDEST PUSH1 0x40 MLOAD DUP1 SWAP2 SUB SWAP1 REVERT JUMPDEST PUSH1 0x1 DUP3 PUSH1 0x40 MLOAD PUSH2 0x1C0E SWAP2 SWAP1 PUSH2 0x3EC8 JUMP JUMPDEST SWAP1 DUP2 MSTORE PUSH1 0x20 ADD PUSH1 0x40 MLOAD DUP1 SWAP2 SUB SWAP1 KECCAK256 PUSH1 0x8 ADD PUSH1 0x0 SWAP1 SLOAD SWAP1 PUSH2 0x100 EXP SWAP1 DIV PUSH1 0xFF AND PUSH2 0x1C6C JUMPI PUSH1 0x40 MLOAD PUSH32 0x8C379A000000000000000000000000000000000000000000000000000000000 DUP2 MSTORE PUSH1 0x4 ADD PUSH2 0x1C63 SWAP1 PUSH2 0x431D JUMP JUMPDEST PUSH1 0x40 MLOAD DUP1 SWAP2 SUB SWAP1 REVERT JUMPDEST PUSH1 0x40 MLOAD DUP1 PUSH1 0xE0 ADD PUSH1 0x40 MSTORE DUP1 DUP7 DUP2 MSTORE PUSH1 0x20 ADD DUP6 DUP2 MSTORE PUSH1 0x20 ADD DUP5 DUP2 MSTORE PUSH1 0x20 ADD DUP4 DUP2 MSTORE PUSH1 0x20 ADD DUP3 DUP2 MSTORE PUSH1 0x20 ADD PUSH1 0x1 ISZERO ISZERO DUP2 MSTORE PUSH1 0x20 ADD PUSH1 0x1 ISZERO ISZERO DUP2 MSTORE POP PUSH1 0x2 DUP7 PUSH1 0x40 MLOAD PUSH2 0x1CB5 SWAP2 SWAP1 PUSH2 0x3EC8 JUMP JUMPDEST SWAP1 DUP2 MSTORE PUSH1 0x20 ADD PUSH1 0x40 MLOAD DUP1 SWAP2 SUB SWAP1 KECCAK256 PUSH1 0x0 DUP3 ADD MLOAD DUP2 PUSH1 0x0 ADD SWAP1 DUP2 PUSH2 0x1CD8 SWAP2 SWAP1 PUSH2 0x4163 JUMP JUMPDEST POP PUSH1 0x20 DUP3 ADD MLOAD DUP2 PUSH1 0x1 ADD SWAP1 DUP2 PUSH2 0x1CEE SWAP2 SWAP1 PUSH2 0x4163 JUMP JUMPDEST POP PUSH1 0x40 DUP3 ADD MLOAD DUP2 PUSH1 0x2 ADD SWAP1 DUP2 PUSH2 0x1D04 SWAP2 SWAP1 PUSH2 0x4163 JUMP JUMPDEST POP PUSH1 0x60 DUP3 ADD MLOAD DUP2 PUSH1 0x3 ADD SWAP1 DUP2 PUSH2 0x1D1A SWAP2 SWAP1 PUSH2 0x4163 JUMP JUMPDEST POP PUSH1 0x80 DUP3 ADD MLOAD DUP2 PUSH1 0x4 ADD SSTORE PUSH1 0xA0 DUP3 ADD MLOAD DUP2 PUSH1 0x5 ADD PUSH1 0x0 PUSH2 0x100 EXP DUP2 SLOAD DUP2 PUSH1 0xFF MUL NOT AND SWAP1 DUP4 ISZERO ISZERO MUL OR SWAP1 SSTORE POP PUSH1 0xC0 DUP3 ADD MLOAD DUP2 PUSH1 0x5 ADD PUSH1 0x1 PUSH2 0x100 EXP DUP2 SLOAD DUP2 PUSH1 0xFF MUL NOT AND SWAP1 DUP4 ISZERO ISZERO MUL OR SWAP1 SSTORE POP SWAP1 POP POP PUSH32 0x1187C17101D2AD9D5A17B4990710F2BE353A26783D7627F24824DD75475DDEA2 DUP6 DUP6 DUP6 PUSH1 0x40 MLOAD PUSH2 0x1D9B SWAP4 SWAP3 SWAP2 SWAP1 PUSH2 0x45B6 JUMP JUMPDEST PUSH1 0x40 MLOAD DUP1 SWAP2 SUB SWAP1 LOG1 POP POP POP POP POP JUMP JUMPDEST PUSH1 0x0 PUSH1 0x20 MSTORE DUP1 PUSH1 0x0 MSTORE PUSH1 0x40 PUSH1 0x0 KECCAK256 PUSH1 0x0 SWAP2 POP SWAP1 POP DUP1 PUSH1 0x0 ADD DUP1 SLOAD PUSH2 0x1DCD SWAP1 PUSH2 0x3E5B JUMP JUMPDEST DUP1 PUSH1 0x1F ADD PUSH1 0x20 DUP1 SWAP2 DIV MUL PUSH1 0x20 ADD PUSH1 0x40 MLOAD SWAP1 DUP2 ADD PUSH1 0x40 MSTORE DUP1 SWAP3 SWAP2 SWAP1 DUP2 DUP2 MSTORE PUSH1 0x20 ADD DUP3 DUP1 SLOAD PUSH2 0x1DF9 SWAP1 PUSH2 0x3E5B JUMP JUMPDEST DUP1 ISZERO PUSH2 0x1E46 JUMPI DUP1 PUSH1 0x1F LT PUSH2 0x1E1B JUMPI PUSH2 0x100 DUP1 DUP4 SLOAD DIV MUL DUP4 MSTORE SWAP2 PUSH1 0x20 ADD SWAP2 PUSH2 0x1E46 JUMP JUMPDEST DUP3 ADD SWAP2 SWAP1 PUSH1 0x0 MSTORE PUSH1 0x20 PUSH1 0x0 KECCAK256 SWAP1 JUMPDEST DUP2 SLOAD DUP2 MSTORE SWAP1 PUSH1 0x1 ADD SWAP1 PUSH1 0x20 ADD DUP1 DUP4 GT PUSH2 0x1E29 JUMPI DUP3 SWAP1 SUB PUSH1 0x1F AND DUP3 ADD SWAP2 JUMPDEST POP POP POP POP POP SWAP1 DUP1 PUSH1 0x1 ADD DUP1 SLOAD PUSH2 0x1E5B SWAP1 PUSH2 0x3E5B JUMP JUMPDEST DUP1 PUSH1 0x1F ADD PUSH1 0x20 DUP1 SWAP2 DIV MUL PUSH1 0x20 ADD PUSH1 0x40 MLOAD SWAP1 DUP2 ADD PUSH1 0x40 MSTORE DUP1 SWAP3 SWAP2 SWAP1 DUP2 DUP2 MSTORE PUSH1 0x20 ADD DUP3 DUP1 SLOAD PUSH2 0x1E87 SWAP1 PUSH2 0x3E5B JUMP JUMPDEST DUP1 ISZERO PUSH2 0x1ED4 JUMPI DUP1 PUSH1 0x1F LT PUSH2 0x1EA9 JUMPI PUSH2 0x100 DUP1 DUP4 SLOAD DIV MUL DUP4 MSTORE SWAP2 PUSH1 0x20 ADD SWAP2 PUSH2 0x1ED4 JUMP JUMPDEST DUP3 ADD SWAP2 SWAP1 PUSH1 0x0 MSTORE PUSH1 0x20 PUSH1 0x0 KECCAK256 SWAP1 JUMPDEST DUP2 SLOAD DUP2 MSTORE SWAP1 PUSH1 0x1 ADD SWAP1 PUSH1 0x20 ADD DUP1 DUP4 GT PUSH2 0x1EB7 JUMPI DUP3 SWAP1 SUB PUSH1 0x1F AND DUP3 ADD SWAP2 JUMPDEST POP POP POP POP POP SWAP1 DUP1 PUSH1 0x2 ADD DUP1 SLOAD PUSH2 0x1EE9 SWAP1 PUSH2 0x3E5B JUMP JUMPDEST DUP1 PUSH1 0x1F ADD PUSH1 0x20 DUP1 SWAP2 DIV MUL PUSH1 0x20 ADD PUSH1 0x40 MLOAD SWAP1 DUP2 ADD PUSH1 0x40 MSTORE DUP1 SWAP3 SWAP2 SWAP1 DUP2 DUP2 MSTORE PUSH1 0x20 ADD DUP3 DUP1 SLOAD PUSH2 0x1F15 SWAP1 PUSH2 0x3E5B JUMP JUMPDEST DUP1 ISZERO PUSH2 0x1F62 JUMPI DUP1 PUSH1 0x1F LT PUSH2 0x1F37 JUMPI PUSH2 0x100 DUP1 DUP4 SLOAD DIV MUL DUP4 MSTORE SWAP2 PUSH1 0x20 ADD SWAP2 PUSH2 0x1F62 JUMP JUMPDEST DUP3 ADD SWAP2 SWAP1 PUSH1 0x0 MSTORE PUSH1 0x20 PUSH1 0x0 KECCAK256 SWAP1 JUMPDEST DUP2 SLOAD DUP2 MSTORE SWAP1 PUSH1 0x1 ADD SWAP1 PUSH1 0x20 ADD DUP1 DUP4 GT PUSH2 0x1F45 JUMPI DUP3 SWAP1 SUB PUSH1 0x1F AND DUP3 ADD SWAP2 JUMPDEST POP POP POP POP POP SWAP1 DUP1 PUSH1 0x3 ADD DUP1 SLOAD PUSH2 0x1F77 SWAP1 PUSH2 0x3E5B JUMP JUMPDEST DUP1 PUSH1 0x1F ADD PUSH1 0x20 DUP1 SWAP2 DIV MUL PUSH1 0x20 ADD PUSH1 0x40 MLOAD SWAP1 DUP2 ADD PUSH1 0x40 MSTORE DUP1 SWAP3 SWAP2 SWAP1 DUP2 DUP2 MSTORE PUSH1 0x20 ADD DUP3 DUP1 SLOAD PUSH2 0x1FA3 SWAP1 PUSH2 0x3E5B JUMP JUMPDEST DUP1 ISZERO PUSH2 0x1FF0 JUMPI DUP1 PUSH1 0x1F LT PUSH2 0x1FC5 JUMPI PUSH2 0x100 DUP1 DUP4 SLOAD DIV MUL DUP4 MSTORE SWAP2 PUSH1 0x20 ADD SWAP2 PUSH2 0x1FF0 JUMP JUMPDEST DUP3 ADD SWAP2 SWAP1 PUSH1 0x0 MSTORE PUSH1 0x20 PUSH1 0x0 KECCAK256 SWAP1 JUMPDEST DUP2 SLOAD DUP2 MSTORE SWAP1 PUSH1 0x1 ADD SWAP1 PUSH1 0x20 ADD DUP1 DUP4 GT PUSH2 0x1FD3 JUMPI DUP3 SWAP1 SUB PUSH1 0x1F AND DUP3 ADD SWAP2 JUMPDEST POP POP POP POP POP SWAP1 DUP1 PUSH1 0x4 ADD DUP1 SLOAD PUSH2 0x2005 SWAP1 PUSH2 0x3E5B JUMP JUMPDEST DUP1 PUSH1 0x1F ADD PUSH1 0x20 DUP1 SWAP2 DIV MUL PUSH1 0x20 ADD PUSH1 0x40 MLOAD SWAP1 DUP2 ADD PUSH1 0x40 MSTORE DUP1 SWAP3 SWAP2 SWAP1 DUP2 DUP2 MSTORE PUSH1 0x20 ADD DUP3 DUP1 SLOAD PUSH2 0x2031 SWAP1 PUSH2 0x3E5B JUMP JUMPDEST DUP1 ISZERO PUSH2 0x207E JUMPI DUP1 PUSH1 0x1F LT PUSH2 0x2053 JUMPI PUSH2 0x100 DUP1 DUP4 SLOAD DIV MUL DUP4 MSTORE SWAP2 PUSH1 0x20 ADD SWAP2 PUSH2 0x207E JUMP JUMPDEST DUP3 ADD SWAP2 SWAP1 PUSH1 0x0 MSTORE PUSH1 0x20 PUSH1 0x0 KECCAK256 SWAP1 JUMPDEST DUP2 SLOAD DUP2 MSTORE SWAP1 PUSH1 0x1 ADD SWAP1 PUSH1 0x20 ADD DUP1 DUP4 GT PUSH2 0x2061 JUMPI DUP3 SWAP1 SUB PUSH1 0x1F AND DUP3 ADD SWAP2 JUMPDEST POP POP POP POP POP SWAP1 DUP1 PUSH1 0x5 ADD PUSH1 0x0 SWAP1 SLOAD SWAP1 PUSH2 0x100 EXP SWAP1 DIV PUSH1 0xFF AND SWAP1 DUP1 PUSH1 0x5 ADD PUSH1 0x1 SWAP1 SLOAD SWAP1 PUSH2 0x100 EXP SWAP1 DIV PUSH1 0xFF AND SWAP1 POP DUP8 JUMP JUMPDEST PUSH1 0x3 DUP1 DUP2 GT ISZERO PUSH2 0x20C1 JUMPI PUSH2 0x20C0 PUSH2 0x34BF JUMP JUMPDEST JUMPDEST PUSH1 0x0 DUP1 CALLER PUSH20 0xFFFFFFFFFFFFFFFFFFFFFFFFFFFFFFFFFFFFFFFF AND PUSH20 0xFFFFFFFFFFFFFFFFFFFFFFFFFFFFFFFFFFFFFFFF AND DUP2 MSTORE PUSH1 0x20 ADD SWAP1 DUP2 MSTORE PUSH1 0x20 ADD PUSH1 0x0 KECCAK256 PUSH1 0x5 ADD PUSH1 0x0 SWAP1 SLOAD SWAP1 PUSH2 0x100 EXP SWAP1 DIV PUSH1 0xFF AND PUSH1 0x3 DUP2 GT ISZERO PUSH2 0x2122 JUMPI PUSH2 0x2121 PUSH2 0x34BF JUMP JUMPDEST JUMPDEST EQ DUP1 PUSH2 0x21A0 JUMPI POP PUSH1 0x2 PUSH1 0x3 DUP2 GT ISZERO PUSH2 0x213D JUMPI PUSH2 0x213C PUSH2 0x34BF JUMP JUMPDEST JUMPDEST PUSH1 0x0 DUP1 CALLER PUSH20 0xFFFFFFFFFFFFFFFFFFFFFFFFFFFFFFFFFFFFFFFF AND PUSH20 0xFFFFFFFFFFFFFFFFFFFFFFFFFFFFFFFFFFFFFFFF AND DUP2 MSTORE PUSH1 0x20 ADD SWAP1 DUP2 MSTORE PUSH1 0x20 ADD PUSH1 0x0 KECCAK256 PUSH1 0x5 ADD PUSH1 0x0 SWAP1 SLOAD SWAP1 PUSH2 0x100 EXP SWAP1 DIV PUSH1 0xFF AND PUSH1 0x3 DUP2 GT ISZERO PUSH2 0x219E JUMPI PUSH2 0x219D PUSH2 0x34BF JUMP JUMPDEST JUMPDEST EQ JUMPDEST PUSH2 0x21DF JUMPI PUSH1 0x40 MLOAD PUSH32 0x8C379A000000000000000000000000000000000000000000000000000000000 DUP2 MSTORE PUSH1 0x4 ADD PUSH2 0x21D6 SWAP1 PUSH2 0x43AF JUMP JUMPDEST PUSH1 0x40 MLOAD DUP1 SWAP2 SUB SWAP1 REVERT JUMPDEST PUSH1 0x1 DUP3 PUSH1 0x40 MLOAD PUSH2 0x21EF SWAP2 SWAP1 PUSH2 0x3EC8 JUMP JUMPDEST SWAP1 DUP2 MSTORE PUSH1 0x20 ADD PUSH1 0x40 MLOAD DUP1 SWAP2 SUB SWAP1 KECCAK256 PUSH1 0x8 ADD PUSH1 0x0 SWAP1 SLOAD SWAP1 PUSH2 0x100 EXP SWAP1 DIV PUSH1 0xFF AND PUSH2 0x224D JUMPI PUSH1 0x40 MLOAD PUSH32 0x8C379A000000000000000000000000000000000000000000000000000000000 DUP2 MSTORE PUSH1 0x4 ADD PUSH2 0x2244 SWAP1 PUSH2 0x431D JUMP JUMPDEST PUSH1 0x40 MLOAD DUP1 SWAP2 SUB SWAP1 REVERT JUMPDEST DUP1 PUSH1 0x1 DUP4 PUSH1 0x40 MLOAD PUSH2 0x225E SWAP2 SWAP1 PUSH2 0x3EC8 JUMP JUMPDEST SWAP1 DUP2 MSTORE PUSH1 0x20 ADD PUSH1 0x40 MLOAD DUP1 SWAP2 SUB SWAP1 KECCAK256 PUSH1 0x5 ADD DUP2 SWAP1 SSTORE POP PUSH32 0x82C1B17B6EE344DFB6760923225788A729BF479B33BDF68EB495D02D0922E543 DUP3 PUSH1 0x1 DUP5 PUSH1 0x40 MLOAD PUSH2 0x22A5 SWAP2 SWAP1 PUSH2 0x3EC8 JUMP JUMPDEST SWAP1 DUP2 MSTORE PUSH1 0x20 ADD PUSH1 0x40 MLOAD DUP1 SWAP2 SUB SWAP1 KECCAK256 PUSH1 0x1 ADD DUP4 PUSH1 0x40 MLOAD PUSH2 0x22C6 SWAP4 SWAP3 SWAP2 SWAP1 PUSH2 0x4686 JUMP JUMPDEST PUSH1 0x40 MLOAD DUP1 SWAP2 SUB SWAP1 LOG1 POP POP JUMP JUMPDEST PUSH1 0x2 PUSH1 0x3 DUP2 GT ISZERO PUSH2 0x22E6 JUMPI PUSH2 0x22E5 PUSH2 0x34BF JUMP JUMPDEST JUMPDEST PUSH1 0x0 DUP1 CALLER PUSH20 0xFFFFFFFFFFFFFFFFFFFFFFFFFFFFFFFFFFFFFFFF AND PUSH20 0xFFFFFFFFFFFFFFFFFFFFFFFFFFFFFFFFFFFFFFFF AND DUP2 MSTORE PUSH1 0x20 ADD SWAP1 DUP2 MSTORE PUSH1 0x20 ADD PUSH1 0x0 KECCAK256 PUSH1 0x5 ADD PUSH1 0x0 SWAP1 SLOAD SWAP1 PUSH2 0x100 EXP SWAP1 DIV PUSH1 0xFF AND PUSH1 0x3 DUP2 GT ISZERO PUSH2 0x2347 JUMPI PUSH2 0x2346 PUSH2 0x34BF JUMP JUMPDEST JUMPDEST EQ PUSH2 0x2387 JUMPI PUSH1 0x40 MLOAD PUSH32 0x8C379A000000000000000000000000000000000000000000000000000000000 DUP2 MSTORE PUSH1 0x4 ADD PUSH2 0x237E SWAP1 PUSH2 0x473D JUMP JUMPDEST PUSH1 0x40 MLOAD DUP1 SWAP2 SUB SWAP1 REVERT JUMPDEST PUSH1 0x0 DUP1 DUP4 PUSH20 0xFFFFFFFFFFFFFFFFFFFFFFFFFFFFFFFFFFFFFFFF AND PUSH20 0xFFFFFFFFFFFFFFFFFFFFFFFFFFFFFFFFFFFFFFFF AND DUP2 MSTORE PUSH1 0x20 ADD SWAP1 DUP2 MSTORE PUSH1 0x20 ADD PUSH1 0x0 KECCAK256 PUSH1 0x5 ADD PUSH1 0x1 SWAP1 SLOAD SWAP1 PUSH2 0x100 EXP SWAP1 DIV PUSH1 0xFF AND PUSH2 0x2415 JUMPI PUSH1 0x40 MLOAD PUSH32 0x8C379A000000000000000000000000000000000000000000000000000000000 DUP2 MSTORE PUSH1 0x4 ADD PUSH2 0x240C SWAP1 PUSH2 0x42B1 JUMP JUMPDEST PUSH1 0x40 MLOAD DUP1 SWAP2 SUB SWAP1 REVERT JUMPDEST DUP1 PUSH1 0x0 DUP1 DUP5 PUSH20 0xFFFFFFFFFFFFFFFFFFFFFFFFFFFFFFFFFFFFFFFF AND PUSH20 0xFFFFFFFFFFFFFFFFFFFFFFFFFFFFFFFFFFFFFFFF AND DUP2 MSTORE PUSH1 0x20 ADD SWAP1 DUP2 MSTORE PUSH1 0x20 ADD PUSH1 0x0 KECCAK256 PUSH1 0x5 ADD PUSH1 0x0 PUSH2 0x100 EXP DUP2 SLOAD DUP2 PUSH1 0xFF MUL NOT AND SWAP1 DUP4 PUSH1 0x3 DUP2 GT ISZERO PUSH2 0x2479 JUMPI PUSH2 0x2478 PUSH2 0x34BF JUMP JUMPDEST JUMPDEST MUL OR SWAP1 SSTORE POP DUP2 PUSH20 0xFFFFFFFFFFFFFFFFFFFFFFFFFFFFFFFFFFFFFFFF AND PUSH32 0x8348234787DEBC8768E710BB8608864A37FFC99E6BDE8BF5358171239895F2B3 DUP3 PUSH1 0x40 MLOAD PUSH2 0x24C4 SWAP2 SWAP1 PUSH2 0x475D JUMP JUMPDEST PUSH1 0x40 MLOAD DUP1 SWAP2 SUB SWAP1 LOG2 POP POP JUMP JUMPDEST PUSH1 0x3 DUP2 DUP1 MLOAD PUSH1 0x20 DUP2 ADD DUP3 ADD DUP1 MLOAD DUP5 DUP3 MSTORE PUSH1 0x20 DUP4 ADD PUSH1 0x20 DUP6 ADD KECCAK256 DUP2 DUP4 MSTORE DUP1 SWAP6 POP POP POP POP POP POP PUSH1 0x0 SWAP2 POP SWAP1 POP DUP1 PUSH1 0x0 ADD DUP1 SLOAD PUSH2 0x2509 SWAP1 PUSH2 0x3E5B JUMP JUMPDEST DUP1 PUSH1 0x1F ADD PUSH1 0x20 DUP1 SWAP2 DIV MUL PUSH1 0x20 ADD PUSH1 0x40 MLOAD SWAP1 DUP2 ADD PUSH1 0x40 MSTORE DUP1 SWAP3 SWAP2 SWAP1 DUP2 DUP2 MSTORE PUSH1 0x20 ADD DUP3 DUP1 SLOAD PUSH2 0x2535 SWAP1 PUSH2 0x3E5B JUMP JUMPDEST DUP1 ISZERO PUSH2 0x2582 JUMPI DUP1 PUSH1 0x1F LT PUSH2 0x2557 JUMPI PUSH2 0x100 DUP1 DUP4 SLOAD DIV MUL DUP4 MSTORE SWAP2 PUSH1 0x20 ADD SWAP2 PUSH2 0x2582 JUMP JUMPDEST DUP3 ADD SWAP2 SWAP1 PUSH1 0x0 MSTORE PUSH1 0x20 PUSH1 0x0 KECCAK256 SWAP1 JUMPDEST DUP2 SLOAD DUP2 MSTORE SWAP1 PUSH1 0x1 ADD SWAP1 PUSH1 0x20 ADD DUP1 DUP4 GT PUSH2 0x2565 JUMPI DUP3 SWAP1 SUB PUSH1 0x1F AND DUP3 ADD SWAP2 JUMPDEST POP POP POP POP POP SWAP1 DUP1 PUSH1 0x1 ADD DUP1 SLOAD PUSH2 0x2597 SWAP1 PUSH2 0x3E5B JUMP JUMPDEST DUP1 PUSH1 0x1F ADD PUSH1 0x20 DUP1 SWAP2 DIV MUL PUSH1 0x20 ADD PUSH1 0x40 MLOAD SWAP1 DUP2 ADD PUSH1 0x40 MSTORE DUP1 SWAP3 SWAP2 SWAP1 DUP2 DUP2 MSTORE PUSH1 0x20 ADD DUP3 DUP1 SLOAD PUSH2 0x25C3 SWAP1 PUSH2 0x3E5B JUMP JUMPDEST DUP1 ISZERO PUSH2 0x2610 JUMPI DUP1 PUSH1 0x1F LT PUSH2 0x25E5 JUMPI PUSH2 0x100 DUP1 DUP4 SLOAD DIV MUL DUP4 MSTORE SWAP2 PUSH1 0x20 ADD SWAP2 PUSH2 0x2610 JUMP JUMPDEST DUP3 ADD SWAP2 SWAP1 PUSH1 0x0 MSTORE PUSH1 0x20 PUSH1 0x0 KECCAK256 SWAP1 JUMPDEST DUP2 SLOAD DUP2 MSTORE SWAP1 PUSH1 0x1 ADD SWAP1 PUSH1 0x20 ADD DUP1 DUP4 GT PUSH2 0x25F3 JUMPI DUP3 SWAP1 SUB PUSH1 0x1F AND DUP3 ADD SWAP2 JUMPDEST POP POP POP POP POP SWAP1 DUP1 PUSH1 0x2 ADD DUP1 SLOAD PUSH2 0x2625 SWAP1 PUSH2 0x3E5B JUMP JUMPDEST DUP1 PUSH1 0x1F ADD PUSH1 0x20 DUP1 SWAP2 DIV MUL PUSH1 0x20 ADD PUSH1 0x40 MLOAD SWAP1 DUP2 ADD PUSH1 0x40 MSTORE DUP1 SWAP3 SWAP2 SWAP1 DUP2 DUP2 MSTORE PUSH1 0x20 ADD DUP3 DUP1 SLOAD PUSH2 0x2651 SWAP1 PUSH2 0x3E5B JUMP JUMPDEST DUP1 ISZERO PUSH2 0x269E JUMPI DUP1 PUSH1 0x1F LT PUSH2 0x2673 JUMPI PUSH2 0x100 DUP1 DUP4 SLOAD DIV MUL DUP4 MSTORE SWAP2 PUSH1 0x20 ADD SWAP2 PUSH2 0x269E JUMP JUMPDEST DUP3 ADD SWAP2 SWAP1 PUSH1 0x0 MSTORE PUSH1 0x20 PUSH1 0x0 KECCAK256 SWAP1 JUMPDEST DUP2 SLOAD DUP2 MSTORE SWAP1 PUSH1 0x1 ADD SWAP1 PUSH1 0x20 ADD DUP1 DUP4 GT PUSH2 0x2681 JUMPI DUP3 SWAP1 SUB PUSH1 0x1F AND DUP3 ADD SWAP2 JUMPDEST POP POP POP POP POP SWAP1 DUP1 PUSH1 0x3 ADD DUP1 SLOAD PUSH2 0x26B3 SWAP1 PUSH2 0x3E5B JUMP JUMPDEST DUP1 PUSH1 0x1F ADD PUSH1 0x20 DUP1 SWAP2 DIV MUL PUSH1 0x20 ADD PUSH1 0x40 MLOAD SWAP1 DUP2 ADD PUSH1 0x40 MSTORE DUP1 SWAP3 SWAP2 SWAP1 DUP2 DUP2 MSTORE PUSH1 0x20 ADD DUP3 DUP1 SLOAD PUSH2 0x26DF SWAP1 PUSH2 0x3E5B JUMP JUMPDEST DUP1 ISZERO PUSH2 0x272C JUMPI DUP1 PUSH1 0x1F LT PUSH2 0x2701 JUMPI PUSH2 0x100 DUP1 DUP4 SLOAD DIV MUL DUP4 MSTORE SWAP2 PUSH1 0x20 ADD SWAP2 PUSH2 0x272C JUMP JUMPDEST DUP3 ADD SWAP2 SWAP1 PUSH1 0x0 MSTORE PUSH1 0x20 PUSH1 0x0 KECCAK256 SWAP1 JUMPDEST DUP2 SLOAD DUP2 MSTORE SWAP1 PUSH1 0x1 ADD SWAP1 PUSH1 0x20 ADD DUP1 DUP4 GT PUSH2 0x270F JUMPI DUP3 SWAP1 SUB PUSH1 0x1F AND DUP3 ADD SWAP2 JUMPDEST POP POP POP POP POP SWAP1 DUP1 PUSH1 0x4 ADD DUP1 SLOAD PUSH2 0x2741 SWAP1 PUSH2 0x3E5B JUMP JUMPDEST DUP1 PUSH1 0x1F ADD PUSH1 0x20 DUP1 SWAP2 DIV MUL PUSH1 0x20 ADD PUSH1 0x40 MLOAD SWAP1 DUP2 ADD PUSH1 0x40 MSTORE DUP1 SWAP3 SWAP2 SWAP1 DUP2 DUP2 MSTORE PUSH1 0x20 ADD DUP3 DUP1 SLOAD PUSH2 0x276D SWAP1 PUSH2 0x3E5B JUMP JUMPDEST DUP1 ISZERO PUSH2 0x27BA JUMPI DUP1 PUSH1 0x1F LT PUSH2 0x278F JUMPI PUSH2 0x100 DUP1 DUP4 SLOAD DIV MUL DUP4 MSTORE SWAP2 PUSH1 0x20 ADD SWAP2 PUSH2 0x27BA JUMP JUMPDEST DUP3 ADD SWAP2 SWAP1 PUSH1 0x0 MSTORE PUSH1 0x20 PUSH1 0x0 KECCAK256 SWAP1 JUMPDEST DUP2 SLOAD DUP2 MSTORE SWAP1 PUSH1 0x1 ADD SWAP1 PUSH1 0x20 ADD DUP1 DUP4 GT PUSH2 0x279D JUMPI DUP3 SWAP1 SUB PUSH1 0x1F AND DUP3 ADD SWAP2 JUMPDEST POP POP POP POP POP SWAP1 DUP1 PUSH1 0x5 ADD DUP1 SLOAD PUSH2 0x27CF SWAP1 PUSH2 0x3E5B JUMP JUMPDEST DUP1 PUSH1 0x1F ADD PUSH1 0x20 DUP1 SWAP2 DIV MUL PUSH1 0x20 ADD PUSH1 0x40 MLOAD SWAP1 DUP2 ADD PUSH1 0x40 MSTORE DUP1 SWAP3 SWAP2 SWAP1 DUP2 DUP2 MSTORE PUSH1 0x20 ADD DUP3 DUP1 SLOAD PUSH2 0x27FB SWAP1 PUSH2 0x3E5B JUMP JUMPDEST DUP1 ISZERO PUSH2 0x2848 JUMPI DUP1 PUSH1 0x1F LT PUSH2 0x281D JUMPI PUSH2 0x100 DUP1 DUP4 SLOAD DIV MUL DUP4 MSTORE SWAP2 PUSH1 0x20 ADD SWAP2 PUSH2 0x2848 JUMP JUMPDEST DUP3 ADD SWAP2 SWAP1 PUSH1 0x0 MSTORE PUSH1 0x20 PUSH1 0x0 KECCAK256 SWAP1 JUMPDEST DUP2 SLOAD DUP2 MSTORE SWAP1 PUSH1 0x1 ADD SWAP1 PUSH1 0x20 ADD DUP1 DUP4 GT PUSH2 0x282B JUMPI DUP3 SWAP1 SUB PUSH1 0x1F AND DUP3 ADD SWAP2 JUMPDEST POP POP POP POP POP SWAP1 DUP1 PUSH1 0x6 ADD DUP1 SLOAD PUSH2 0x285D SWAP1 PUSH2 0x3E5B JUMP JUMPDEST DUP1 PUSH1 0x1F ADD PUSH1 0x20 DUP1 SWAP2 DIV MUL PUSH1 0x20 ADD PUSH1 0x40 MLOAD SWAP1 DUP2 ADD PUSH1 0x40 MSTORE DUP1 SWAP3 SWAP2 SWAP1 DUP2 DUP2 MSTORE PUSH1 0x20 ADD DUP3 DUP1 SLOAD PUSH2 0x2889 SWAP1 PUSH2 0x3E5B JUMP JUMPDEST DUP1 ISZERO PUSH2 0x28D6 JUMPI DUP1 PUSH1 0x1F LT PUSH2 0x28AB JUMPI PUSH2 0x100 DUP1 DUP4 SLOAD DIV MUL DUP4 MSTORE SWAP2 PUSH1 0x20 ADD SWAP2 PUSH2 0x28D6 JUMP JUMPDEST DUP3 ADD SWAP2 SWAP1 PUSH1 0x0 MSTORE PUSH1 0x20 PUSH1 0x0 KECCAK256 SWAP1 JUMPDEST DUP2 SLOAD DUP2 MSTORE SWAP1 PUSH1 0x1 ADD SWAP1 PUSH1 0x20 ADD DUP1 DUP4 GT PUSH2 0x28B9 JUMPI DUP3 SWAP1 SUB PUSH1 0x1F AND DUP3 ADD SWAP2 JUMPDEST POP POP POP POP POP SWAP1 DUP1 PUSH1 0x7 ADD PUSH1 0x0 SWAP1 SLOAD SWAP1 PUSH2 0x100 EXP SWAP1 DIV PUSH1 0xFF AND SWAP1 POP DUP9 JUMP JUMPDEST PUSH2 0x28FB PUSH2 0x2E93 JUMP JUMPDEST PUSH1 0x3 DUP3 PUSH1 0x40 MLOAD PUSH2 0x290B SWAP2 SWAP1 PUSH2 0x3EC8 JUMP JUMPDEST SWAP1 DUP2 MSTORE PUSH1 0x20 ADD PUSH1 0x40 MLOAD DUP1 SWAP2 SUB SWAP1 KECCAK256 PUSH1 0x7 ADD PUSH1 0x0 SWAP1 SLOAD SWAP1 PUSH2 0x100 EXP SWAP1 DIV PUSH1 0xFF AND PUSH2 0x2969 JUMPI PUSH1 0x40 MLOAD PUSH32 0x8C379A000000000000000000000000000000000000000000000000000000000 DUP2 MSTORE PUSH1 0x4 ADD PUSH2 0x2960 SWAP1 PUSH2 0x47C4 JUMP JUMPDEST PUSH1 0x40 MLOAD DUP1 SWAP2 SUB SWAP1 REVERT JUMPDEST PUSH1 0x3 DUP3 PUSH1 0x40 MLOAD PUSH2 0x2979 SWAP2 SWAP1 PUSH2 0x3EC8 JUMP JUMPDEST SWAP1 DUP2 MSTORE PUSH1 0x20 ADD PUSH1 0x40 MLOAD DUP1 SWAP2 SUB SWAP1 KECCAK256 PUSH1 0x40 MLOAD DUP1 PUSH2 0x100 ADD PUSH1 0x40 MSTORE SWAP1 DUP2 PUSH1 0x0 DUP3 ADD DUP1 SLOAD PUSH2 0x29A3 SWAP1 PUSH2 0x3E5B JUMP JUMPDEST DUP1 PUSH1 0x1F ADD PUSH1 0x20 DUP1 SWAP2 DIV MUL PUSH1 0x20 ADD PUSH1 0x40 MLOAD SWAP1 DUP2 ADD PUSH1 0x40 MSTORE DUP1 SWAP3 SWAP2 SWAP1 DUP2 DUP2 MSTORE PUSH1 0x20 ADD DUP3 DUP1 SLOAD PUSH2 0x29CF SWAP1 PUSH2 0x3E5B JUMP JUMPDEST DUP1 ISZERO PUSH2 0x2A1C JUMPI DUP1 PUSH1 0x1F LT PUSH2 0x29F1 JUMPI PUSH2 0x100 DUP1 DUP4 SLOAD DIV MUL DUP4 MSTORE SWAP2 PUSH1 0x20 ADD SWAP2 PUSH2 0x2A1C JUMP JUMPDEST DUP3 ADD SWAP2 SWAP1 PUSH1 0x0 MSTORE PUSH1 0x20 PUSH1 0x0 KECCAK256 SWAP1 JUMPDEST DUP2 SLOAD DUP2 MSTORE SWAP1 PUSH1 0x1 ADD SWAP1 PUSH1 0x20 ADD DUP1 DUP4 GT PUSH2 0x29FF JUMPI DUP3 SWAP1 SUB PUSH1 0x1F AND DUP3 ADD SWAP2 JUMPDEST POP POP POP POP POP DUP2 MSTORE PUSH1 0x20 ADD PUSH1 0x1 DUP3 ADD DUP1 SLOAD PUSH2 0x2A35 SWAP1 PUSH2 0x3E5B JUMP JUMPDEST DUP1 PUSH1 0x1F ADD PUSH1 0x20 DUP1 SWAP2 DIV MUL PUSH1 0x20 ADD PUSH1 0x40 MLOAD SWAP1 DUP2 ADD PUSH1 0x40 MSTORE DUP1 SWAP3 SWAP2 SWAP1 DUP2 DUP2 MSTORE PUSH1 0x20 ADD DUP3 DUP1 SLOAD PUSH2 0x2A61 SWAP1 PUSH2 0x3E5B JUMP JUMPDEST DUP1 ISZERO PUSH2 0x2AAE JUMPI DUP1 PUSH1 0x1F LT PUSH2 0x2A83 JUMPI PUSH2 0x100 DUP1 DUP4 SLOAD DIV MUL DUP4 MSTORE SWAP2 PUSH1 0x20 ADD SWAP2 PUSH2 0x2AAE JUMP JUMPDEST DUP3 ADD SWAP2 SWAP1 PUSH1 0x0 MSTORE PUSH1 0x20 PUSH1 0x0 KECCAK256 SWAP1 JUMPDEST DUP2 SLOAD DUP2 MSTORE SWAP1 PUSH1 0x1 ADD SWAP1 PUSH1 0x20 ADD DUP1 DUP4 GT PUSH2 0x2A91 JUMPI DUP3 SWAP1 SUB PUSH1 0x1F AND DUP3 ADD SWAP2 JUMPDEST POP POP POP POP POP DUP2 MSTORE PUSH1 0x20 ADD PUSH1 0x2 DUP3 ADD DUP1 SLOAD PUSH2 0x2AC7 SWAP1 PUSH2 0x3E5B JUMP JUMPDEST DUP1 PUSH1 0x1F ADD PUSH1 0x20 DUP1 SWAP2 DIV MUL PUSH1 0x20 ADD PUSH1 0x40 MLOAD SWAP1 DUP2 ADD PUSH1 0x40 MSTORE DUP1 SWAP3 SWAP2 SWAP1 DUP2 DUP2 MSTORE PUSH1 0x20 ADD DUP3 DUP1 SLOAD PUSH2 0x2AF3 SWAP1 PUSH2 0x3E5B JUMP JUMPDEST DUP1 ISZERO PUSH2 0x2B40 JUMPI DUP1 PUSH1 0x1F LT PUSH2 0x2B15 JUMPI PUSH2 0x100 DUP1 DUP4 SLOAD DIV MUL DUP4 MSTORE SWAP2 PUSH1 0x20 ADD SWAP2 PUSH2 0x2B40 JUMP JUMPDEST DUP3 ADD SWAP2 SWAP1 PUSH1 0x0 MSTORE PUSH1 0x20 PUSH1 0x0 KECCAK256 SWAP1 JUMPDEST DUP2 SLOAD DUP2 MSTORE SWAP1 PUSH1 0x1 ADD SWAP1 PUSH1 0x20 ADD DUP1 DUP4 GT PUSH2 0x2B23 JUMPI DUP3 SWAP1 SUB PUSH1 0x1F AND DUP3 ADD SWAP2 JUMPDEST POP POP POP POP POP DUP2 MSTORE PUSH1 0x20 ADD PUSH1 0x3 DUP3 ADD DUP1 SLOAD PUSH2 0x2B59 SWAP1 PUSH2 0x3E5B JUMP JUMPDEST DUP1 PUSH1 0x1F ADD PUSH1 0x20 DUP1 SWAP2 DIV MUL PUSH1 0x20 ADD PUSH1 0x40 MLOAD SWAP1 DUP2 ADD PUSH1 0x40 MSTORE DUP1 SWAP3 SWAP2 SWAP1 DUP2 DUP2 MSTORE PUSH1 0x20 ADD DUP3 DUP1 SLOAD PUSH2 0x2B85 SWAP1 PUSH2 0x3E5B JUMP JUMPDEST DUP1 ISZERO PUSH2 0x2BD2 JUMPI DUP1 PUSH1 0x1F LT PUSH2 0x2BA7 JUMPI PUSH2 0x100 DUP1 DUP4 SLOAD DIV MUL DUP4 MSTORE SWAP2 PUSH1 0x20 ADD SWAP2 PUSH2 0x2BD2 JUMP JUMPDEST DUP3 ADD SWAP2 SWAP1 PUSH1 0x0 MSTORE PUSH1 0x20 PUSH1 0x0 KECCAK256 SWAP1 JUMPDEST DUP2 SLOAD DUP2 MSTORE SWAP1 PUSH1 0x1 ADD SWAP1 PUSH1 0x20 ADD DUP1 DUP4 GT PUSH2 0x2BB5 JUMPI DUP3 SWAP1 SUB PUSH1 0x1F AND DUP3 ADD SWAP2 JUMPDEST POP POP POP POP POP DUP2 MSTORE PUSH1 0x20 ADD PUSH1 0x4 DUP3 ADD DUP1 SLOAD PUSH2 0x2BEB SWAP1 PUSH2 0x3E5B JUMP JUMPDEST DUP1 PUSH1 0x1F ADD PUSH1 0x20 DUP1 SWAP2 DIV MUL PUSH1 0x20 ADD PUSH1 0x40 MLOAD SWAP1 DUP2 ADD PUSH1 0x40 MSTORE DUP1 SWAP3 SWAP2 SWAP1 DUP2 DUP2 MSTORE PUSH1 0x20 ADD DUP3 DUP1 SLOAD PUSH2 0x2C17 SWAP1 PUSH2 0x3E5B JUMP JUMPDEST DUP1 ISZERO PUSH2 0x2C64 JUMPI DUP1 PUSH1 0x1F LT PUSH2 0x2C39 JUMPI PUSH2 0x100 DUP1 DUP4 SLOAD DIV MUL DUP4 MSTORE SWAP2 PUSH1 0x20 ADD SWAP2 PUSH2 0x2C64 JUMP JUMPDEST DUP3 ADD SWAP2 SWAP1 PUSH1 0x0 MSTORE PUSH1 0x20 PUSH1 0x0 KECCAK256 SWAP1 JUMPDEST DUP2 SLOAD DUP2 MSTORE SWAP1 PUSH1 0x1 ADD SWAP1 PUSH1 0x20 ADD DUP1 DUP4 GT PUSH2 0x2C47 JUMPI DUP3 SWAP1 SUB PUSH1 0x1F AND DUP3 ADD SWAP2 JUMPDEST POP POP POP POP POP DUP2 MSTORE PUSH1 0x20 ADD PUSH1 0x5 DUP3 ADD DUP1 SLOAD PUSH2 0x2C7D SWAP1 PUSH2 0x3E5B JUMP JUMPDEST DUP1 PUSH1 0x1F ADD PUSH1 0x20 DUP1 SWAP2 DIV MUL PUSH1 0x20 ADD PUSH1 0x40 MLOAD SWAP1 DUP2 ADD PUSH1 0x40 MSTORE DUP1 SWAP3 SWAP2 SWAP1 DUP2 DUP2 MSTORE PUSH1 0x20 ADD DUP3 DUP1 SLOAD PUSH2 0x2CA9 SWAP1 PUSH2 0x3E5B JUMP JUMPDEST DUP1 ISZERO PUSH2 0x2CF6 JUMPI DUP1 PUSH1 0x1F LT PUSH2 0x2CCB JUMPI PUSH2 0x100 DUP1 DUP4 SLOAD DIV MUL DUP4 MSTORE SWAP2 PUSH1 0x20 ADD SWAP2 PUSH2 0x2CF6 JUMP JUMPDEST DUP3 ADD SWAP2 SWAP1 PUSH1 0x0 MSTORE PUSH1 0x20 PUSH1 0x0 KECCAK256 SWAP1 JUMPDEST DUP2 SLOAD DUP2 MSTORE SWAP1 PUSH1 0x1 ADD SWAP1 PUSH1 0x20 ADD DUP1 DUP4 GT PUSH2 0x2CD9 JUMPI DUP3 SWAP1 SUB PUSH1 0x1F AND DUP3 ADD SWAP2 JUMPDEST POP POP POP POP POP DUP2 MSTORE PUSH1 0x20 ADD PUSH1 0x6 DUP3 ADD DUP1 SLOAD PUSH2 0x2D0F SWAP1 PUSH2 0x3E5B JUMP JUMPDEST DUP1 PUSH1 0x1F ADD PUSH1 0x20 DUP1 SWAP2 DIV MUL PUSH1 0x20 ADD PUSH1 0x40 MLOAD SWAP1 DUP2 ADD PUSH1 0x40 MSTORE DUP1 SWAP3 SWAP2 SWAP1 DUP2 DUP2 MSTORE PUSH1 0x20 ADD DUP3 DUP1 SLOAD PUSH2 0x2D3B SWAP1 PUSH2 0x3E5B JUMP JUMPDEST DUP1 ISZERO PUSH2 0x2D88 JUMPI DUP1 PUSH1 0x1F LT PUSH2 0x2D5D JUMPI PUSH2 0x100 DUP1 DUP4 SLOAD DIV MUL DUP4 MSTORE SWAP2 PUSH1 0x20 ADD SWAP2 PUSH2 0x2D88 JUMP JUMPDEST DUP3 ADD SWAP2 SWAP1 PUSH1 0x0 MSTORE PUSH1 0x20 PUSH1 0x0 KECCAK256 SWAP1 JUMPDEST DUP2 SLOAD DUP2 MSTORE SWAP1 PUSH1 0x1 ADD SWAP1 PUSH1 0x20 ADD DUP1 DUP4 GT PUSH2 0x2D6B JUMPI DUP3 SWAP1 SUB PUSH1 0x1F AND DUP3 ADD SWAP2 JUMPDEST POP POP POP POP POP DUP2 MSTORE PUSH1 0x20 ADD PUSH1 0x7 DUP3 ADD PUSH1 0x0 SWAP1 SLOAD SWAP1 PUSH2 0x100 EXP SWAP1 DIV PUSH1 0xFF AND ISZERO ISZERO ISZERO ISZERO DUP2 MSTORE POP POP SWAP1 POP SWAP2 SWAP1 POP JUMP JUMPDEST PUSH1 0x40 MLOAD DUP1 PUSH1 0xE0 ADD PUSH1 0x40 MSTORE DUP1 PUSH1 0x60 DUP2 MSTORE PUSH1 0x20 ADD PUSH1 0x60 DUP2 MSTORE PUSH1 0x20 ADD PUSH1 0x60 DUP2 MSTORE PUSH1 0x20 ADD PUSH1 0x60 DUP2 MSTORE PUSH1 0x20 ADD PUSH1 0x0 DUP2 MSTORE PUSH1 0x20 ADD PUSH1 0x0 ISZERO ISZERO DUP2 MSTORE PUSH1 0x20 ADD PUSH1 0x0 ISZERO ISZERO DUP2 MSTORE POP SWAP1 JUMP JUMPDEST PUSH1 0x40 MLOAD DUP1 PUSH1 0xE0 ADD PUSH1 0x40 MSTORE DUP1 PUSH1 0x60 DUP2 MSTORE PUSH1 0x20 ADD PUSH1 0x60 DUP2 MSTORE PUSH1 0x20 ADD PUSH1 0x60 DUP2 MSTORE PUSH1 0x20 ADD PUSH1 0x60 DUP2 MSTORE PUSH1 0x20 ADD PUSH1 0x60 DUP2 MSTORE PUSH1 0x20 ADD PUSH1 0x0 PUSH1 0x3 DUP2 GT ISZERO PUSH2 0x2E36 JUMPI PUSH2 0x2E35 PUSH2 0x34BF JUMP JUMPDEST JUMPDEST DUP2 MSTORE PUSH1 0x20 ADD PUSH1 0x0 ISZERO ISZERO DUP2 MSTORE POP SWAP1 JUMP JUMPDEST PUSH1 0x40 MLOAD DUP1 PUSH2 0x120 ADD PUSH1 0x40 MSTORE DUP1 PUSH1 0x60 DUP2 MSTORE PUSH1 0x20 ADD PUSH1 0x60 DUP2 MSTORE PUSH1 0x20 ADD PUSH1 0x60 DUP2 MSTORE PUSH1 0x20 ADD PUSH1 0x60 DUP2 MSTORE PUSH1 0x20 ADD PUSH1 0x0 DUP2 MSTORE PUSH1 0x20 ADD PUSH1 0x0 DUP2 MSTORE PUSH1 0x20 ADD PUSH1 0x0 DUP2 MSTORE PUSH1 0x20 ADD PUSH1 0x0 DUP2 MSTORE PUSH1 0x20 ADD PUSH1 0x0 ISZERO ISZERO DUP2 MSTORE POP SWAP1 JUMP JUMPDEST PUSH1 0x40 MLOAD DUP1 PUSH2 0x100 ADD PUSH1 0x40 MSTORE DUP1 PUSH1 0x60 DUP2 MSTORE PUSH1 0x20 ADD PUSH1 0x60 DUP2 MSTORE PUSH1 0x20 ADD PUSH1 0x60 DUP2 MSTORE PUSH1 0x20 ADD PUSH1 0x60 DUP2 MSTORE PUSH1 0x20 ADD PUSH1 0x60 DUP2 MSTORE PUSH1 0x20 ADD PUSH1 0x60 DUP2 MSTORE PUSH1 0x20 ADD PUSH1 0x60 DUP2 MSTORE PUSH1 0x20 ADD PUSH1 0x0 ISZERO ISZERO DUP2 MSTORE POP SWAP1 JUMP JUMPDEST PUSH1 0x0 PUSH1 0x40 MLOAD SWAP1 POP SWAP1 JUMP JUMPDEST PUSH1 0x0 DUP1 REVERT JUMPDEST PUSH1 0x0 DUP1 REVERT JUMPDEST PUSH1 0x0 DUP1 REVERT JUMPDEST PUSH1 0x0 DUP1 REVERT JUMPDEST PUSH1 0x0 PUSH1 0x1F NOT PUSH1 0x1F DUP4 ADD AND SWAP1 POP SWAP2 SWAP1 POP JUMP JUMPDEST PUSH32 0x4E487B7100000000000000000000000000000000000000000000000000000000 PUSH1 0x0 MSTORE PUSH1 0x41 PUSH1 0x4 MSTORE PUSH1 0x24 PUSH1 0x0 REVERT JUMPDEST PUSH2 0x2F41 DUP3 PUSH2 0x2EF8 JUMP JUMPDEST DUP2 ADD DUP2 DUP2 LT PUSH8 0xFFFFFFFFFFFFFFFF DUP3 GT OR ISZERO PUSH2 0x2F60 JUMPI PUSH2 0x2F5F PUSH2 0x2F09 JUMP JUMPDEST JUMPDEST DUP1 PUSH1 0x40 MSTORE POP POP POP JUMP JUMPDEST PUSH1 0x0 PUSH2 0x2F73 PUSH2 0x2EDA JUMP JUMPDEST SWAP1 POP PUSH2 0x2F7F DUP3 DUP3 PUSH2 0x2F38 JUMP JUMPDEST SWAP2 SWAP1 POP JUMP JUMPDEST PUSH1 0x0 PUSH8 0xFFFFFFFFFFFFFFFF DUP3 GT ISZERO PUSH2 0x2F9F JUMPI PUSH2 0x2F9E PUSH2 0x2F09 JUMP JUMPDEST JUMPDEST PUSH2 0x2FA8 DUP3 PUSH2 0x2EF8 JUMP JUMPDEST SWAP1 POP PUSH1 0x20 DUP2 ADD SWAP1 POP SWAP2 SWAP1 POP JUMP JUMPDEST DUP3 DUP2 DUP4 CALLDATACOPY PUSH1 0x0 DUP4 DUP4 ADD MSTORE POP POP POP JUMP JUMPDEST PUSH1 0x0 PUSH2 0x2FD7 PUSH2 0x2FD2 DUP5 PUSH2 0x2F84 JUMP JUMPDEST PUSH2 0x2F69 JUMP JUMPDEST SWAP1 POP DUP3 DUP2 MSTORE PUSH1 0x20 DUP2 ADD DUP5 DUP5 DUP5 ADD GT ISZERO PUSH2 0x2FF3 JUMPI PUSH2 0x2FF2 PUSH2 0x2EF3 JUMP JUMPDEST JUMPDEST PUSH2 0x2FFE DUP5 DUP3 DUP6 PUSH2 0x2FB5 JUMP JUMPDEST POP SWAP4 SWAP3 POP POP POP JUMP JUMPDEST PUSH1 0x0 DUP3 PUSH1 0x1F DUP4 ADD SLT PUSH2 0x301B JUMPI PUSH2 0x301A PUSH2 0x2EEE JUMP JUMPDEST JUMPDEST DUP2 CALLDATALOAD PUSH2 0x302B DUP5 DUP3 PUSH1 0x20 DUP7 ADD PUSH2 0x2FC4 JUMP JUMPDEST SWAP2 POP POP SWAP3 SWAP2 POP POP JUMP JUMPDEST PUSH1 0x0 PUSH1 0x20 DUP3 DUP5 SUB SLT ISZERO PUSH2 0x304A JUMPI PUSH2 0x3049 PUSH2 0x2EE4 JUMP JUMPDEST JUMPDEST PUSH1 0x0 DUP3 ADD CALLDATALOAD PUSH8 0xFFFFFFFFFFFFFFFF DUP2 GT ISZERO PUSH2 0x3068 JUMPI PUSH2 0x3067 PUSH2 0x2EE9 JUMP JUMPDEST JUMPDEST PUSH2 0x3074 DUP5 DUP3 DUP6 ADD PUSH2 0x3006 JUMP JUMPDEST SWAP2 POP POP SWAP3 SWAP2 POP POP JUMP JUMPDEST PUSH1 0x0 DUP2 MLOAD SWAP1 POP SWAP2 SWAP1 POP JUMP JUMPDEST PUSH1 0x0 DUP3 DUP3 MSTORE PUSH1 0x20 DUP3 ADD SWAP1 POP SWAP3 SWAP2 POP POP JUMP JUMPDEST PUSH1 0x0 JUMPDEST DUP4 DUP2 LT ISZERO PUSH2 0x30B7 JUMPI DUP1 DUP3 ADD MLOAD DUP2 DUP5 ADD MSTORE PUSH1 0x20 DUP2 ADD SWAP1 POP PUSH2 0x309C JUMP JUMPDEST PUSH1 0x0 DUP5 DUP5 ADD MSTORE POP POP POP POP JUMP JUMPDEST PUSH1 0x0 PUSH2 0x30CE DUP3 PUSH2 0x307D JUMP JUMPDEST PUSH2 0x30D8 DUP2 DUP6 PUSH2 0x3088 JUMP JUMPDEST SWAP4 POP PUSH2 0x30E8 DUP2 DUP6 PUSH1 0x20 DUP7 ADD PUSH2 0x3099 JUMP JUMPDEST PUSH2 0x30F1 DUP2 PUSH2 0x2EF8 JUMP JUMPDEST DUP5 ADD SWAP2 POP POP SWAP3 SWAP2 POP POP JUMP JUMPDEST PUSH1 0x0 DUP2 SWAP1 POP SWAP2 SWAP1 POP JUMP JUMPDEST PUSH2 0x310F DUP2 PUSH2 0x30FC JUMP JUMPDEST DUP3 MSTORE POP POP JUMP JUMPDEST PUSH1 0x0 DUP2 ISZERO ISZERO SWAP1 POP SWAP2 SWAP1 POP JUMP JUMPDEST PUSH2 0x312A DUP2 PUSH2 0x3115 JUMP JUMPDEST DUP3 MSTORE POP POP JUMP JUMPDEST PUSH1 0x0 PUSH1 0xE0 DUP3 ADD SWAP1 POP DUP2 DUP2 SUB PUSH1 0x0 DUP4 ADD MSTORE PUSH2 0x314A DUP2 DUP11 PUSH2 0x30C3 JUMP JUMPDEST SWAP1 POP DUP2 DUP2 SUB PUSH1 0x20 DUP4 ADD MSTORE PUSH2 0x315E DUP2 DUP10 PUSH2 0x30C3 JUMP JUMPDEST SWAP1 POP DUP2 DUP2 SUB PUSH1 0x40 DUP4 ADD MSTORE PUSH2 0x3172 DUP2 DUP9 PUSH2 0x30C3 JUMP JUMPDEST SWAP1 POP DUP2 DUP2 SUB PUSH1 0x60 DUP4 ADD MSTORE PUSH2 0x3186 DUP2 DUP8 PUSH2 0x30C3 JUMP JUMPDEST SWAP1 POP PUSH2 0x3195 PUSH1 0x80 DUP4 ADD DUP7 PUSH2 0x3106 JUMP JUMPDEST PUSH2 0x31A2 PUSH1 0xA0 DUP4 ADD DUP6 PUSH2 0x3121 JUMP JUMPDEST PUSH2 0x31AF PUSH1 0xC0 DUP4 ADD DUP5 PUSH2 0x3121 JUMP JUMPDEST SWAP9 SWAP8 POP POP POP POP POP POP POP POP JUMP JUMPDEST PUSH1 0x0 DUP3 DUP3 MSTORE PUSH1 0x20 DUP3 ADD SWAP1 POP SWAP3 SWAP2 POP POP JUMP JUMPDEST PUSH1 0x0 PUSH2 0x31D7 DUP3 PUSH2 0x307D JUMP JUMPDEST PUSH2 0x31E1 DUP2 DUP6 PUSH2 0x31BB JUMP JUMPDEST SWAP4 POP PUSH2 0x31F1 DUP2 DUP6 PUSH1 0x20 DUP7 ADD PUSH2 0x3099 JUMP JUMPDEST PUSH2 0x31FA DUP2 PUSH2 0x2EF8 JUMP JUMPDEST DUP5 ADD SWAP2 POP POP SWAP3 SWAP2 POP POP JUMP JUMPDEST PUSH2 0x320E DUP2 PUSH2 0x30FC JUMP JUMPDEST DUP3 MSTORE POP POP JUMP JUMPDEST PUSH2 0x321D DUP2 PUSH2 0x3115 JUMP JUMPDEST DUP3 MSTORE POP POP JUMP JUMPDEST PUSH1 0x0 PUSH1 0xE0 DUP4 ADD PUSH1 0x0 DUP4 ADD MLOAD DUP5 DUP3 SUB PUSH1 0x0 DUP7 ADD MSTORE PUSH2 0x3240 DUP3 DUP3 PUSH2 0x31CC JUMP JUMPDEST SWAP2 POP POP PUSH1 0x20 DUP4 ADD MLOAD DUP5 DUP3 SUB PUSH1 0x20 DUP7 ADD MSTORE PUSH2 0x325A DUP3 DUP3 PUSH2 0x31CC JUMP JUMPDEST SWAP2 POP POP PUSH1 0x40 DUP4 ADD MLOAD DUP5 DUP3 SUB PUSH1 0x40 DUP7 ADD MSTORE PUSH2 0x3274 DUP3 DUP3 PUSH2 0x31CC JUMP JUMPDEST SWAP2 POP POP PUSH1 0x60 DUP4 ADD MLOAD DUP5 DUP3 SUB PUSH1 0x60 DUP7 ADD MSTORE PUSH2 0x328E DUP3 DUP3 PUSH2 0x31CC JUMP JUMPDEST SWAP2 POP POP PUSH1 0x80 DUP4 ADD MLOAD PUSH2 0x32A3 PUSH1 0x80 DUP7 ADD DUP3 PUSH2 0x3205 JUMP JUMPDEST POP PUSH1 0xA0 DUP4 ADD MLOAD PUSH2 0x32B6 PUSH1 0xA0 DUP7 ADD DUP3 PUSH2 0x3214 JUMP JUMPDEST POP PUSH1 0xC0 DUP4 ADD MLOAD PUSH2 0x32C9 PUSH1 0xC0 DUP7 ADD DUP3 PUSH2 0x3214 JUMP JUMPDEST POP DUP1 SWAP2 POP POP SWAP3 SWAP2 POP POP JUMP JUMPDEST PUSH1 0x0 PUSH1 0x20 DUP3 ADD SWAP1 POP DUP2 DUP2 SUB PUSH1 0x0 DUP4 ADD MSTORE PUSH2 0x32EE DUP2 DUP5 PUSH2 0x3223 JUMP JUMPDEST SWAP1 POP SWAP3 SWAP2 POP POP JUMP JUMPDEST PUSH1 0x4 DUP2 LT PUSH2 0x3303 JUMPI PUSH1 0x0 DUP1 REVERT JUMPDEST POP JUMP JUMPDEST PUSH1 0x0 DUP2 CALLDATALOAD SWAP1 POP PUSH2 0x3315 DUP2 PUSH2 0x32F6 JUMP JUMPDEST SWAP3 SWAP2 POP POP JUMP JUMPDEST PUSH1 0x0 DUP1 PUSH1 0x0 DUP1 PUSH1 0x0 DUP1 PUSH1 0xC0 DUP8 DUP10 SUB SLT ISZERO PUSH2 0x3338 JUMPI PUSH2 0x3337 PUSH2 0x2EE4 JUMP JUMPDEST JUMPDEST PUSH1 0x0 DUP8 ADD CALLDATALOAD PUSH8 0xFFFFFFFFFFFFFFFF DUP2 GT ISZERO PUSH2 0x3356 JUMPI PUSH2 0x3355 PUSH2 0x2EE9 JUMP JUMPDEST JUMPDEST PUSH2 0x3362 DUP10 DUP3 DUP11 ADD PUSH2 0x3006 JUMP JUMPDEST SWAP7 POP POP PUSH1 0x20 DUP8 ADD CALLDATALOAD PUSH8 0xFFFFFFFFFFFFFFFF DUP2 GT ISZERO PUSH2 0x3383 JUMPI PUSH2 0x3382 PUSH2 0x2EE9 JUMP JUMPDEST JUMPDEST PUSH2 0x338F DUP10 DUP3 DUP11 ADD PUSH2 0x3006 JUMP JUMPDEST SWAP6 POP POP PUSH1 0x40 DUP8 ADD CALLDATALOAD PUSH8 0xFFFFFFFFFFFFFFFF DUP2 GT ISZERO PUSH2 0x33B0 JUMPI PUSH2 0x33AF PUSH2 0x2EE9 JUMP JUMPDEST JUMPDEST PUSH2 0x33BC DUP10 DUP3 DUP11 ADD PUSH2 0x3006 JUMP JUMPDEST SWAP5 POP POP PUSH1 0x60 DUP8 ADD CALLDATALOAD PUSH8 0xFFFFFFFFFFFFFFFF DUP2 GT ISZERO PUSH2 0x33DD JUMPI PUSH2 0x33DC PUSH2 0x2EE9 JUMP JUMPDEST JUMPDEST PUSH2 0x33E9 DUP10 DUP3 DUP11 ADD PUSH2 0x3006 JUMP JUMPDEST SWAP4 POP POP PUSH1 0x80 DUP8 ADD CALLDATALOAD PUSH8 0xFFFFFFFFFFFFFFFF DUP2 GT ISZERO PUSH2 0x340A JUMPI PUSH2 0x3409 PUSH2 0x2EE9 JUMP JUMPDEST JUMPDEST PUSH2 0x3416 DUP10 DUP3 DUP11 ADD PUSH2 0x3006 JUMP JUMPDEST SWAP3 POP POP PUSH1 0xA0 PUSH2 0x3427 DUP10 DUP3 DUP11 ADD PUSH2 0x3306 JUMP JUMPDEST SWAP2 POP POP SWAP3 SWAP6 POP SWAP3 SWAP6 POP SWAP3 SWAP6 JUMP JUMPDEST PUSH1 0x0 PUSH20 0xFFFFFFFFFFFFFFFFFFFFFFFFFFFFFFFFFFFFFFFF DUP3 AND SWAP1 POP SWAP2 SWAP1 POP JUMP JUMPDEST PUSH1 0x0 PUSH2 0x345F DUP3 PUSH2 0x3434 JUMP JUMPDEST SWAP1 POP SWAP2 SWAP1 POP JUMP JUMPDEST PUSH2 0x346F DUP2 PUSH2 0x3454 JUMP JUMPDEST DUP2 EQ PUSH2 0x347A JUMPI PUSH1 0x0 DUP1 REVERT JUMPDEST POP JUMP JUMPDEST PUSH1 0x0 DUP2 CALLDATALOAD SWAP1 POP PUSH2 0x348C DUP2 PUSH2 0x3466 JUMP JUMPDEST SWAP3 SWAP2 POP POP JUMP JUMPDEST PUSH1 0x0 PUSH1 0x20 DUP3 DUP5 SUB SLT ISZERO PUSH2 0x34A8 JUMPI PUSH2 0x34A7 PUSH2 0x2EE4 JUMP JUMPDEST JUMPDEST PUSH1 0x0 PUSH2 0x34B6 DUP5 DUP3 DUP6 ADD PUSH2 0x347D JUMP JUMPDEST SWAP2 POP POP SWAP3 SWAP2 POP POP JUMP JUMPDEST PUSH32 0x4E487B7100000000000000000000000000000000000000000000000000000000 PUSH1 0x0 MSTORE PUSH1 0x21 PUSH1 0x4 MSTORE PUSH1 0x24 PUSH1 0x0 REVERT JUMPDEST PUSH1 0x4 DUP2 LT PUSH2 0x34FF JUMPI PUSH2 0x34FE PUSH2 0x34BF JUMP JUMPDEST JUMPDEST POP JUMP JUMPDEST PUSH1 0x0 DUP2 SWAP1 POP PUSH2 0x3510 DUP3 PUSH2 0x34EE JUMP JUMPDEST SWAP2 SWAP1 POP JUMP JUMPDEST PUSH1 0x0 PUSH2 0x3520 DUP3 PUSH2 0x3502 JUMP JUMPDEST SWAP1 POP SWAP2 SWAP1 POP JUMP JUMPDEST PUSH2 0x3530 DUP2 PUSH2 0x3515 JUMP JUMPDEST DUP3 MSTORE POP POP JUMP JUMPDEST PUSH1 0x0 PUSH1 0xE0 DUP4 ADD PUSH1 0x0 DUP4 ADD MLOAD DUP5 DUP3 SUB PUSH1 0x0 DUP7 ADD MSTORE PUSH2 0x3553 DUP3 DUP3 PUSH2 0x31CC JUMP JUMPDEST SWAP2 POP POP PUSH1 0x20 DUP4 ADD MLOAD DUP5 DUP3 SUB PUSH1 0x20 DUP7 ADD MSTORE PUSH2 0x356D DUP3 DUP3 PUSH2 0x31CC JUMP JUMPDEST SWAP2 POP POP PUSH1 0x40 DUP4 ADD MLOAD DUP5 DUP3 SUB PUSH1 0x40 DUP7 ADD MSTORE PUSH2 0x3587 DUP3 DUP3 PUSH2 0x31CC JUMP JUMPDEST SWAP2 POP POP PUSH1 0x60 DUP4 ADD MLOAD DUP5 DUP3 SUB PUSH1 0x60 DUP7 ADD MSTORE PUSH2 0x35A1 DUP3 DUP3 PUSH2 0x31CC JUMP JUMPDEST SWAP2 POP POP PUSH1 0x80 DUP4 ADD MLOAD DUP5 DUP3 SUB PUSH1 0x80 DUP7 ADD MSTORE PUSH2 0x35BB DUP3 DUP3 PUSH2 0x31CC JUMP JUMPDEST SWAP2 POP POP PUSH1 0xA0 DUP4 ADD MLOAD PUSH2 0x35D0 PUSH1 0xA0 DUP7 ADD DUP3 PUSH2 0x3527 JUMP JUMPDEST POP PUSH1 0xC0 DUP4 ADD MLOAD PUSH2 0x35E3 PUSH1 0xC0 DUP7 ADD DUP3 PUSH2 0x3214 JUMP JUMPDEST POP DUP1 SWAP2 POP POP SWAP3 SWAP2 POP POP JUMP JUMPDEST PUSH1 0x0 PUSH1 0x20 DUP3 ADD SWAP1 POP DUP2 DUP2 SUB PUSH1 0x0 DUP4 ADD MSTORE PUSH2 0x3608 DUP2 DUP5 PUSH2 0x3536 JUMP JUMPDEST SWAP1 POP SWAP3 SWAP2 POP POP JUMP JUMPDEST PUSH1 0x0 PUSH2 0x120 DUP4 ADD PUSH1 0x0 DUP4 ADD MLOAD DUP5 DUP3 SUB PUSH1 0x0 DUP7 ADD MSTORE PUSH2 0x362E DUP3 DUP3 PUSH2 0x31CC JUMP JUMPDEST SWAP2 POP POP PUSH1 0x20 DUP4 ADD MLOAD DUP5 DUP3 SUB PUSH1 0x20 DUP7 ADD MSTORE PUSH2 0x3648 DUP3 DUP3 PUSH2 0x31CC JUMP JUMPDEST SWAP2 POP POP PUSH1 0x40 DUP4 ADD MLOAD DUP5 DUP3 SUB PUSH1 0x40 DUP7 ADD MSTORE PUSH2 0x3662 DUP3 DUP3 PUSH2 0x31CC JUMP JUMPDEST SWAP2 POP POP PUSH1 0x60 DUP4 ADD MLOAD DUP5 DUP3 SUB PUSH1 0x60 DUP7 ADD MSTORE PUSH2 0x367C DUP3 DUP3 PUSH2 0x31CC JUMP JUMPDEST SWAP2 POP POP PUSH1 0x80 DUP4 ADD MLOAD PUSH2 0x3691 PUSH1 0x80 DUP7 ADD DUP3 PUSH2 0x3205 JUMP JUMPDEST POP PUSH1 0xA0 DUP4 ADD MLOAD PUSH2 0x36A4 PUSH1 0xA0 DUP7 ADD DUP3 PUSH2 0x3205 JUMP JUMPDEST POP PUSH1 0xC0 DUP4 ADD MLOAD PUSH2 0x36B7 PUSH1 0xC0 DUP7 ADD DUP3 PUSH2 0x3205 JUMP JUMPDEST POP PUSH1 0xE0 DUP4 ADD MLOAD PUSH2 0x36CA PUSH1 0xE0 DUP7 ADD DUP3 PUSH2 0x3205 JUMP JUMPDEST POP PUSH2 0x100 DUP4 ADD MLOAD PUSH2 0x36DF PUSH2 0x100 DUP7 ADD DUP3 PUSH2 0x3214 JUMP JUMPDEST POP DUP1 SWAP2 POP POP SWAP3 SWAP2 POP POP JUMP JUMPDEST PUSH1 0x0 PUSH1 0x20 DUP3 ADD SWAP1 POP DUP2 DUP2 SUB PUSH1 0x0 DUP4 ADD MSTORE PUSH2 0x3704 DUP2 DUP5 PUSH2 0x3610 JUMP JUMPDEST SWAP1 POP SWAP3 SWAP2 POP POP JUMP JUMPDEST PUSH2 0x3715 DUP2 PUSH2 0x30FC JUMP JUMPDEST DUP2 EQ PUSH2 0x3720 JUMPI PUSH1 0x0 DUP1 REVERT JUMPDEST POP JUMP JUMPDEST PUSH1 0x0 DUP2 CALLDATALOAD SWAP1 POP PUSH2 0x3732 DUP2 PUSH2 0x370C JUMP JUMPDEST SWAP3 SWAP2 POP POP JUMP JUMPDEST PUSH1 0x0 DUP1 PUSH1 0x0 DUP1 PUSH1 0x0 DUP1 PUSH1 0x0 PUSH1 0xE0 DUP9 DUP11 SUB SLT ISZERO PUSH2 0x3757 JUMPI PUSH2 0x3756 PUSH2 0x2EE4 JUMP JUMPDEST JUMPDEST PUSH1 0x0 DUP9 ADD CALLDATALOAD PUSH8 0xFFFFFFFFFFFFFFFF DUP2 GT ISZERO PUSH2 0x3775 JUMPI PUSH2 0x3774 PUSH2 0x2EE9 JUMP JUMPDEST JUMPDEST PUSH2 0x3781 DUP11 DUP3 DUP12 ADD PUSH2 0x3006 JUMP JUMPDEST SWAP8 POP POP PUSH1 0x20 DUP9 ADD CALLDATALOAD PUSH8 0xFFFFFFFFFFFFFFFF DUP2 GT ISZERO PUSH2 0x37A2 JUMPI PUSH2 0x37A1 PUSH2 0x2EE9 JUMP JUMPDEST JUMPDEST PUSH2 0x37AE DUP11 DUP3 DUP12 ADD PUSH2 0x3006 JUMP JUMPDEST SWAP7 POP POP PUSH1 0x40 DUP9 ADD CALLDATALOAD PUSH8 0xFFFFFFFFFFFFFFFF DUP2 GT ISZERO PUSH2 0x37CF JUMPI PUSH2 0x37CE PUSH2 0x2EE9 JUMP JUMPDEST JUMPDEST PUSH2 0x37DB DUP11 DUP3 DUP12 ADD PUSH2 0x3006 JUMP JUMPDEST SWAP6 POP POP PUSH1 0x60 DUP9 ADD CALLDATALOAD PUSH8 0xFFFFFFFFFFFFFFFF DUP2 GT ISZERO PUSH2 0x37FC JUMPI PUSH2 0x37FB PUSH2 0x2EE9 JUMP JUMPDEST JUMPDEST PUSH2 0x3808 DUP11 DUP3 DUP12 ADD PUSH2 0x3006 JUMP JUMPDEST SWAP5 POP POP PUSH1 0x80 PUSH2 0x3819 DUP11 DUP3 DUP12 ADD PUSH2 0x3723 JUMP JUMPDEST SWAP4 POP POP PUSH1 0xA0 PUSH2 0x382A DUP11 DUP3 DUP12 ADD PUSH2 0x3723 JUMP JUMPDEST SWAP3 POP POP PUSH1 0xC0 PUSH2 0x383B DUP11 DUP3 DUP12 ADD PUSH2 0x3723 JUMP JUMPDEST SWAP2 POP POP SWAP3 SWAP6 SWAP9 SWAP2 SWAP5 SWAP8 POP SWAP3 SWAP6 POP JUMP JUMPDEST PUSH1 0x0 PUSH2 0x120 DUP3 ADD SWAP1 POP DUP2 DUP2 SUB PUSH1 0x0 DUP4 ADD MSTORE PUSH2 0x3865 DUP2 DUP13 PUSH2 0x30C3 JUMP JUMPDEST SWAP1 POP DUP2 DUP2 SUB PUSH1 0x20 DUP4 ADD MSTORE PUSH2 0x3879 DUP2 DUP12 PUSH2 0x30C3 JUMP JUMPDEST SWAP1 POP DUP2 DUP2 SUB PUSH1 0x40 DUP4 ADD MSTORE PUSH2 0x388D DUP2 DUP11 PUSH2 0x30C3 JUMP JUMPDEST SWAP1 POP DUP2 DUP2 SUB PUSH1 0x60 DUP4 ADD MSTORE PUSH2 0x38A1 DUP2 DUP10 PUSH2 0x30C3 JUMP JUMPDEST SWAP1 POP PUSH2 0x38B0 PUSH1 0x80 DUP4 ADD DUP9 PUSH2 0x3106 JUMP JUMPDEST PUSH2 0x38BD PUSH1 0xA0 DUP4 ADD DUP8 PUSH2 0x3106 JUMP JUMPDEST PUSH2 0x38CA PUSH1 0xC0 DUP4 ADD DUP7 PUSH2 0x3106 JUMP JUMPDEST PUSH2 0x38D7 PUSH1 0xE0 DUP4 ADD DUP6 PUSH2 0x3106 JUMP JUMPDEST PUSH2 0x38E5 PUSH2 0x100 DUP4 ADD DUP5 PUSH2 0x3121 JUMP JUMPDEST SWAP11 SWAP10 POP POP POP POP POP POP POP POP POP POP JUMP JUMPDEST PUSH1 0x0 DUP1 PUSH1 0x0 DUP1 PUSH1 0x0 DUP1 PUSH1 0x0 PUSH1 0xE0 DUP9 DUP11 SUB SLT ISZERO PUSH2 0x3912 JUMPI PUSH2 0x3911 PUSH2 0x2EE4 JUMP JUMPDEST JUMPDEST PUSH1 0x0 DUP9 ADD CALLDATALOAD PUSH8 0xFFFFFFFFFFFFFFFF DUP2 GT ISZERO PUSH2 0x3930 JUMPI PUSH2 0x392F PUSH2 0x2EE9 JUMP JUMPDEST JUMPDEST PUSH2 0x393C DUP11 DUP3 DUP12 ADD PUSH2 0x3006 JUMP JUMPDEST SWAP8 POP POP PUSH1 0x20 DUP9 ADD CALLDATALOAD PUSH8 0xFFFFFFFFFFFFFFFF DUP2 GT ISZERO PUSH2 0x395D JUMPI PUSH2 0x395C PUSH2 0x2EE9 JUMP JUMPDEST JUMPDEST PUSH2 0x3969 DUP11 DUP3 DUP12 ADD PUSH2 0x3006 JUMP JUMPDEST SWAP7 POP POP PUSH1 0x40 DUP9 ADD CALLDATALOAD PUSH8 0xFFFFFFFFFFFFFFFF DUP2 GT ISZERO PUSH2 0x398A JUMPI PUSH2 0x3989 PUSH2 0x2EE9 JUMP JUMPDEST JUMPDEST PUSH2 0x3996 DUP11 DUP3 DUP12 ADD PUSH2 0x3006 JUMP JUMPDEST SWAP6 POP POP PUSH1 0x60 DUP9 ADD CALLDATALOAD PUSH8 0xFFFFFFFFFFFFFFFF DUP2 GT ISZERO PUSH2 0x39B7 JUMPI PUSH2 0x39B6 PUSH2 0x2EE9 JUMP JUMPDEST JUMPDEST PUSH2 0x39C3 DUP11 DUP3 DUP12 ADD PUSH2 0x3006 JUMP JUMPDEST SWAP5 POP POP PUSH1 0x80 DUP9 ADD CALLDATALOAD PUSH8 0xFFFFFFFFFFFFFFFF DUP2 GT ISZERO PUSH2 0x39E4 JUMPI PUSH2 0x39E3 PUSH2 0x2EE9 JUMP JUMPDEST JUMPDEST PUSH2 0x39F0 DUP11 DUP3 DUP12 ADD PUSH2 0x3006 JUMP JUMPDEST SWAP4 POP POP PUSH1 0xA0 DUP9 ADD CALLDATALOAD PUSH8 0xFFFFFFFFFFFFFFFF DUP2 GT ISZERO PUSH2 0x3A11 JUMPI PUSH2 0x3A10 PUSH2 0x2EE9 JUMP JUMPDEST JUMPDEST PUSH2 0x3A1D DUP11 DUP3 DUP12 ADD PUSH2 0x3006 JUMP JUMPDEST SWAP3 POP POP PUSH1 0xC0 DUP9 ADD CALLDATALOAD PUSH8 0xFFFFFFFFFFFFFFFF DUP2 GT ISZERO PUSH2 0x3A3E JUMPI PUSH2 0x3A3D PUSH2 0x2EE9 JUMP JUMPDEST JUMPDEST PUSH2 0x3A4A DUP11 DUP3 DUP12 ADD PUSH2 0x3006 JUMP JUMPDEST SWAP2 POP POP SWAP3 SWAP6 SWAP9 SWAP2 SWAP5 SWAP8 POP SWAP3 SWAP6 POP JUMP JUMPDEST PUSH1 0x0 DUP1 PUSH1 0x0 DUP1 PUSH1 0x0 PUSH1 0xA0 DUP7 DUP9 SUB SLT ISZERO PUSH2 0x3A75 JUMPI PUSH2 0x3A74 PUSH2 0x2EE4 JUMP JUMPDEST JUMPDEST PUSH1 0x0 DUP7 ADD CALLDATALOAD PUSH8 0xFFFFFFFFFFFFFFFF DUP2 GT ISZERO PUSH2 0x3A93 JUMPI PUSH2 0x3A92 PUSH2 0x2EE9 JUMP JUMPDEST JUMPDEST PUSH2 0x3A9F DUP9 DUP3 DUP10 ADD PUSH2 0x3006 JUMP JUMPDEST SWAP6 POP POP PUSH1 0x20 DUP7 ADD CALLDATALOAD PUSH8 0xFFFFFFFFFFFFFFFF DUP2 GT ISZERO PUSH2 0x3AC0 JUMPI PUSH2 0x3ABF PUSH2 0x2EE9 JUMP JUMPDEST JUMPDEST PUSH2 0x3ACC DUP9 DUP3 DUP10 ADD PUSH2 0x3006 JUMP JUMPDEST SWAP5 POP POP PUSH1 0x40 DUP7 ADD CALLDATALOAD PUSH8 0xFFFFFFFFFFFFFFFF DUP2 GT ISZERO PUSH2 0x3AED JUMPI PUSH2 0x3AEC PUSH2 0x2EE9 JUMP JUMPDEST JUMPDEST PUSH2 0x3AF9 DUP9 DUP3 DUP10 ADD PUSH2 0x3006 JUMP JUMPDEST SWAP4 POP POP PUSH1 0x60 DUP7 ADD CALLDATALOAD PUSH8 0xFFFFFFFFFFFFFFFF DUP2 GT ISZERO PUSH2 0x3B1A JUMPI PUSH2 0x3B19 PUSH2 0x2EE9 JUMP JUMPDEST JUMPDEST PUSH2 0x3B26 DUP9 DUP3 DUP10 ADD PUSH2 0x3006 JUMP JUMPDEST SWAP3 POP POP PUSH1 0x80 PUSH2 0x3B37 DUP9 DUP3 DUP10 ADD PUSH2 0x3723 JUMP JUMPDEST SWAP2 POP POP SWAP3 SWAP6 POP SWAP3 SWAP6 SWAP1 SWAP4 POP JUMP JUMPDEST PUSH2 0x3B4D DUP2 PUSH2 0x3515 JUMP JUMPDEST DUP3 MSTORE POP POP JUMP JUMPDEST PUSH1 0x0 PUSH1 0xE0 DUP3 ADD SWAP1 POP DUP2 DUP2 SUB PUSH1 0x0 DUP4 ADD MSTORE PUSH2 0x3B6D DUP2 DUP11 PUSH2 0x30C3 JUMP JUMPDEST SWAP1 POP DUP2 DUP2 SUB PUSH1 0x20 DUP4 ADD MSTORE PUSH2 0x3B81 DUP2 DUP10 PUSH2 0x30C3 JUMP JUMPDEST SWAP1 POP DUP2 DUP2 SUB PUSH1 0x40 DUP4 ADD MSTORE PUSH2 0x3B95 DUP2 DUP9 PUSH2 0x30C3 JUMP JUMPDEST SWAP1 POP DUP2 DUP2 SUB PUSH1 0x60 DUP4 ADD MSTORE PUSH2 0x3BA9 DUP2 DUP8 PUSH2 0x30C3 JUMP JUMPDEST SWAP1 POP DUP2 DUP2 SUB PUSH1 0x80 DUP4 ADD MSTORE PUSH2 0x3BBD DUP2 DUP7 PUSH2 0x30C3 JUMP JUMPDEST SWAP1 POP PUSH2 0x3BCC PUSH1 0xA0 DUP4 ADD DUP6 PUSH2 0x3B44 JUMP JUMPDEST PUSH2 0x3BD9 PUSH1 0xC0 DUP4 ADD DUP5 PUSH2 0x3121 JUMP JUMPDEST SWAP9 SWAP8 POP POP POP POP POP POP POP POP JUMP JUMPDEST PUSH1 0x0 DUP1 PUSH1 0x40 DUP4 DUP6 SUB SLT ISZERO PUSH2 0x3BFC JUMPI PUSH2 0x3BFB PUSH2 0x2EE4 JUMP JUMPDEST JUMPDEST PUSH1 0x0 DUP4 ADD CALLDATALOAD PUSH8 0xFFFFFFFFFFFFFFFF DUP2 GT ISZERO PUSH2 0x3C1A JUMPI PUSH2 0x3C19 PUSH2 0x2EE9 JUMP JUMPDEST JUMPDEST PUSH2 0x3C26 DUP6 DUP3 DUP7 ADD PUSH2 0x3006 JUMP JUMPDEST SWAP3 POP POP PUSH1 0x20 PUSH2 0x3C37 DUP6 DUP3 DUP7 ADD PUSH2 0x3723 JUMP JUMPDEST SWAP2 POP POP SWAP3 POP SWAP3 SWAP1 POP JUMP JUMPDEST PUSH1 0x0 DUP1 PUSH1 0x40 DUP4 DUP6 SUB SLT ISZERO PUSH2 0x3C58 JUMPI PUSH2 0x3C57 PUSH2 0x2EE4 JUMP JUMPDEST JUMPDEST PUSH1 0x0 PUSH2 0x3C66 DUP6 DUP3 DUP7 ADD PUSH2 0x347D JUMP JUMPDEST SWAP3 POP POP PUSH1 0x20 PUSH2 0x3C77 DUP6 DUP3 DUP7 ADD PUSH2 0x3306 JUMP JUMPDEST SWAP2 POP POP SWAP3 POP SWAP3 SWAP1 POP JUMP JUMPDEST PUSH1 0x0 PUSH2 0x100 DUP3 ADD SWAP1 POP DUP2 DUP2 SUB PUSH1 0x0 DUP4 ADD MSTORE PUSH2 0x3C9C DUP2 DUP12 PUSH2 0x30C3 JUMP JUMPDEST SWAP1 POP DUP2 DUP2 SUB PUSH1 0x20 DUP4 ADD MSTORE PUSH2 0x3CB0 DUP2 DUP11 PUSH2 0x30C3 JUMP JUMPDEST SWAP1 POP DUP2 DUP2 SUB PUSH1 0x40 DUP4 ADD MSTORE PUSH2 0x3CC4 DUP2 DUP10 PUSH2 0x30C3 JUMP JUMPDEST SWAP1 POP DUP2 DUP2 SUB PUSH1 0x60 DUP4 ADD MSTORE PUSH2 0x3CD8 DUP2 DUP9 PUSH2 0x30C3 JUMP JUMPDEST SWAP1 POP DUP2 DUP2 SUB PUSH1 0x80 DUP4 ADD MSTORE PUSH2 0x3CEC DUP2 DUP8 PUSH2 0x30C3 JUMP JUMPDEST SWAP1 POP DUP2 DUP2 SUB PUSH1 0xA0 DUP4 ADD MSTORE PUSH2 0x3D00 DUP2 DUP7 PUSH2 0x30C3 JUMP JUMPDEST SWAP1 POP DUP2 DUP2 SUB PUSH1 0xC0 DUP4 ADD MSTORE PUSH2 0x3D14 DUP2 DUP6 PUSH2 0x30C3 JUMP JUMPDEST SWAP1 POP PUSH2 0x3D23 PUSH1 0xE0 DUP4 ADD DUP5 PUSH2 0x3121 JUMP JUMPDEST SWAP10 SWAP9 POP POP POP POP POP POP POP POP POP JUMP JUMPDEST PUSH1 0x0 PUSH2 0x100 DUP4 ADD PUSH1 0x0 DUP4 ADD MLOAD DUP5 DUP3 SUB PUSH1 0x0 DUP7 ADD MSTORE PUSH2 0x3D4E DUP3 DUP3 PUSH2 0x31CC JUMP JUMPDEST SWAP2 POP POP PUSH1 0x20 DUP4 ADD MLOAD DUP5 DUP3 SUB PUSH1 0x20 DUP7 ADD MSTORE PUSH2 0x3D68 DUP3 DUP3 PUSH2 0x31CC JUMP JUMPDEST SWAP2 POP POP PUSH1 0x40 DUP4 ADD MLOAD DUP5 DUP3 SUB PUSH1 0x40 DUP7 ADD MSTORE PUSH2 0x3D82 DUP3 DUP3 PUSH2 0x31CC JUMP JUMPDEST SWAP2 POP POP PUSH1 0x60 DUP4 ADD MLOAD DUP5 DUP3 SUB PUSH1 0x60 DUP7 ADD MSTORE PUSH2 0x3D9C DUP3 DUP3 PUSH2 0x31CC JUMP JUMPDEST SWAP2 POP POP PUSH1 0x80 DUP4 ADD MLOAD DUP5 DUP3 SUB PUSH1 0x80 DUP7 ADD MSTORE PUSH2 0x3DB6 DUP3 DUP3 PUSH2 0x31CC JUMP JUMPDEST SWAP2 POP POP PUSH1 0xA0 DUP4 ADD MLOAD DUP5 DUP3 SUB PUSH1 0xA0 DUP7 ADD MSTORE PUSH2 0x3DD0 DUP3 DUP3 PUSH2 0x31CC JUMP JUMPDEST SWAP2 POP POP PUSH1 0xC0 DUP4 ADD MLOAD DUP5 DUP3 SUB PUSH1 0xC0 DUP7 ADD MSTORE PUSH2 0x3DEA DUP3 DUP3 PUSH2 0x31CC JUMP JUMPDEST SWAP2 POP POP PUSH1 0xE0 DUP4 ADD MLOAD PUSH2 0x3DFF PUSH1 0xE0 DUP7 ADD DUP3 PUSH2 0x3214 JUMP JUMPDEST POP DUP1 SWAP2 POP POP SWAP3 SWAP2 POP POP JUMP JUMPDEST PUSH1 0x0 PUSH1 0x20 DUP3 ADD SWAP1 POP DUP2 DUP2 SUB PUSH1 0x0 DUP4 ADD MSTORE PUSH2 0x3E24 DUP2 DUP5 PUSH2 0x3D30 JUMP JUMPDEST SWAP1 POP SWAP3 SWAP2 POP POP JUMP JUMPDEST PUSH32 0x4E487B7100000000000000000000000000000000000000000000000000000000 PUSH1 0x0 MSTORE PUSH1 0x22 PUSH1 0x4 MSTORE PUSH1 0x24 PUSH1 0x0 REVERT JUMPDEST PUSH1 0x0 PUSH1 0x2 DUP3 DIV SWAP1 POP PUSH1 0x1 DUP3 AND DUP1 PUSH2 0x3E73 JUMPI PUSH1 0x7F DUP3 AND SWAP2 POP JUMPDEST PUSH1 0x20 DUP3 LT DUP2 SUB PUSH2 0x3E86 JUMPI PUSH2 0x3E85 PUSH2 0x3E2C JUMP JUMPDEST JUMPDEST POP SWAP2 SWAP1 POP JUMP JUMPDEST PUSH1 0x0 DUP2 SWAP1 POP SWAP3 SWAP2 POP POP JUMP JUMPDEST PUSH1 0x0 PUSH2 0x3EA2 DUP3 PUSH2 0x307D JUMP JUMPDEST PUSH2 0x3EAC DUP2 DUP6 PUSH2 0x3E8C JUMP JUMPDEST SWAP4 POP PUSH2 0x3EBC DUP2 DUP6 PUSH1 0x20 DUP7 ADD PUSH2 0x3099 JUMP JUMPDEST DUP1 DUP5 ADD SWAP2 POP POP SWAP3 SWAP2 POP POP JUMP JUMPDEST PUSH1 0x0 PUSH2 0x3ED4 DUP3 DUP5 PUSH2 0x3E97 JUMP JUMPDEST SWAP2 POP DUP2 SWAP1 POP SWAP3 SWAP2 POP POP JUMP JUMPDEST PUSH32 0x446F63746F7220646F6573206E6F742065786973740000000000000000000000 PUSH1 0x0 DUP3 ADD MSTORE POP JUMP JUMPDEST PUSH1 0x0 PUSH2 0x3F15 PUSH1 0x15 DUP4 PUSH2 0x3088 JUMP JUMPDEST SWAP2 POP PUSH2 0x3F20 DUP3 PUSH2 0x3EDF JUMP JUMPDEST PUSH1 0x20 DUP3 ADD SWAP1 POP SWAP2 SWAP1 POP JUMP JUMPDEST PUSH1 0x0 PUSH1 0x20 DUP3 ADD SWAP1 POP DUP2 DUP2 SUB PUSH1 0x0 DUP4 ADD MSTORE PUSH2 0x3F44 DUP2 PUSH2 0x3F08 JUMP JUMPDEST SWAP1 POP SWAP2 SWAP1 POP JUMP JUMPDEST PUSH32 0x5573657220616C72656164792072656769737465726564000000000000000000 PUSH1 0x0 DUP3 ADD MSTORE POP JUMP JUMPDEST PUSH1 0x0 PUSH2 0x3F81 PUSH1 0x17 DUP4 PUSH2 0x3088 JUMP JUMPDEST SWAP2 POP PUSH2 0x3F8C DUP3 PUSH2 0x3F4B JUMP JUMPDEST PUSH1 0x20 DUP3 ADD SWAP1 POP SWAP2 SWAP1 POP JUMP JUMPDEST PUSH1 0x0 PUSH1 0x20 DUP3 ADD SWAP1 POP DUP2 DUP2 SUB PUSH1 0x0 DUP4 ADD MSTORE PUSH2 0x3FB0 DUP2 PUSH2 0x3F74 JUMP JUMPDEST SWAP1 POP SWAP2 SWAP1 POP JUMP JUMPDEST PUSH1 0x0 DUP2 SWAP1 POP DUP2 PUSH1 0x0 MSTORE PUSH1 0x20 PUSH1 0x0 KECCAK256 SWAP1 POP SWAP2 SWAP1 POP JUMP JUMPDEST PUSH1 0x0 PUSH1 0x20 PUSH1 0x1F DUP4 ADD DIV SWAP1 POP SWAP2 SWAP1 POP JUMP JUMPDEST PUSH1 0x0 DUP3 DUP3 SHL SWAP1 POP SWAP3 SWAP2 POP POP JUMP JUMPDEST PUSH1 0x0 PUSH1 0x8 DUP4 MUL PUSH2 0x4019 PUSH32 0xFFFFFFFFFFFFFFFFFFFFFFFFFFFFFFFFFFFFFFFFFFFFFFFFFFFFFFFFFFFFFFFF DUP3 PUSH2 0x3FDC JUMP JUMPDEST PUSH2 0x4023 DUP7 DUP4 PUSH2 0x3FDC JUMP JUMPDEST SWAP6 POP DUP1 NOT DUP5 AND SWAP4 POP DUP1 DUP7 AND DUP5 OR SWAP3 POP POP POP SWAP4 SWAP3 POP POP POP JUMP JUMPDEST PUSH1 0x0 DUP2 SWAP1 POP SWAP2 SWAP1 POP JUMP JUMPDEST PUSH1 0x0 PUSH2 0x4060 PUSH2 0x405B PUSH2 0x4056 DUP5 PUSH2 0x30FC JUMP JUMPDEST PUSH2 0x403B JUMP JUMPDEST PUSH2 0x30FC JUMP JUMPDEST SWAP1 POP SWAP2 SWAP1 POP JUMP JUMPDEST PUSH1 0x0 DUP2 SWAP1 POP SWAP2 SWAP1 POP JUMP JUMPDEST PUSH2 0x407A DUP4 PUSH2 0x4045 JUMP JUMPDEST PUSH2 0x408E PUSH2 0x4086 DUP3 PUSH2 0x4067 JUMP JUMPDEST DUP5 DUP5 SLOAD PUSH2 0x3FE9 JUMP JUMPDEST DUP3 SSTORE POP POP POP POP JUMP JUMPDEST PUSH1 0x0 SWAP1 JUMP JUMPDEST PUSH2 0x40A3 PUSH2 0x4096 JUMP JUMPDEST PUSH2 0x40AE DUP2 DUP5 DUP5 PUSH2 0x4071 JUMP JUMPDEST POP POP POP JUMP JUMPDEST JUMPDEST DUP2 DUP2 LT ISZERO PUSH2 0x40D2 JUMPI PUSH2 0x40C7 PUSH1 0x0 DUP3 PUSH2 0x409B JUMP JUMPDEST PUSH1 0x1 DUP2 ADD SWAP1 POP PUSH2 0x40B4 JUMP JUMPDEST POP POP JUMP JUMPDEST PUSH1 0x1F DUP3 GT ISZERO PUSH2 0x4117 JUMPI PUSH2 0x40E8 DUP2 PUSH2 0x3FB7 JUMP JUMPDEST PUSH2 0x40F1 DUP5 PUSH2 0x3FCC JUMP JUMPDEST DUP2 ADD PUSH1 0x20 DUP6 LT ISZERO PUSH2 0x4100 JUMPI DUP2 SWAP1 POP JUMPDEST PUSH2 0x4114 PUSH2 0x410C DUP6 PUSH2 0x3FCC JUMP JUMPDEST DUP4 ADD DUP3 PUSH2 0x40B3 JUMP JUMPDEST POP POP JUMPDEST POP POP POP JUMP JUMPDEST PUSH1 0x0 DUP3 DUP3 SHR SWAP1 POP SWAP3 SWAP2 POP POP JUMP JUMPDEST PUSH1 0x0 PUSH2 0x413A PUSH1 0x0 NOT DUP5 PUSH1 0x8 MUL PUSH2 0x411C JUMP JUMPDEST NOT DUP1 DUP4 AND SWAP2 POP POP SWAP3 SWAP2 POP POP JUMP JUMPDEST PUSH1 0x0 PUSH2 0x4153 DUP4 DUP4 PUSH2 0x4129 JUMP JUMPDEST SWAP2 POP DUP3 PUSH1 0x2 MUL DUP3 OR SWAP1 POP SWAP3 SWAP2 POP POP JUMP JUMPDEST PUSH2 0x416C DUP3 PUSH2 0x307D JUMP JUMPDEST PUSH8 0xFFFFFFFFFFFFFFFF DUP2 GT ISZERO PUSH2 0x4185 JUMPI PUSH2 0x4184 PUSH2 0x2F09 JUMP JUMPDEST JUMPDEST PUSH2 0x418F DUP3 SLOAD PUSH2 0x3E5B JUMP JUMPDEST PUSH2 0x419A DUP3 DUP3 DUP6 PUSH2 0x40D6 JUMP JUMPDEST PUSH1 0x0 PUSH1 0x20 SWAP1 POP PUSH1 0x1F DUP4 GT PUSH1 0x1 DUP2 EQ PUSH2 0x41CD JUMPI PUSH1 0x0 DUP5 ISZERO PUSH2 0x41BB JUMPI DUP3 DUP8 ADD MLOAD SWAP1 POP JUMPDEST PUSH2 0x41C5 DUP6 DUP3 PUSH2 0x4147 JUMP JUMPDEST DUP7 SSTORE POP PUSH2 0x422D JUMP JUMPDEST PUSH1 0x1F NOT DUP5 AND PUSH2 0x41DB DUP7 PUSH2 0x3FB7 JUMP JUMPDEST PUSH1 0x0 JUMPDEST DUP3 DUP2 LT ISZERO PUSH2 0x4203 JUMPI DUP5 DUP10 ADD MLOAD DUP3 SSTORE PUSH1 0x1 DUP3 ADD SWAP2 POP PUSH1 0x20 DUP6 ADD SWAP5 POP PUSH1 0x20 DUP2 ADD SWAP1 POP PUSH2 0x41DE JUMP JUMPDEST DUP7 DUP4 LT ISZERO PUSH2 0x4220 JUMPI DUP5 DUP10 ADD MLOAD PUSH2 0x421C PUSH1 0x1F DUP10 AND DUP3 PUSH2 0x4129 JUMP JUMPDEST DUP4 SSTORE POP JUMPDEST PUSH1 0x1 PUSH1 0x2 DUP9 MUL ADD DUP9 SSTORE POP POP POP JUMPDEST POP POP POP POP POP POP JUMP JUMPDEST PUSH1 0x0 PUSH1 0x40 DUP3 ADD SWAP1 POP DUP2 DUP2 SUB PUSH1 0x0 DUP4 ADD MSTORE PUSH2 0x424F DUP2 DUP6 PUSH2 0x30C3 JUMP JUMPDEST SWAP1 POP PUSH2 0x425E PUSH1 0x20 DUP4 ADD DUP5 PUSH2 0x3B44 JUMP JUMPDEST SWAP4 SWAP3 POP POP POP JUMP JUMPDEST PUSH32 0x5573657220646F6573206E6F7420657869737400000000000000000000000000 PUSH1 0x0 DUP3 ADD MSTORE POP JUMP JUMPDEST PUSH1 0x0 PUSH2 0x429B PUSH1 0x13 DUP4 PUSH2 0x3088 JUMP JUMPDEST SWAP2 POP PUSH2 0x42A6 DUP3 PUSH2 0x4265 JUMP JUMPDEST PUSH1 0x20 DUP3 ADD SWAP1 POP SWAP2 SWAP1 POP JUMP JUMPDEST PUSH1 0x0 PUSH1 0x20 DUP3 ADD SWAP1 POP DUP2 DUP2 SUB PUSH1 0x0 DUP4 ADD MSTORE PUSH2 0x42CA DUP2 PUSH2 0x428E JUMP JUMPDEST SWAP1 POP SWAP2 SWAP1 POP JUMP JUMPDEST PUSH32 0x486F73706974616C20646F6573206E6F74206578697374000000000000000000 PUSH1 0x0 DUP3 ADD MSTORE POP JUMP JUMPDEST PUSH1 0x0 PUSH2 0x4307 PUSH1 0x17 DUP4 PUSH2 0x3088 JUMP JUMPDEST SWAP2 POP PUSH2 0x4312 DUP3 PUSH2 0x42D1 JUMP JUMPDEST PUSH1 0x20 DUP3 ADD SWAP1 POP SWAP2 SWAP1 POP JUMP JUMPDEST PUSH1 0x0 PUSH1 0x20 DUP3 ADD SWAP1 POP DUP2 DUP2 SUB PUSH1 0x0 DUP4 ADD MSTORE PUSH2 0x4336 DUP2 PUSH2 0x42FA JUMP JUMPDEST SWAP1 POP SWAP2 SWAP1 POP JUMP JUMPDEST PUSH32 0x4F6E6C7920686F73706974616C2061646D696E206F722061646D696E2063616E PUSH1 0x0 DUP3 ADD MSTORE PUSH32 0x20706572666F726D207468697320616374696F6E000000000000000000000000 PUSH1 0x20 DUP3 ADD MSTORE POP JUMP JUMPDEST PUSH1 0x0 PUSH2 0x4399 PUSH1 0x34 DUP4 PUSH2 0x3088 JUMP JUMPDEST SWAP2 POP PUSH2 0x43A4 DUP3 PUSH2 0x433D JUMP JUMPDEST PUSH1 0x40 DUP3 ADD SWAP1 POP SWAP2 SWAP1 POP JUMP JUMPDEST PUSH1 0x0 PUSH1 0x20 DUP3 ADD SWAP1 POP DUP2 DUP2 SUB PUSH1 0x0 DUP4 ADD MSTORE PUSH2 0x43C8 DUP2 PUSH2 0x438C JUMP JUMPDEST SWAP1 POP SWAP2 SWAP1 POP JUMP JUMPDEST PUSH32 0x486F73706974616C20616C726561647920726567697374657265640000000000 PUSH1 0x0 DUP3 ADD MSTORE POP JUMP JUMPDEST PUSH1 0x0 PUSH2 0x4405 PUSH1 0x1B DUP4 PUSH2 0x3088 JUMP JUMPDEST SWAP2 POP PUSH2 0x4410 DUP3 PUSH2 0x43CF JUMP JUMPDEST PUSH1 0x20 DUP3 ADD SWAP1 POP SWAP2 SWAP1 POP JUMP JUMPDEST PUSH1 0x0 PUSH1 0x20 DUP3 ADD SWAP1 POP DUP2 DUP2 SUB PUSH1 0x0 DUP4 ADD MSTORE PUSH2 0x4434 DUP2 PUSH2 0x43F8 JUMP JUMPDEST SWAP1 POP SWAP2 SWAP1 POP JUMP JUMPDEST PUSH1 0x0 PUSH1 0x40 DUP3 ADD SWAP1 POP DUP2 DUP2 SUB PUSH1 0x0 DUP4 ADD MSTORE PUSH2 0x4455 DUP2 DUP6 PUSH2 0x30C3 JUMP JUMPDEST SWAP1 POP DUP2 DUP2 SUB PUSH1 0x20 DUP4 ADD MSTORE PUSH2 0x4469 DUP2 DUP5 PUSH2 0x30C3 JUMP JUMPDEST SWAP1 POP SWAP4 SWAP3 POP POP POP JUMP JUMPDEST PUSH32 0x4F6E6C792070617469656E74732063616E207265676973746572000000000000 PUSH1 0x0 DUP3 ADD MSTORE POP JUMP JUMPDEST PUSH1 0x0 PUSH2 0x44A8 PUSH1 0x1A DUP4 PUSH2 0x3088 JUMP JUMPDEST SWAP2 POP PUSH2 0x44B3 DUP3 PUSH2 0x4472 JUMP JUMPDEST PUSH1 0x20 DUP3 ADD SWAP1 POP SWAP2 SWAP1 POP JUMP JUMPDEST PUSH1 0x0 PUSH1 0x20 DUP3 ADD SWAP1 POP DUP2 DUP2 SUB PUSH1 0x0 DUP4 ADD MSTORE PUSH2 0x44D7 DUP2 PUSH2 0x449B JUMP JUMPDEST SWAP1 POP SWAP2 SWAP1 POP JUMP JUMPDEST PUSH32 0x50617469656E7420616C72656164792072656769737465726564000000000000 PUSH1 0x0 DUP3 ADD MSTORE POP JUMP JUMPDEST PUSH1 0x0 PUSH2 0x4514 PUSH1 0x1A DUP4 PUSH2 0x3088 JUMP JUMPDEST SWAP2 POP PUSH2 0x451F DUP3 PUSH2 0x44DE JUMP JUMPDEST PUSH1 0x20 DUP3 ADD SWAP1 POP SWAP2 SWAP1 POP JUMP JUMPDEST PUSH1 0x0 PUSH1 0x20 DUP3 ADD SWAP1 POP DUP2 DUP2 SUB PUSH1 0x0 DUP4 ADD MSTORE PUSH2 0x4543 DUP2 PUSH2 0x4507 JUMP JUMPDEST SWAP1 POP SWAP2 SWAP1 POP JUMP JUMPDEST PUSH32 0x446F63746F7220616C7265616479207265676973746572656400000000000000 PUSH1 0x0 DUP3 ADD MSTORE POP JUMP JUMPDEST PUSH1 0x0 PUSH2 0x4580 PUSH1 0x19 DUP4 PUSH2 0x3088 JUMP JUMPDEST SWAP2 POP PUSH2 0x458B DUP3 PUSH2 0x454A JUMP JUMPDEST PUSH1 0x20 DUP3 ADD SWAP1 POP SWAP2 SWAP1 POP JUMP JUMPDEST PUSH1 0x0 PUSH1 0x20 DUP3 ADD SWAP1 POP DUP2 DUP2 SUB PUSH1 0x0 DUP4 ADD MSTORE PUSH2 0x45AF DUP2 PUSH2 0x4573 JUMP JUMPDEST SWAP1 POP SWAP2 SWAP1 POP JUMP JUMPDEST PUSH1 0x0 PUSH1 0x60 DUP3 ADD SWAP1 POP DUP2 DUP2 SUB PUSH1 0x0 DUP4 ADD MSTORE PUSH2 0x45D0 DUP2 DUP7 PUSH2 0x30C3 JUMP JUMPDEST SWAP1 POP DUP2 DUP2 SUB PUSH1 0x20 DUP4 ADD MSTORE PUSH2 0x45E4 DUP2 DUP6 PUSH2 0x30C3 JUMP JUMPDEST SWAP1 POP DUP2 DUP2 SUB PUSH1 0x40 DUP4 ADD MSTORE PUSH2 0x45F8 DUP2 DUP5 PUSH2 0x30C3 JUMP JUMPDEST SWAP1 POP SWAP5 SWAP4 POP POP POP POP JUMP JUMPDEST PUSH1 0x0 DUP2 SLOAD PUSH2 0x460F DUP2 PUSH2 0x3E5B JUMP JUMPDEST PUSH2 0x4619 DUP2 DUP7 PUSH2 0x3088 JUMP JUMPDEST SWAP5 POP PUSH1 0x1 DUP3 AND PUSH1 0x0 DUP2 EQ PUSH2 0x4634 JUMPI PUSH1 0x1 DUP2 EQ PUSH2 0x464A JUMPI PUSH2 0x467D JUMP JUMPDEST PUSH1 0xFF NOT DUP4 AND DUP7 MSTORE DUP2 ISZERO ISZERO PUSH1 0x20 MUL DUP7 ADD SWAP4 POP PUSH2 0x467D JUMP JUMPDEST PUSH2 0x4653 DUP6 PUSH2 0x3FB7 JUMP JUMPDEST PUSH1 0x0 JUMPDEST DUP4 DUP2 LT ISZERO PUSH2 0x4675 JUMPI DUP2 SLOAD DUP2 DUP10 ADD MSTORE PUSH1 0x1 DUP3 ADD SWAP2 POP PUSH1 0x20 DUP2 ADD SWAP1 POP PUSH2 0x4656 JUMP JUMPDEST DUP1 DUP9 ADD SWAP6 POP POP POP JUMPDEST POP POP POP SWAP3 SWAP2 POP POP JUMP JUMPDEST PUSH1 0x0 PUSH1 0x60 DUP3 ADD SWAP1 POP DUP2 DUP2 SUB PUSH1 0x0 DUP4 ADD MSTORE PUSH2 0x46A0 DUP2 DUP7 PUSH2 0x30C3 JUMP JUMPDEST SWAP1 POP DUP2 DUP2 SUB PUSH1 0x20 DUP4 ADD MSTORE PUSH2 0x46B4 DUP2 DUP6 PUSH2 0x4602 JUMP JUMPDEST SWAP1 POP PUSH2 0x46C3 PUSH1 0x40 DUP4 ADD DUP5 PUSH2 0x3106 JUMP JUMPDEST SWAP5 SWAP4 POP POP POP POP JUMP JUMPDEST PUSH32 0x4F6E6C792061646D696E2063616E20706572666F726D20746869732061637469 PUSH1 0x0 DUP3 ADD MSTORE PUSH32 0x6F6E000000000000000000000000000000000000000000000000000000000000 PUSH1 0x20 DUP3 ADD MSTORE POP JUMP JUMPDEST PUSH1 0x0 PUSH2 0x4727 PUSH1 0x22 DUP4 PUSH2 0x3088 JUMP JUMPDEST SWAP2 POP PUSH2 0x4732 DUP3 PUSH2 0x46CB JUMP JUMPDEST PUSH1 0x40 DUP3 ADD SWAP1 POP SWAP2 SWAP1 POP JUMP JUMPDEST PUSH1 0x0 PUSH1 0x20 DUP3 ADD SWAP1 POP DUP2 DUP2 SUB PUSH1 0x0 DUP4 ADD MSTORE PUSH2 0x4756 DUP2 PUSH2 0x471A JUMP JUMPDEST SWAP1 POP SWAP2 SWAP1 POP JUMP JUMPDEST PUSH1 0x0 PUSH1 0x20 DUP3 ADD SWAP1 POP PUSH2 0x4772 PUSH1 0x0 DUP4 ADD DUP5 PUSH2 0x3B44 JUMP JUMPDEST SWAP3 SWAP2 POP POP JUMP JUMPDEST PUSH32 0x50617469656E7420646F6573206E6F7420657869737400000000000000000000 PUSH1 0x0 DUP3 ADD MSTORE POP JUMP JUMPDEST PUSH1 0x0 PUSH2 0x47AE PUSH1 0x16 DUP4 PUSH2 0x3088 JUMP JUMPDEST SWAP2 POP PUSH2 0x47B9 DUP3 PUSH2 0x4778 JUMP JUMPDEST PUSH1 0x20 DUP3 ADD SWAP1 POP SWAP2 SWAP1 POP JUMP JUMPDEST PUSH1 0x0 PUSH1 0x20 DUP3 ADD SWAP1 POP DUP2 DUP2 SUB PUSH1 0x0 DUP4 ADD MSTORE PUSH2 0x47DD DUP2 PUSH2 0x47A1 JUMP JUMPDEST SWAP1 POP SWAP2 SWAP1 POP JUMP INVALID LOG2 PUSH5 0x6970667358 0x22 SLT KECCAK256 0xD1 0xD0 0xE4 LOG0 AND 0xC1 0x4D 0xEB 0xF9 0xB5 SWAP11 0x4E PUSH11 0x1952D75F150997FC7CCC98 GAS PUSH15 0xA096C3784C6D64736F6C6343000812 STOP CALLER "},"methodIdentifiers":{"doctors(string)":"05c35ce5","getDoctor(string)":"60499092","getHospital(string)":"9166df58","getPatient(string)":"e79a7a2e","getUser(address)":"6f77926b","hospitals(string)":"9f516435","patients(string)":"c6009d84","registerDoctor(string,string,string,string,uint256)":"a3de4d60","registerHospital(string,string,string,string,uint256,uint256,uint256)":"9f50b7da","registerPatient(string,string,string,string,string,string,string)":"a30b6ec3","registerUser(string,string,string,string,string,uint8)":"69dac913","updateHospital(string,uint256)":"bc75e602","updateUserRole(address,uint8)":"c291fe62","users(address)":"a87430ba"}}}}}