{
  "_format": "hh-sol-artifact-1",
  "contractName": "HospitalManagement",
  "sourceName": "contracts/hospital.sol",
  "abi": [
    {
      "anonymous": false,
      "inputs": [
        {
          "indexed": false,
          "internalType": "string",
          "name": "doctorId",
          "type": "string"
        },
        {
          "indexed": false,
          "internalType": "string",
          "name": "name",
          "type": "string"
        },
        {
          "indexed": false,
          "internalType": "string",
          "name": "specialization",
          "type": "string"
        }
      ],
      "name": "DoctorRegistered",
      "type": "event"
    },
    {
      "anonymous": false,
      "inputs": [
        {
          "indexed": false,
          "internalType": "string",
          "name": "hospitalId",
          "type": "string"
        },
        {
          "indexed": false,
          "internalType": "string",
          "name": "name",
          "type": "string"
        }
      ],
      "name": "HospitalRegistered",
      "type": "event"
    },
    {
      "anonymous": false,
      "inputs": [
        {
          "indexed": false,
          "internalType": "string",
          "name": "hospitalId",
          "type": "string"
        },
        {
          "indexed": false,
          "internalType": "string",
          "name": "name",
          "type": "string"
        },
        {
          "indexed": false,
          "internalType": "uint256",
          "name": "availableBeds",
          "type": "uint256"
        }
      ],
      "name": "HospitalUpdated",
      "type": "event"
    },
    {
      "anonymous": false,
      "inputs": [
        {
          "indexed": false,
          "internalType": "string",
          "name": "patientId",
          "type": "string"
        },
        {
          "indexed": false,
          "internalType": "string",
          "name": "name",
          "type": "string"
        }
      ],
      "name": "PatientRegistered",
      "type": "event"
    },
    {
      "anonymous": false,
      "inputs": [
        {
          "indexed": true,
          "internalType": "address",
          "name": "userAddress",
          "type": "address"
        },
        {
          "indexed": false,
          "internalType": "string",
          "name": "userId",
          "type": "string"
        },
        {
          "indexed": false,
          "internalType": "enum HospitalManagement.Role",
          "name": "role",
          "type": "uint8"
        }
      ],
      "name": "UserRegistered",
      "type": "event"
    },
    {
      "anonymous": false,
      "inputs": [
        {
          "indexed": true,
          "internalType": "address",
          "name": "userAddress",
          "type": "address"
        },
        {
          "indexed": false,
          "internalType": "enum HospitalManagement.Role",
          "name": "newRole",
          "type": "uint8"
        }
      ],
      "name": "UserRoleUpdated",
      "type": "event"
    },
    {
      "inputs": [
        {
          "internalType": "string",
          "name": "",
          "type": "string"
        }
      ],
      "name": "doctors",
      "outputs": [
        {
          "internalType": "string",
          "name": "id",
          "type": "string"
        },
        {
          "internalType": "string",
          "name": "name",
          "type": "string"
        },
        {
          "internalType": "string",
          "name": "specialization",
          "type": "string"
        },
        {
          "internalType": "string",
          "name": "hospitalId",
          "type": "string"
        },
        {
          "internalType": "uint256",
          "name": "experience",
          "type": "uint256"
        },
        {
          "internalType": "bool",
          "name": "availability",
          "type": "bool"
        },
        {
          "internalType": "bool",
          "name": "exists",
          "type": "bool"
        }
      ],
      "stateMutability": "view",
      "type": "function"
    },
    {
      "inputs": [
        {
          "internalType": "string",
          "name": "_id",
          "type": "string"
        }
      ],
      "name": "getDoctor",
      "outputs": [
        {
          "components": [
            {
              "internalType": "string",
              "name": "id",
              "type": "string"
            },
            {
              "internalType": "string",
              "name": "name",
              "type": "string"
            },
            {
              "internalType": "string",
              "name": "specialization",
              "type": "string"
            },
            {
              "internalType": "string",
              "name": "hospitalId",
              "type": "string"
            },
            {
              "internalType": "uint256",
              "name": "experience",
              "type": "uint256"
            },
            {
              "internalType": "bool",
              "name": "availability",
              "type": "bool"
            },
            {
              "internalType": "bool",
              "name": "exists",
              "type": "bool"
            }
          ],
          "internalType": "struct HospitalManagement.Doctor",
          "name": "",
          "type": "tuple"
        }
      ],
      "stateMutability": "view",
      "type": "function"
    },
    {
      "inputs": [
        {
          "internalType": "string",
          "name": "_id",
          "type": "string"
        }
      ],
      "name": "getHospital",
      "outputs": [
        {
          "components": [
            {
              "internalType": "string",
              "name": "id",
              "type": "string"
            },
            {
              "internalType": "string",
              "name": "name",
              "type": "string"
            },
            {
              "internalType": "string",
              "name": "addresss",
              "type": "string"
            },
            {
              "internalType": "string",
              "name": "phone",
              "type": "string"
            },
            {
              "internalType": "uint256",
              "name": "totalBeds",
              "type": "uint256"
            },
            {
              "internalType": "uint256",
              "name": "availableBeds",
              "type": "uint256"
            },
            {
              "internalType": "uint256",
              "name": "icuBeds",
              "type": "uint256"
            },
            {
              "internalType": "uint256",
              "name": "ventilators",
              "type": "uint256"
            },
            {
              "internalType": "bool",
              "name": "exists",
              "type": "bool"
            }
          ],
          "internalType": "struct HospitalManagement.Hospital",
          "name": "",
          "type": "tuple"
        }
      ],
      "stateMutability": "view",
      "type": "function"
    },
    {
      "inputs": [
        {
          "internalType": "string",
          "name": "_id",
          "type": "string"
        }
      ],
      "name": "getPatient",
      "outputs": [
        {
          "components": [
            {
              "internalType": "string",
              "name": "id",
              "type": "string"
            },
            {
              "internalType": "string",
              "name": "name",
              "type": "string"
            },
            {
              "internalType": "string",
              "name": "bloodType",
              "type": "string"
            },
            {
              "internalType": "string",
              "name": "allergy",
              "type": "string"
            },
            {
              "internalType": "string",
              "name": "surgery",
              "type": "string"
            },
            {
              "internalType": "string",
              "name": "medicalIssue",
              "type": "string"
            },
            {
              "internalType": "string",
              "name": "emergencyContact",
              "type": "string"
            },
            {
              "internalType": "bool",
              "name": "exists",
              "type": "bool"
            }
          ],
          "internalType": "struct HospitalManagement.Patient",
          "name": "",
          "type": "tuple"
        }
      ],
      "stateMutability": "view",
      "type": "function"
    },
    {
      "inputs": [
        {
          "internalType": "address",
          "name": "_userAddress",
          "type": "address"
        }
      ],
      "name": "getUser",
      "outputs": [
        {
          "components": [
            {
              "internalType": "string",
              "name": "id",
              "type": "string"
            },
            {
              "internalType": "string",
              "name": "name",
              "type": "string"
            },
            {
              "internalType": "string",
              "name": "email",
              "type": "string"
            },
            {
              "internalType": "string",
              "name": "phone",
              "type": "string"
            },
            {
              "internalType": "string",
              "name": "profilePic",
              "type": "string"
            },
            {
              "internalType": "enum HospitalManagement.Role",
              "name": "role",
              "type": "uint8"
            },
            {
              "internalType": "bool",
              "name": "exists",
              "type": "bool"
            }
          ],
          "internalType": "struct HospitalManagement.User",
          "name": "",
          "type": "tuple"
        }
      ],
      "stateMutability": "view",
      "type": "function"
    },
    {
      "inputs": [
        {
          "internalType": "string",
          "name": "",
          "type": "string"
        }
      ],
      "name": "hospitals",
      "outputs": [
        {
          "internalType": "string",
          "name": "id",
          "type": "string"
        },
        {
          "internalType": "string",
          "name": "name",
          "type": "string"
        },
        {
          "internalType": "string",
          "name": "addresss",
          "type": "string"
        },
        {
          "internalType": "string",
          "name": "phone",
          "type": "string"
        },
        {
          "internalType": "uint256",
          "name": "totalBeds",
          "type": "uint256"
        },
        {
          "internalType": "uint256",
          "name": "availableBeds",
          "type": "uint256"
        },
        {
          "internalType": "uint256",
          "name": "icuBeds",
          "type": "uint256"
        },
        {
          "internalType": "uint256",
          "name": "ventilators",
          "type": "uint256"
        },
        {
          "internalType": "bool",
          "name": "exists",
          "type": "bool"
        }
      ],
      "stateMutability": "view",
      "type": "function"
    },
    {
      "inputs": [
        {
          "internalType": "string",
          "name": "",
          "type": "string"
        }
      ],
      "name": "patients",
      "outputs": [
        {
          "internalType": "string",
          "name": "id",
          "type": "string"
        },
        {
          "internalType": "string",
          "name": "name",
          "type": "string"
        },
        {
          "internalType": "string",
          "name": "bloodType",
          "type": "string"
        },
        {
          "internalType": "string",
          "name": "allergy",
          "type": "string"
        },
        {
          "internalType": "string",
          "name": "surgery",
          "type": "string"
        },
        {
          "internalType": "string",
          "name": "medicalIssue",
          "type": "string"
        },
        {
          "internalType": "string",
          "name": "emergencyContact",
          "type": "string"
        },
        {
          "internalType": "bool",
          "name": "exists",
          "type": "bool"
        }
      ],
      "stateMutability": "view",
      "type": "function"
    },
    {
      "inputs": [
        {
          "internalType": "string",
          "name": "_id",
          "type": "string"
        },
        {
          "internalType": "string",
          "name": "_name",
          "type": "string"
        },
        {
          "internalType": "string",
          "name": "_specialization",
          "type": "string"
        },
        {
          "internalType": "string",
          "name": "_hospitalId",
          "type": "string"
        },
        {
          "internalType": "uint256",
          "name": "_experience",
          "type": "uint256"
        }
      ],
      "name": "registerDoctor",
      "outputs": [],
      "stateMutability": "nonpayable",
      "type": "function"
    },
    {
      "inputs": [
        {
          "internalType": "string",
          "name": "_id",
          "type": "string"
        },
        {
          "internalType": "string",
          "name": "_name",
          "type": "string"
        },
        {
          "internalType": "string",
          "name": "_address",
          "type": "string"
        },
        {
          "internalType": "string",
          "name": "_phone",
          "type": "string"
        },
        {
          "internalType": "uint256",
          "name": "_totalBeds",
          "type": "uint256"
        },
        {
          "internalType": "uint256",
          "name": "_icuBeds",
          "type": "uint256"
        },
        {
          "internalType": "uint256",
          "name": "_ventilators",
          "type": "uint256"
        }
      ],
      "name": "registerHospital",
      "outputs": [],
      "stateMutability": "nonpayable",
      "type": "function"
    },
    {
      "inputs": [
        {
          "internalType": "string",
          "name": "_id",
          "type": "string"
        },
        {
          "internalType": "string",
          "name": "_name",
          "type": "string"
        },
        {
          "internalType": "string",
          "name": "_bloodType",
          "type": "string"
        },
        {
          "internalType": "string",
          "name": "_allergy",
          "type": "string"
        },
        {
          "internalType": "string",
          "name": "_surgery",
          "type": "string"
        },
        {
          "internalType": "string",
          "name": "_medicalIssue",
          "type": "string"
        },
        {
          "internalType": "string",
          "name": "_emergencyContact",
          "type": "string"
        }
      ],
      "name": "registerPatient",
      "outputs": [],
      "stateMutability": "nonpayable",
      "type": "function"
    },
    {
      "inputs": [
        {
          "internalType": "string",
          "name": "_id",
          "type": "string"
        },
        {
          "internalType": "string",
          "name": "_name",
          "type": "string"
        },
        {
          "internalType": "string",
          "name": "_email",
          "type": "string"
        },
        {
          "internalType": "string",
          "name": "_phone",
          "type": "string"
        },
        {
          "internalType": "string",
          "name": "_profilePic",
          "type": "string"
        },
        {
          "internalType": "enum HospitalManagement.Role",
          "name": "_role",
          "type": "uint8"
        }
      ],
      "name": "registerUser",
      "outputs": [],
      "stateMutability": "nonpayable",
      "type": "function"
    },
    {
      "inputs": [
        {
          "internalType": "string",
          "name": "_id",
          "type": "string"
        },
        {
          "internalType": "uint256",
          "name": "_availableBeds",
          "type": "uint256"
        }
      ],
      "name": "updateHospital",
      "outputs": [],
      "stateMutability": "nonpayable",
      "type": "function"
    },
    {
      "inputs": [
        {
          "internalType": "address",
          "name": "_userAddress",
          "type": "address"
        },
        {
          "internalType": "enum HospitalManagement.Role",
          "name": "_newRole",
          "type": "uint8"
        }
      ],
      "name": "updateUserRole",
      "outputs": [],
      "stateMutability": "nonpayable",
      "type": "function"
    },
    {
      "inputs": [
        {
          "internalType": "address",
          "name": "",
          "type": "address"
        }
      ],
      "name": "users",
      "outputs": [
        {
          "internalType": "string",
          "name": "id",
          "type": "string"
        },
        {
          "internalType": "string",
          "name": "name",
          "type": "string"
        },
        {
          "internalType": "string",
          "name": "email",
          "type": "string"
        },
        {
          "internalType": "string",
          "name": "phone",
          "type": "string"
        },
        {
          "internalType": "string",
          "name": "profilePic",
          "type": "string"
        },
        {
          "internalType": "enum HospitalManagement.Role",
          "name": "role",
          "type": "uint8"
        },
        {
          "internalType": "bool",
          "name": "exists",
          "type": "bool"
        }
      ],
      "stateMutability": "view",
      "type": "function"
    }
  ],
  "bytecode": "0x608060405234801561001057600080fd5b5061481a806100206000396000f3fe608060405234801561001057600080fd5b50600436106100ea5760003560e01c8063a30b6ec31161008c578063bc75e60211610066578063bc75e60214610293578063c291fe62146102af578063c6009d84146102cb578063e79a7a2e14610302576100ea565b8063a30b6ec314610225578063a3de4d6014610241578063a87430ba1461025d576100ea565b80636f77926b116100c85780636f77926b146101715780639166df58146101a15780639f50b7da146101d15780639f516435146101ed576100ea565b806305c35ce5146100ef578063604990921461012557806369dac91314610155575b600080fd5b61010960048036038101906101049190613034565b610332565b60405161011c9796959493929190613130565b60405180910390f35b61013f600480360381019061013a9190613034565b6105c4565b60405161014c91906132d4565b60405180910390f35b61016f600480360381019061016a919061331b565b6108f2565b005b61018b60048036038101906101869190613492565b610b20565b60405161019891906135ee565b60405180910390f35b6101bb60048036038101906101b69190613034565b610f36565b6040516101c891906136ea565b60405180910390f35b6101eb60048036038101906101e69190613738565b611268565b005b61020760048036038101906102029190613034565b61154f565b60405161021c9998979695949392919061384a565b60405180910390f35b61023f600480360381019061023a91906138f3565b6117e0565b005b61025b60048036038101906102569190613a59565b611a5e565b005b61027760048036038101906102729190613492565b611daa565b60405161028a9796959493929190613b53565b60405180910390f35b6102ad60048036038101906102a89190613be5565b6120ae565b005b6102c960048036038101906102c49190613c41565b6122d2565b005b6102e560048036038101906102e09190613034565b6124d0565b6040516102f9989796959493929190613c81565b60405180910390f35b61031c60048036038101906103179190613034565b6128f3565b6040516103299190613e0a565b60405180910390f35b60028180516020810182018051848252602083016020850120818352809550505050505060009150905080600001805461036b90613e5b565b80601f016020809104026020016040519081016040528092919081815260200182805461039790613e5b565b80156103e45780601f106103b9576101008083540402835291602001916103e4565b820191906000526020600020905b8154815290600101906020018083116103c757829003601f168201915b5050505050908060010180546103f990613e5b565b80601f016020809104026020016040519081016040528092919081815260200182805461042590613e5b565b80156104725780601f1061044757610100808354040283529160200191610472565b820191906000526020600020905b81548152906001019060200180831161045557829003601f168201915b50505050509080600201805461048790613e5b565b80601f01602080910402602001604051908101604052809291908181526020018280546104b390613e5b565b80156105005780601f106104d557610100808354040283529160200191610500565b820191906000526020600020905b8154815290600101906020018083116104e357829003601f168201915b50505050509080600301805461051590613e5b565b80601f016020809104026020016040519081016040528092919081815260200182805461054190613e5b565b801561058e5780601f106105635761010080835404028352916020019161058e565b820191906000526020600020905b81548152906001019060200180831161057157829003601f168201915b5050505050908060040154908060050160009054906101000a900460ff16908060050160019054906101000a900460ff16905087565b6105cc612db3565b6002826040516105dc9190613ec8565b908152602001604051809103902060050160019054906101000a900460ff1661063a576040517f08c379a000000000000000000000000000000000000000000000000000000000815260040161063190613f2b565b60405180910390fd5b60028260405161064a9190613ec8565b90815260200160405180910390206040518060e001604052908160008201805461067390613e5b565b80601f016020809104026020016040519081016040528092919081815260200182805461069f90613e5b565b80156106ec5780601f106106c1576101008083540402835291602001916106ec565b820191906000526020600020905b8154815290600101906020018083116106cf57829003601f168201915b5050505050815260200160018201805461070590613e5b565b80601f016020809104026020016040519081016040528092919081815260200182805461073190613e5b565b801561077e5780601f106107535761010080835404028352916020019161077e565b820191906000526020600020905b81548152906001019060200180831161076157829003601f168201915b5050505050815260200160028201805461079790613e5b565b80601f01602080910402602001604051908101604052809291908181526020018280546107c390613e5b565b80156108105780601f106107e557610100808354040283529160200191610810565b820191906000526020600020905b8154815290600101906020018083116107f357829003601f168201915b5050505050815260200160038201805461082990613e5b565b80601f016020809104026020016040519081016040528092919081815260200182805461085590613e5b565b80156108a25780601f10610877576101008083540402835291602001916108a2565b820191906000526020600020905b81548152906001019060200180831161088557829003601f168201915b50505050508152602001600482015481526020016005820160009054906101000a900460ff161515151581526020016005820160019054906101000a900460ff1615151515815250509050919050565b6000803373ffffffffffffffffffffffffffffffffffffffff1673ffffffffffffffffffffffffffffffffffffffff16815260200190815260200160002060050160019054906101000a900460ff1615610981576040517f08c379a000000000000000000000000000000000000000000000000000000000815260040161097890613f97565b60405180910390fd5b6040518060e001604052808781526020018681526020018581526020018481526020018381526020018260038111156109bd576109bc6134bf565b5b8152602001600115158152506000803373ffffffffffffffffffffffffffffffffffffffff1673ffffffffffffffffffffffffffffffffffffffff1681526020019081526020016000206000820151816000019081610a1c9190614163565b506020820151816001019081610a329190614163565b506040820151816002019081610a489190614163565b506060820151816003019081610a5e9190614163565b506080820151816004019081610a749190614163565b5060a08201518160050160006101000a81548160ff02191690836003811115610aa057610a9f6134bf565b5b021790555060c08201518160050160016101000a81548160ff0219169083151502179055509050503373ffffffffffffffffffffffffffffffffffffffff167fc2e5d5da58bd71d1a2d14cdef02a4256d971b728088f8190d067ccfbae3bd73e8783604051610b10929190614235565b60405180910390a2505050505050565b610b28612df4565b6000808373ffffffffffffffffffffffffffffffffffffffff1673ffffffffffffffffffffffffffffffffffffffff16815260200190815260200160002060050160019054906101000a900460ff16610bb6576040517f08c379a0000000000000000000000000000000000000000000000000000000008152600401610bad906142b1565b60405180910390fd5b6000808373ffffffffffffffffffffffffffffffffffffffff1673ffffffffffffffffffffffffffffffffffffffff1681526020019081526020016000206040518060e0016040529081600082018054610c0f90613e5b565b80601f0160208091040260200160405190810160405280929190818152602001828054610c3b90613e5b565b8015610c885780601f10610c5d57610100808354040283529160200191610c88565b820191906000526020600020905b815481529060010190602001808311610c6b57829003601f168201915b50505050508152602001600182018054610ca190613e5b565b80601f0160208091040260200160405190810160405280929190818152602001828054610ccd90613e5b565b8015610d1a5780601f10610cef57610100808354040283529160200191610d1a565b820191906000526020600020905b815481529060010190602001808311610cfd57829003601f168201915b50505050508152602001600282018054610d3390613e5b565b80601f0160208091040260200160405190810160405280929190818152602001828054610d5f90613e5b565b8015610dac5780601f10610d8157610100808354040283529160200191610dac565b820191906000526020600020905b815481529060010190602001808311610d8f57829003601f168201915b50505050508152602001600382018054610dc590613e5b565b80601f0160208091040260200160405190810160405280929190818152602001828054610df190613e5b565b8015610e3e5780601f10610e1357610100808354040283529160200191610e3e565b820191906000526020600020905b815481529060010190602001808311610e2157829003601f168201915b50505050508152602001600482018054610e5790613e5b565b80601f0160208091040260200160405190810160405280929190818152602001828054610e8390613e5b565b8015610ed05780601f10610ea557610100808354040283529160200191610ed0565b820191906000526020600020905b815481529060010190602001808311610eb357829003601f168201915b505050505081526020016005820160009054906101000a900460ff166003811115610efe57610efd6134bf565b5b6003811115610f1057610f0f6134bf565b5b81526020016005820160019054906101000a900460ff1615151515815250509050919050565b610f3e612e45565b600182604051610f4e9190613ec8565b908152602001604051809103902060080160009054906101000a900460ff16610fac576040517f08c379a0000000000000000000000000000000000000000000000000000000008152600401610fa39061431d565b60405180910390fd5b600182604051610fbc9190613ec8565b908152602001604051809103902060405180610120016040529081600082018054610fe690613e5b565b80601f016020809104026020016040519081016040528092919081815260200182805461101290613e5b565b801561105f5780601f106110345761010080835404028352916020019161105f565b820191906000526020600020905b81548152906001019060200180831161104257829003601f168201915b5050505050815260200160018201805461107890613e5b565b80601f01602080910402602001604051908101604052809291908181526020018280546110a490613e5b565b80156110f15780601f106110c6576101008083540402835291602001916110f1565b820191906000526020600020905b8154815290600101906020018083116110d457829003601f168201915b5050505050815260200160028201805461110a90613e5b565b80601f016020809104026020016040519081016040528092919081815260200182805461113690613e5b565b80156111835780601f1061115857610100808354040283529160200191611183565b820191906000526020600020905b81548152906001019060200180831161116657829003601f168201915b5050505050815260200160038201805461119c90613e5b565b80601f01602080910402602001604051908101604052809291908181526020018280546111c890613e5b565b80156112155780601f106111ea57610100808354040283529160200191611215565b820191906000526020600020905b8154815290600101906020018083116111f857829003601f168201915b50505050508152602001600482015481526020016005820154815260200160068201548152602001600782015481526020016008820160009054906101000a900460ff1615151515815250509050919050565b60038081111561127b5761127a6134bf565b5b6000803373ffffffffffffffffffffffffffffffffffffffff1673ffffffffffffffffffffffffffffffffffffffff16815260200190815260200160002060050160009054906101000a900460ff1660038111156112dc576112db6134bf565b5b148061135a5750600260038111156112f7576112f66134bf565b5b6000803373ffffffffffffffffffffffffffffffffffffffff1673ffffffffffffffffffffffffffffffffffffffff16815260200190815260200160002060050160009054906101000a900460ff166003811115611358576113576134bf565b5b145b611399576040517f08c379a0000000000000000000000000000000000000000000000000000000008152600401611390906143af565b60405180910390fd5b6001876040516113a99190613ec8565b908152602001604051809103902060080160009054906101000a900460ff1615611408576040517f08c379a00000000000000000000000000000000000000000000000000000000081526004016113ff9061441b565b60405180910390fd5b6040518061012001604052808881526020018781526020018681526020018581526020018481526020018481526020018381526020018281526020016001151581525060018860405161145b9190613ec8565b9081526020016040518091039020600082015181600001908161147e9190614163565b5060208201518160010190816114949190614163565b5060408201518160020190816114aa9190614163565b5060608201518160030190816114c09190614163565b506080820151816004015560a0820151816005015560c0820151816006015560e082015181600701556101008201518160080160006101000a81548160ff0219169083151502179055509050507f496c6da4a4c685cf841a27c78fda2b95762bb2965fa9ed905bfb2b12e04ac0b7878760405161153e92919061443b565b60405180910390a150505050505050565b60018180516020810182018051848252602083016020850120818352809550505050505060009150905080600001805461158890613e5b565b80601f01602080910402602001604051908101604052809291908181526020018280546115b490613e5b565b80156116015780601f106115d657610100808354040283529160200191611601565b820191906000526020600020905b8154815290600101906020018083116115e457829003601f168201915b50505050509080600101805461161690613e5b565b80601f016020809104026020016040519081016040528092919081815260200182805461164290613e5b565b801561168f5780601f106116645761010080835404028352916020019161168f565b820191906000526020600020905b81548152906001019060200180831161167257829003601f168201915b5050505050908060020180546116a490613e5b565b80601f01602080910402602001604051908101604052809291908181526020018280546116d090613e5b565b801561171d5780601f106116f25761010080835404028352916020019161171d565b820191906000526020600020905b81548152906001019060200180831161170057829003601f168201915b50505050509080600301805461173290613e5b565b80601f016020809104026020016040519081016040528092919081815260200182805461175e90613e5b565b80156117ab5780601f10611780576101008083540402835291602001916117ab565b820191906000526020600020905b81548152906001019060200180831161178e57829003601f168201915b5050505050908060040154908060050154908060060154908060070154908060080160009054906101000a900460ff16905089565b600060038111156117f4576117f36134bf565b5b6000803373ffffffffffffffffffffffffffffffffffffffff1673ffffffffffffffffffffffffffffffffffffffff16815260200190815260200160002060050160009054906101000a900460ff166003811115611855576118546134bf565b5b14611895576040517f08c379a000000000000000000000000000000000000000000000000000000000815260040161188c906144be565b60405180910390fd5b6003876040516118a59190613ec8565b908152602001604051809103902060070160009054906101000a900460ff1615611904576040517f08c379a00000000000000000000000000000000000000000000000000000000081526004016118fb9061452a565b60405180910390fd5b604051806101000160405280888152602001878152602001868152602001858152602001848152602001838152602001828152602001600115158152506003886040516119519190613ec8565b908152602001604051809103902060008201518160000190816119749190614163565b50602082015181600101908161198a9190614163565b5060408201518160020190816119a09190614163565b5060608201518160030190816119b69190614163565b5060808201518160040190816119cc9190614163565b5060a08201518160050190816119e29190614163565b5060c08201518160060190816119f89190614163565b5060e08201518160070160006101000a81548160ff0219169083151502179055509050507ff57ecee040edfbd184404d12d5f2f7343575add2ba648066a9a501fa19bf3a278787604051611a4d92919061443b565b60405180910390a150505050505050565b600380811115611a7157611a706134bf565b5b6000803373ffffffffffffffffffffffffffffffffffffffff1673ffffffffffffffffffffffffffffffffffffffff16815260200190815260200160002060050160009054906101000a900460ff166003811115611ad257611ad16134bf565b5b1480611b50575060026003811115611aed57611aec6134bf565b5b6000803373ffffffffffffffffffffffffffffffffffffffff1673ffffffffffffffffffffffffffffffffffffffff16815260200190815260200160002060050160009054906101000a900460ff166003811115611b4e57611b4d6134bf565b5b145b611b8f576040517f08c379a0000000000000000000000000000000000000000000000000000000008152600401611b86906143af565b60405180910390fd5b600285604051611b9f9190613ec8565b908152602001604051809103902060050160019054906101000a900460ff1615611bfe576040517f08c379a0000000000000000000000000000000000000000000000000000000008152600401611bf590614596565b60405180910390fd5b600182604051611c0e9190613ec8565b908152602001604051809103902060080160009054906101000a900460ff16611c6c576040517f08c379a0000000000000000000000000000000000000000000000000000000008152600401611c639061431d565b60405180910390fd5b6040518060e0016040528086815260200185815260200184815260200183815260200182815260200160011515815260200160011515815250600286604051611cb59190613ec8565b90815260200160405180910390206000820151816000019081611cd89190614163565b506020820151816001019081611cee9190614163565b506040820151816002019081611d049190614163565b506060820151816003019081611d1a9190614163565b506080820151816004015560a08201518160050160006101000a81548160ff02191690831515021790555060c08201518160050160016101000a81548160ff0219169083151502179055509050507f1187c17101d2ad9d5a17b4990710f2be353a26783d7627f24824dd75475ddea2858585604051611d9b939291906145b6565b60405180910390a15050505050565b6000602052806000526040600020600091509050806000018054611dcd90613e5b565b80601f0160208091040260200160405190810160405280929190818152602001828054611df990613e5b565b8015611e465780601f10611e1b57610100808354040283529160200191611e46565b820191906000526020600020905b815481529060010190602001808311611e2957829003601f168201915b505050505090806001018054611e5b90613e5b565b80601f0160208091040260200160405190810160405280929190818152602001828054611e8790613e5b565b8015611ed45780601f10611ea957610100808354040283529160200191611ed4565b820191906000526020600020905b815481529060010190602001808311611eb757829003601f168201915b505050505090806002018054611ee990613e5b565b80601f0160208091040260200160405190810160405280929190818152602001828054611f1590613e5b565b8015611f625780601f10611f3757610100808354040283529160200191611f62565b820191906000526020600020905b815481529060010190602001808311611f4557829003601f168201915b505050505090806003018054611f7790613e5b565b80601f0160208091040260200160405190810160405280929190818152602001828054611fa390613e5b565b8015611ff05780601f10611fc557610100808354040283529160200191611ff0565b820191906000526020600020905b815481529060010190602001808311611fd357829003601f168201915b50505050509080600401805461200590613e5b565b80601f016020809104026020016040519081016040528092919081815260200182805461203190613e5b565b801561207e5780601f106120535761010080835404028352916020019161207e565b820191906000526020600020905b81548152906001019060200180831161206157829003601f168201915b5050505050908060050160009054906101000a900460ff16908060050160019054906101000a900460ff16905087565b6003808111156120c1576120c06134bf565b5b6000803373ffffffffffffffffffffffffffffffffffffffff1673ffffffffffffffffffffffffffffffffffffffff16815260200190815260200160002060050160009054906101000a900460ff166003811115612122576121216134bf565b5b14806121a057506002600381111561213d5761213c6134bf565b5b6000803373ffffffffffffffffffffffffffffffffffffffff1673ffffffffffffffffffffffffffffffffffffffff16815260200190815260200160002060050160009054906101000a900460ff16600381111561219e5761219d6134bf565b5b145b6121df576040517f08c379a00000000000000000000000000000000000000000000000000000000081526004016121d6906143af565b60405180910390fd5b6001826040516121ef9190613ec8565b908152602001604051809103902060080160009054906101000a900460ff1661224d576040517f08c379a00000000000000000000000000000000000000000000000000000000081526004016122449061431d565b60405180910390fd5b8060018360405161225e9190613ec8565b9081526020016040518091039020600501819055507f82c1b17b6ee344dfb6760923225788a729bf479b33bdf68eb495d02d0922e543826001846040516122a59190613ec8565b9081526020016040518091039020600101836040516122c693929190614686565b60405180910390a15050565b600260038111156122e6576122e56134bf565b5b6000803373ffffffffffffffffffffffffffffffffffffffff1673ffffffffffffffffffffffffffffffffffffffff16815260200190815260200160002060050160009054906101000a900460ff166003811115612347576123466134bf565b5b14612387576040517f08c379a000000000000000000000000000000000000000000000000000000000815260040161237e9061473d565b60405180910390fd5b6000808373ffffffffffffffffffffffffffffffffffffffff1673ffffffffffffffffffffffffffffffffffffffff16815260200190815260200160002060050160019054906101000a900460ff16612415576040517f08c379a000000000000000000000000000000000000000000000000000000000815260040161240c906142b1565b60405180910390fd5b806000808473ffffffffffffffffffffffffffffffffffffffff1673ffffffffffffffffffffffffffffffffffffffff16815260200190815260200160002060050160006101000a81548160ff02191690836003811115612479576124786134bf565b5b02179055508173ffffffffffffffffffffffffffffffffffffffff167f8348234787debc8768e710bb8608864a37ffc99e6bde8bf5358171239895f2b3826040516124c4919061475d565b60405180910390a25050565b60038180516020810182018051848252602083016020850120818352809550505050505060009150905080600001805461250990613e5b565b80601f016020809104026020016040519081016040528092919081815260200182805461253590613e5b565b80156125825780601f1061255757610100808354040283529160200191612582565b820191906000526020600020905b81548152906001019060200180831161256557829003601f168201915b50505050509080600101805461259790613e5b565b80601f01602080910402602001604051908101604052809291908181526020018280546125c390613e5b565b80156126105780601f106125e557610100808354040283529160200191612610565b820191906000526020600020905b8154815290600101906020018083116125f357829003601f168201915b50505050509080600201805461262590613e5b565b80601f016020809104026020016040519081016040528092919081815260200182805461265190613e5b565b801561269e5780601f106126735761010080835404028352916020019161269e565b820191906000526020600020905b81548152906001019060200180831161268157829003601f168201915b5050505050908060030180546126b390613e5b565b80601f01602080910402602001604051908101604052809291908181526020018280546126df90613e5b565b801561272c5780601f106127015761010080835404028352916020019161272c565b820191906000526020600020905b81548152906001019060200180831161270f57829003601f168201915b50505050509080600401805461274190613e5b565b80601f016020809104026020016040519081016040528092919081815260200182805461276d90613e5b565b80156127ba5780601f1061278f576101008083540402835291602001916127ba565b820191906000526020600020905b81548152906001019060200180831161279d57829003601f168201915b5050505050908060050180546127cf90613e5b565b80601f01602080910402602001604051908101604052809291908181526020018280546127fb90613e5b565b80156128485780601f1061281d57610100808354040283529160200191612848565b820191906000526020600020905b81548152906001019060200180831161282b57829003601f168201915b50505050509080600601805461285d90613e5b565b80601f016020809104026020016040519081016040528092919081815260200182805461288990613e5b565b80156128d65780601f106128ab576101008083540402835291602001916128d6565b820191906000526020600020905b8154815290600101906020018083116128b957829003601f168201915b5050505050908060070160009054906101000a900460ff16905088565b6128fb612e93565b60038260405161290b9190613ec8565b908152602001604051809103902060070160009054906101000a900460ff16612969576040517f08c379a0000000000000000000000000000000000000000000000000000000008152600401612960906147c4565b60405180910390fd5b6003826040516129799190613ec8565b9081526020016040518091039020604051806101000160405290816000820180546129a390613e5b565b80601f01602080910402602001604051908101604052809291908181526020018280546129cf90613e5b565b8015612a1c5780601f106129f157610100808354040283529160200191612a1c565b820191906000526020600020905b8154815290600101906020018083116129ff57829003601f168201915b50505050508152602001600182018054612a3590613e5b565b80601f0160208091040260200160405190810160405280929190818152602001828054612a6190613e5b565b8015612aae5780601f10612a8357610100808354040283529160200191612aae565b820191906000526020600020905b815481529060010190602001808311612a9157829003601f168201915b50505050508152602001600282018054612ac790613e5b565b80601f0160208091040260200160405190810160405280929190818152602001828054612af390613e5b565b8015612b405780601f10612b1557610100808354040283529160200191612b40565b820191906000526020600020905b815481529060010190602001808311612b2357829003601f168201915b50505050508152602001600382018054612b5990613e5b565b80601f0160208091040260200160405190810160405280929190818152602001828054612b8590613e5b565b8015612bd25780601f10612ba757610100808354040283529160200191612bd2565b820191906000526020600020905b815481529060010190602001808311612bb557829003601f168201915b50505050508152602001600482018054612beb90613e5b565b80601f0160208091040260200160405190810160405280929190818152602001828054612c1790613e5b565b8015612c645780601f10612c3957610100808354040283529160200191612c64565b820191906000526020600020905b815481529060010190602001808311612c4757829003601f168201915b50505050508152602001600582018054612c7d90613e5b565b80601f0160208091040260200160405190810160405280929190818152602001828054612ca990613e5b565b8015612cf65780601f10612ccb57610100808354040283529160200191612cf6565b820191906000526020600020905b815481529060010190602001808311612cd957829003601f168201915b50505050508152602001600682018054612d0f90613e5b565b80601f0160208091040260200160405190810160405280929190818152602001828054612d3b90613e5b565b8015612d885780601f10612d5d57610100808354040283529160200191612d88565b820191906000526020600020905b815481529060010190602001808311612d6b57829003601f168201915b505050505081526020016007820160009054906101000a900460ff1615151515815250509050919050565b6040518060e0016040528060608152602001606081526020016060815260200160608152602001600081526020016000151581526020016000151581525090565b6040518060e00160405280606081526020016060815260200160608152602001606081526020016060815260200160006003811115612e3657612e356134bf565b5b81526020016000151581525090565b60405180610120016040528060608152602001606081526020016060815260200160608152602001600081526020016000815260200160008152602001600081526020016000151581525090565b604051806101000160405280606081526020016060815260200160608152602001606081526020016060815260200160608152602001606081526020016000151581525090565b6000604051905090565b600080fd5b600080fd5b600080fd5b600080fd5b6000601f19601f8301169050919050565b7f4e487b7100000000000000000000000000000000000000000000000000000000600052604160045260246000fd5b612f4182612ef8565b810181811067ffffffffffffffff82111715612f6057612f5f612f09565b5b80604052505050565b6000612f73612eda565b9050612f7f8282612f38565b919050565b600067ffffffffffffffff821115612f9f57612f9e612f09565b5b612fa882612ef8565b9050602081019050919050565b82818337600083830152505050565b6000612fd7612fd284612f84565b612f69565b905082815260208101848484011115612ff357612ff2612ef3565b5b612ffe848285612fb5565b509392505050565b600082601f83011261301b5761301a612eee565b5b813561302b848260208601612fc4565b91505092915050565b60006020828403121561304a57613049612ee4565b5b600082013567ffffffffffffffff81111561306857613067612ee9565b5b61307484828501613006565b91505092915050565b600081519050919050565b600082825260208201905092915050565b60005b838110156130b757808201518184015260208101905061309c565b60008484015250505050565b60006130ce8261307d565b6130d88185613088565b93506130e8818560208601613099565b6130f181612ef8565b840191505092915050565b6000819050919050565b61310f816130fc565b82525050565b60008115159050919050565b61312a81613115565b82525050565b600060e082019050818103600083015261314a818a6130c3565b9050818103602083015261315e81896130c3565b9050818103604083015261317281886130c3565b9050818103606083015261318681876130c3565b90506131956080830186613106565b6131a260a0830185613121565b6131af60c0830184613121565b98975050505050505050565b600082825260208201905092915050565b60006131d78261307d565b6131e181856131bb565b93506131f1818560208601613099565b6131fa81612ef8565b840191505092915050565b61320e816130fc565b82525050565b61321d81613115565b82525050565b600060e083016000830151848203600086015261324082826131cc565b9150506020830151848203602086015261325a82826131cc565b9150506040830151848203604086015261327482826131cc565b9150506060830151848203606086015261328e82826131cc565b91505060808301516132a36080860182613205565b5060a08301516132b660a0860182613214565b5060c08301516132c960c0860182613214565b508091505092915050565b600060208201905081810360008301526132ee8184613223565b905092915050565b6004811061330357600080fd5b50565b600081359050613315816132f6565b92915050565b60008060008060008060c0878903121561333857613337612ee4565b5b600087013567ffffffffffffffff81111561335657613355612ee9565b5b61336289828a01613006565b965050602087013567ffffffffffffffff81111561338357613382612ee9565b5b61338f89828a01613006565b955050604087013567ffffffffffffffff8111156133b0576133af612ee9565b5b6133bc89828a01613006565b945050606087013567ffffffffffffffff8111156133dd576133dc612ee9565b5b6133e989828a01613006565b935050608087013567ffffffffffffffff81111561340a57613409612ee9565b5b61341689828a01613006565b92505060a061342789828a01613306565b9150509295509295509295565b600073ffffffffffffffffffffffffffffffffffffffff82169050919050565b600061345f82613434565b9050919050565b61346f81613454565b811461347a57600080fd5b50565b60008135905061348c81613466565b92915050565b6000602082840312156134a8576134a7612ee4565b5b60006134b68482850161347d565b91505092915050565b7f4e487b7100000000000000000000000000000000000000000000000000000000600052602160045260246000fd5b600481106134ff576134fe6134bf565b5b50565b6000819050613510826134ee565b919050565b600061352082613502565b9050919050565b61353081613515565b82525050565b600060e083016000830151848203600086015261355382826131cc565b9150506020830151848203602086015261356d82826131cc565b9150506040830151848203604086015261358782826131cc565b915050606083015184820360608601526135a182826131cc565b915050608083015184820360808601526135bb82826131cc565b91505060a08301516135d060a0860182613527565b5060c08301516135e360c0860182613214565b508091505092915050565b600060208201905081810360008301526136088184613536565b905092915050565b600061012083016000830151848203600086015261362e82826131cc565b9150506020830151848203602086015261364882826131cc565b9150506040830151848203604086015261366282826131cc565b9150506060830151848203606086015261367c82826131cc565b91505060808301516136916080860182613205565b5060a08301516136a460a0860182613205565b5060c08301516136b760c0860182613205565b5060e08301516136ca60e0860182613205565b506101008301516136df610100860182613214565b508091505092915050565b600060208201905081810360008301526137048184613610565b905092915050565b613715816130fc565b811461372057600080fd5b50565b6000813590506137328161370c565b92915050565b600080600080600080600060e0888a03121561375757613756612ee4565b5b600088013567ffffffffffffffff81111561377557613774612ee9565b5b6137818a828b01613006565b975050602088013567ffffffffffffffff8111156137a2576137a1612ee9565b5b6137ae8a828b01613006565b965050604088013567ffffffffffffffff8111156137cf576137ce612ee9565b5b6137db8a828b01613006565b955050606088013567ffffffffffffffff8111156137fc576137fb612ee9565b5b6138088a828b01613006565b94505060806138198a828b01613723565b93505060a061382a8a828b01613723565b92505060c061383b8a828b01613723565b91505092959891949750929550565b6000610120820190508181036000830152613865818c6130c3565b90508181036020830152613879818b6130c3565b9050818103604083015261388d818a6130c3565b905081810360608301526138a181896130c3565b90506138b06080830188613106565b6138bd60a0830187613106565b6138ca60c0830186613106565b6138d760e0830185613106565b6138e5610100830184613121565b9a9950505050505050505050565b600080600080600080600060e0888a03121561391257613911612ee4565b5b600088013567ffffffffffffffff8111156139305761392f612ee9565b5b61393c8a828b01613006565b975050602088013567ffffffffffffffff81111561395d5761395c612ee9565b5b6139698a828b01613006565b965050604088013567ffffffffffffffff81111561398a57613989612ee9565b5b6139968a828b01613006565b955050606088013567ffffffffffffffff8111156139b7576139b6612ee9565b5b6139c38a828b01613006565b945050608088013567ffffffffffffffff8111156139e4576139e3612ee9565b5b6139f08a828b01613006565b93505060a088013567ffffffffffffffff811115613a1157613a10612ee9565b5b613a1d8a828b01613006565b92505060c088013567ffffffffffffffff811115613a3e57613a3d612ee9565b5b613a4a8a828b01613006565b91505092959891949750929550565b600080600080600060a08688031215613a7557613a74612ee4565b5b600086013567ffffffffffffffff811115613a9357613a92612ee9565b5b613a9f88828901613006565b955050602086013567ffffffffffffffff811115613ac057613abf612ee9565b5b613acc88828901613006565b945050604086013567ffffffffffffffff811115613aed57613aec612ee9565b5b613af988828901613006565b935050606086013567ffffffffffffffff811115613b1a57613b19612ee9565b5b613b2688828901613006565b9250506080613b3788828901613723565b9150509295509295909350565b613b4d81613515565b82525050565b600060e0820190508181036000830152613b6d818a6130c3565b90508181036020830152613b8181896130c3565b90508181036040830152613b9581886130c3565b90508181036060830152613ba981876130c3565b90508181036080830152613bbd81866130c3565b9050613bcc60a0830185613b44565b613bd960c0830184613121565b98975050505050505050565b60008060408385031215613bfc57613bfb612ee4565b5b600083013567ffffffffffffffff811115613c1a57613c19612ee9565b5b613c2685828601613006565b9250506020613c3785828601613723565b9150509250929050565b60008060408385031215613c5857613c57612ee4565b5b6000613c668582860161347d565b9250506020613c7785828601613306565b9150509250929050565b6000610100820190508181036000830152613c9c818b6130c3565b90508181036020830152613cb0818a6130c3565b90508181036040830152613cc481896130c3565b90508181036060830152613cd881886130c3565b90508181036080830152613cec81876130c3565b905081810360a0830152613d0081866130c3565b905081810360c0830152613d1481856130c3565b9050613d2360e0830184613121565b9998505050505050505050565b6000610100830160008301518482036000860152613d4e82826131cc565b91505060208301518482036020860152613d6882826131cc565b91505060408301518482036040860152613d8282826131cc565b91505060608301518482036060860152613d9c82826131cc565b91505060808301518482036080860152613db682826131cc565b91505060a083015184820360a0860152613dd082826131cc565b91505060c083015184820360c0860152613dea82826131cc565b91505060e0830151613dff60e0860182613214565b508091505092915050565b60006020820190508181036000830152613e248184613d30565b905092915050565b7f4e487b7100000000000000000000000000000000000000000000000000000000600052602260045260246000fd5b60006002820490506001821680613e7357607f821691505b602082108103613e8657613e85613e2c565b5b50919050565b600081905092915050565b6000613ea28261307d565b613eac8185613e8c565b9350613ebc818560208601613099565b80840191505092915050565b6000613ed48284613e97565b915081905092915050565b7f446f63746f7220646f6573206e6f742065786973740000000000000000000000600082015250565b6000613f15601583613088565b9150613f2082613edf565b602082019050919050565b60006020820190508181036000830152613f4481613f08565b9050919050565b7f5573657220616c72656164792072656769737465726564000000000000000000600082015250565b6000613f81601783613088565b9150613f8c82613f4b565b602082019050919050565b60006020820190508181036000830152613fb081613f74565b9050919050565b60008190508160005260206000209050919050565b60006020601f8301049050919050565b600082821b905092915050565b6000600883026140197fffffffffffffffffffffffffffffffffffffffffffffffffffffffffffffffff82613fdc565b6140238683613fdc565b95508019841693508086168417925050509392505050565b6000819050919050565b600061406061405b614056846130fc565b61403b565b6130fc565b9050919050565b6000819050919050565b61407a83614045565b61408e61408682614067565b848454613fe9565b825550505050565b600090565b6140a3614096565b6140ae818484614071565b505050565b5b818110156140d2576140c760008261409b565b6001810190506140b4565b5050565b601f821115614117576140e881613fb7565b6140f184613fcc565b81016020851015614100578190505b61411461410c85613fcc565b8301826140b3565b50505b505050565b600082821c905092915050565b600061413a6000198460080261411c565b1980831691505092915050565b60006141538383614129565b9150826002028217905092915050565b61416c8261307d565b67ffffffffffffffff81111561418557614184612f09565b5b61418f8254613e5b565b61419a8282856140d6565b600060209050601f8311600181146141cd57600084156141bb578287015190505b6141c58582614147565b86555061422d565b601f1984166141db86613fb7565b60005b82811015614203578489015182556001820191506020850194506020810190506141de565b86831015614220578489015161421c601f891682614129565b8355505b6001600288020188555050505b505050505050565b6000604082019050818103600083015261424f81856130c3565b905061425e6020830184613b44565b9392505050565b7f5573657220646f6573206e6f7420657869737400000000000000000000000000600082015250565b600061429b601383613088565b91506142a682614265565b602082019050919050565b600060208201905081810360008301526142ca8161428e565b9050919050565b7f486f73706974616c20646f6573206e6f74206578697374000000000000000000600082015250565b6000614307601783613088565b9150614312826142d1565b602082019050919050565b60006020820190508181036000830152614336816142fa565b9050919050565b7f4f6e6c7920686f73706974616c2061646d696e206f722061646d696e2063616e60008201527f20706572666f726d207468697320616374696f6e000000000000000000000000602082015250565b6000614399603483613088565b91506143a48261433d565b604082019050919050565b600060208201905081810360008301526143c88161438c565b9050919050565b7f486f73706974616c20616c726561647920726567697374657265640000000000600082015250565b6000614405601b83613088565b9150614410826143cf565b602082019050919050565b60006020820190508181036000830152614434816143f8565b9050919050565b6000604082019050818103600083015261445581856130c3565b9050818103602083015261446981846130c3565b90509392505050565b7f4f6e6c792070617469656e74732063616e207265676973746572000000000000600082015250565b60006144a8601a83613088565b91506144b382614472565b602082019050919050565b600060208201905081810360008301526144d78161449b565b9050919050565b7f50617469656e7420616c72656164792072656769737465726564000000000000600082015250565b6000614514601a83613088565b915061451f826144de565b602082019050919050565b6000602082019050818103600083015261454381614507565b9050919050565b7f446f63746f7220616c7265616479207265676973746572656400000000000000600082015250565b6000614580601983613088565b915061458b8261454a565b602082019050919050565b600060208201905081810360008301526145af81614573565b9050919050565b600060608201905081810360008301526145d081866130c3565b905081810360208301526145e481856130c3565b905081810360408301526145f881846130c3565b9050949350505050565b6000815461460f81613e5b565b6146198186613088565b94506001821660008114614634576001811461464a5761467d565b60ff19831686528115156020028601935061467d565b61465385613fb7565b60005b8381101561467557815481890152600182019150602081019050614656565b808801955050505b50505092915050565b600060608201905081810360008301526146a081866130c3565b905081810360208301526146b48185614602565b90506146c36040830184613106565b949350505050565b7f4f6e6c792061646d696e2063616e20706572666f726d2074686973206163746960008201527f6f6e000000000000000000000000000000000000000000000000000000000000602082015250565b6000614727602283613088565b9150614732826146cb565b604082019050919050565b600060208201905081810360008301526147568161471a565b9050919050565b60006020820190506147726000830184613b44565b92915050565b7f50617469656e7420646f6573206e6f7420657869737400000000000000000000600082015250565b60006147ae601683613088565b91506147b982614778565b602082019050919050565b600060208201905081810360008301526147dd816147a1565b905091905056fea2646970667358221220d1d0e4a016c14debf9b59a4e6a1952d75f150997fc7ccc985a6ea096c3784c6d64736f6c63430008120033",
  "linkReferences": {},
  "deployedLinkReferences": {}
}